{
  "_format": "hh-sol-artifact-1",
  "contractName": "Settings",
  "sourceName": "contracts/fractional/Settings.sol",
  "abi": [
    {
      "inputs": [],
      "stateMutability": "nonpayable",
      "type": "constructor"
    },
    {
      "anonymous": false,
      "inputs": [
        {
          "indexed": true,
          "internalType": "address",
          "name": "previousOwner",
          "type": "address"
        },
        {
          "indexed": true,
          "internalType": "address",
          "name": "newOwner",
          "type": "address"
        }
      ],
      "name": "OwnershipTransferred",
      "type": "event"
    },
    {
      "anonymous": false,
      "inputs": [
        {
          "indexed": false,
          "internalType": "uint256",
          "name": "_old",
          "type": "uint256"
        },
        {
          "indexed": false,
          "internalType": "uint256",
          "name": "_new",
          "type": "uint256"
        }
      ],
      "name": "UpdateCuratorFee",
      "type": "event"
    },
    {
      "anonymous": false,
      "inputs": [
        {
          "indexed": false,
          "internalType": "address",
          "name": "_old",
          "type": "address"
        },
        {
          "indexed": false,
          "internalType": "address",
          "name": "_new",
          "type": "address"
        }
      ],
      "name": "UpdateFeeReceiver",
      "type": "event"
    },
    {
      "anonymous": false,
      "inputs": [
        {
          "indexed": false,
          "internalType": "uint256",
          "name": "_old",
          "type": "uint256"
        },
        {
          "indexed": false,
          "internalType": "uint256",
          "name": "_new",
          "type": "uint256"
        }
      ],
      "name": "UpdateGovernanceFee",
      "type": "event"
    },
    {
      "anonymous": false,
      "inputs": [
        {
          "indexed": false,
          "internalType": "uint256",
          "name": "_old",
          "type": "uint256"
        },
        {
          "indexed": false,
          "internalType": "uint256",
          "name": "_new",
          "type": "uint256"
        }
      ],
      "name": "UpdateMaxAuctionLength",
      "type": "event"
    },
    {
      "anonymous": false,
      "inputs": [
        {
          "indexed": false,
          "internalType": "uint256",
          "name": "_old",
          "type": "uint256"
        },
        {
          "indexed": false,
          "internalType": "uint256",
          "name": "_new",
          "type": "uint256"
        }
      ],
      "name": "UpdateMaxReserveFactor",
      "type": "event"
    },
    {
      "anonymous": false,
      "inputs": [
        {
          "indexed": false,
          "internalType": "uint256",
          "name": "_old",
          "type": "uint256"
        },
        {
          "indexed": false,
          "internalType": "uint256",
          "name": "_new",
          "type": "uint256"
        }
      ],
      "name": "UpdateMinAuctionLength",
      "type": "event"
    },
    {
      "anonymous": false,
      "inputs": [
        {
          "indexed": false,
          "internalType": "uint256",
          "name": "_old",
          "type": "uint256"
        },
        {
          "indexed": false,
          "internalType": "uint256",
          "name": "_new",
          "type": "uint256"
        }
      ],
      "name": "UpdateMinBidIncrease",
      "type": "event"
    },
    {
      "anonymous": false,
      "inputs": [
        {
          "indexed": false,
          "internalType": "uint256",
          "name": "_old",
          "type": "uint256"
        },
        {
          "indexed": false,
          "internalType": "uint256",
          "name": "_new",
          "type": "uint256"
        }
      ],
      "name": "UpdateMinReserveFactor",
      "type": "event"
    },
    {
      "anonymous": false,
      "inputs": [
        {
          "indexed": false,
          "internalType": "uint256",
          "name": "_old",
          "type": "uint256"
        },
        {
          "indexed": false,
          "internalType": "uint256",
          "name": "_new",
          "type": "uint256"
        }
      ],
      "name": "UpdateMinVotePercentage",
      "type": "event"
    },
    {
      "inputs": [],
      "name": "feeReceiver",
      "outputs": [
        {
          "internalType": "address payable",
          "name": "",
          "type": "address"
        }
      ],
      "stateMutability": "view",
      "type": "function"
    },
    {
      "inputs": [],
      "name": "governanceFee",
      "outputs": [
        {
          "internalType": "uint256",
          "name": "",
          "type": "uint256"
        }
      ],
      "stateMutability": "view",
      "type": "function"
    },
    {
      "inputs": [],
      "name": "maxAuctionLength",
      "outputs": [
        {
          "internalType": "uint256",
          "name": "",
          "type": "uint256"
        }
      ],
      "stateMutability": "view",
      "type": "function"
    },
    {
      "inputs": [],
      "name": "maxCuratorFee",
      "outputs": [
        {
          "internalType": "uint256",
          "name": "",
          "type": "uint256"
        }
      ],
      "stateMutability": "view",
      "type": "function"
    },
    {
      "inputs": [],
      "name": "maxGovFee",
      "outputs": [
        {
          "internalType": "uint256",
          "name": "",
          "type": "uint256"
        }
      ],
      "stateMutability": "view",
      "type": "function"
    },
    {
      "inputs": [],
      "name": "maxMaxAuctionLength",
      "outputs": [
        {
          "internalType": "uint256",
          "name": "",
          "type": "uint256"
        }
      ],
      "stateMutability": "view",
      "type": "function"
    },
    {
      "inputs": [],
      "name": "maxMinBidIncrease",
      "outputs": [
        {
          "internalType": "uint256",
          "name": "",
          "type": "uint256"
        }
      ],
      "stateMutability": "view",
      "type": "function"
    },
    {
      "inputs": [],
      "name": "maxReserveFactor",
      "outputs": [
        {
          "internalType": "uint256",
          "name": "",
          "type": "uint256"
        }
      ],
      "stateMutability": "view",
      "type": "function"
    },
    {
      "inputs": [],
      "name": "minAuctionLength",
      "outputs": [
        {
          "internalType": "uint256",
          "name": "",
          "type": "uint256"
        }
      ],
      "stateMutability": "view",
      "type": "function"
    },
    {
      "inputs": [],
      "name": "minBidIncrease",
      "outputs": [
        {
          "internalType": "uint256",
          "name": "",
          "type": "uint256"
        }
      ],
      "stateMutability": "view",
      "type": "function"
    },
    {
      "inputs": [],
      "name": "minMinAuctionLength",
      "outputs": [
        {
          "internalType": "uint256",
          "name": "",
          "type": "uint256"
        }
      ],
      "stateMutability": "view",
      "type": "function"
    },
    {
      "inputs": [],
      "name": "minMinBidIncrease",
      "outputs": [
        {
          "internalType": "uint256",
          "name": "",
          "type": "uint256"
        }
      ],
      "stateMutability": "view",
      "type": "function"
    },
    {
      "inputs": [],
      "name": "minReserveFactor",
      "outputs": [
        {
          "internalType": "uint256",
          "name": "",
          "type": "uint256"
        }
      ],
      "stateMutability": "view",
      "type": "function"
    },
    {
      "inputs": [],
      "name": "minVotePercentage",
      "outputs": [
        {
          "internalType": "uint256",
          "name": "",
          "type": "uint256"
        }
      ],
      "stateMutability": "view",
      "type": "function"
    },
    {
      "inputs": [],
      "name": "owner",
      "outputs": [
        {
          "internalType": "address",
          "name": "",
          "type": "address"
        }
      ],
      "stateMutability": "view",
      "type": "function"
    },
    {
      "inputs": [],
      "name": "renounceOwnership",
      "outputs": [],
      "stateMutability": "nonpayable",
      "type": "function"
    },
    {
      "inputs": [
        {
          "internalType": "address payable",
          "name": "_receiver",
          "type": "address"
        }
      ],
      "name": "setFeeReceiver",
      "outputs": [],
      "stateMutability": "nonpayable",
      "type": "function"
    },
    {
      "inputs": [
        {
          "internalType": "uint256",
          "name": "_fee",
          "type": "uint256"
        }
      ],
      "name": "setGovernanceFee",
      "outputs": [],
      "stateMutability": "nonpayable",
      "type": "function"
    },
    {
      "inputs": [
        {
          "internalType": "uint256",
          "name": "_length",
          "type": "uint256"
        }
      ],
      "name": "setMaxAuctionLength",
      "outputs": [],
      "stateMutability": "nonpayable",
      "type": "function"
    },
    {
      "inputs": [
        {
          "internalType": "uint256",
          "name": "_fee",
          "type": "uint256"
        }
      ],
      "name": "setMaxCuratorFee",
      "outputs": [],
      "stateMutability": "nonpayable",
      "type": "function"
    },
    {
      "inputs": [
        {
          "internalType": "uint256",
          "name": "_factor",
          "type": "uint256"
        }
      ],
      "name": "setMaxReserveFactor",
      "outputs": [],
      "stateMutability": "nonpayable",
      "type": "function"
    },
    {
      "inputs": [
        {
          "internalType": "uint256",
          "name": "_length",
          "type": "uint256"
        }
      ],
      "name": "setMinAuctionLength",
      "outputs": [],
      "stateMutability": "nonpayable",
      "type": "function"
    },
    {
      "inputs": [
        {
          "internalType": "uint256",
          "name": "_min",
          "type": "uint256"
        }
      ],
      "name": "setMinBidIncrease",
      "outputs": [],
      "stateMutability": "nonpayable",
      "type": "function"
    },
    {
      "inputs": [
        {
          "internalType": "uint256",
          "name": "_factor",
          "type": "uint256"
        }
      ],
      "name": "setMinReserveFactor",
      "outputs": [],
      "stateMutability": "nonpayable",
      "type": "function"
    },
    {
      "inputs": [
        {
          "internalType": "uint256",
          "name": "_min",
          "type": "uint256"
        }
      ],
      "name": "setMinVotePercentage",
      "outputs": [],
      "stateMutability": "nonpayable",
      "type": "function"
    },
    {
      "inputs": [
        {
          "internalType": "address",
          "name": "newOwner",
          "type": "address"
        }
      ],
      "name": "transferOwnership",
      "outputs": [],
      "stateMutability": "nonpayable",
      "type": "function"
    }
  ],
  "bytecode": "0x608060405234801561001057600080fd5b5061001a33610059565b621275006001556203f480600255600980546001600160a01b0319163317905560c86008556113886007556032600555606460045560fa6006556100a9565b600080546001600160a01b038381166001600160a01b0319831681178455604051919092169283917f8be0079c531659141344cd1fd0a4f28419497f9722a3daafe3b4186f6b6457e09190a35050565b610de9806100b86000396000f3fe608060405234801561001057600080fd5b50600436106101ae5760003560e01c80637c513c0f116100ee578063a0b335e311610097578063d213b90011610071578063d213b90014610302578063efdcd9741461030c578063f2fde38b1461031f578063fcd81e321461027757600080fd5b8063a0b335e3146102d3578063affdafd8146102dc578063b3f00674146102ef57600080fd5b80638a364bc1116100c85780638a364bc1146102925780638da5cb5b1461029b5780639665eb0f146102c057600080fd5b80637c513c0f1461026e578063846a4dd214610277578063848103091461027f57600080fd5b806332a693301161015b57806357c74c6c1161013557806357c74c6c1461022d5780636109f5b5146102405780636fc83db314610253578063715018a61461026657600080fd5b806332a6933014610209578063339f87ed1461021c5780635410bfc91461022457600080fd5b806318fee3bf1161018c57806318fee3bf146101e15780631a58364c146101f657806332977c731461020057600080fd5b806309990a96146101b35780630e519ef9146101cf5780630ea90a12146101d8575b600080fd5b6101bc60085481565b6040519081526020015b60405180910390f35b6101bc60015481565b6101bc60035481565b6101f46101ef366004610d66565b610332565b005b6101bc6249d40081565b6101bc60065481565b6101f4610217366004610d66565b610411565b6101bc600a81565b6101bc60075481565b6101f461023b366004610d66565b6104eb565b6101f461024e366004610d66565b6105c6565b6101f4610261366004610d66565b61064f565b6101f461077c565b6101bc60055481565b6101bc606481565b6101f461028d366004610d66565b6107d0565b6101bc60045481565b6000546001600160a01b03165b6040516001600160a01b0390911681526020016101c6565b6101f46102ce366004610d66565b6108aa565b6101bc60025481565b6101f46102ea366004610d66565b6109d5565b6009546102a8906001600160a01b031681565b6101bc6201518081565b6101f461031a366004610d43565b610b02565b6101f461032d366004610d43565b610c16565b6000546001600160a01b0316331461037f5760405162461bcd60e51b81526020600482018190526024820152600080516020610d9483398151915260448201526064015b60405180910390fd5b60075481106103d05760405162461bcd60e51b815260206004820152601b60248201527f6d696e207265736572766520666163746f7220746f6f206869676800000000006044820152606401610376565b60085460408051918252602082018390527fa93910a1e82dcd753b639a2ff1def7bf84d6bb1bf6fe79212d0d9ae72afc6cfa910160405180910390a1600855565b6000546001600160a01b031633146104595760405162461bcd60e51b81526020600482018190526024820152600080516020610d948339815191526044820152606401610376565b60648111156104aa5760405162461bcd60e51b815260206004820152600c60248201527f66656520746f6f206869676800000000000000000000000000000000000000006044820152606401610376565b60035460408051918252602082018390527f11b96af861c45de0c17127383516c92fc2a9d50eff86ea831b69e76a3fa87e2f910160405180910390a1600355565b6000546001600160a01b031633146105335760405162461bcd60e51b81526020600482018190526024820152600080516020610d948339815191526044820152606401610376565b6103e88111156105855760405162461bcd60e51b815260206004820152601c60248201527f6d696e20766f74652070657263656e7461676520746f6f2068696768000000006044820152606401610376565b60065460408051918252602082018390527ff8298d9709c2527c6ec1e2c605c5a163b44b0520bdd80335d5faba17e3f38fb8910160405180910390a1600655565b6000546001600160a01b0316331461060e5760405162461bcd60e51b81526020600482018190526024820152600080516020610d948339815191526044820152606401610376565b60035460408051918252602082018390527f283f7179cc13a8f90c3123b415b98ca8a0ca9619eed3c981db52809ab62700f9910160405180910390a1600455565b6000546001600160a01b031633146106975760405162461bcd60e51b81526020600482018190526024820152600080516020610d948339815191526044820152606401610376565b620151808110156106ea5760405162461bcd60e51b815260206004820152601a60248201527f6d696e2061756374696f6e206c656e67746820746f6f206c6f770000000000006044820152606401610376565b600154811061073b5760405162461bcd60e51b815260206004820152601b60248201527f6d696e2061756374696f6e206c656e67746820746f6f206869676800000000006044820152606401610376565b60025460408051918252602082018390527f055017e5b2f20973817c668e2f744e7c1b68a6f20332f25bb7b9bbb2f0c7eca7910160405180910390a1600255565b6000546001600160a01b031633146107c45760405162461bcd60e51b81526020600482018190526024820152600080516020610d948339815191526044820152606401610376565b6107ce6000610ce6565b565b6000546001600160a01b031633146108185760405162461bcd60e51b81526020600482018190526024820152600080516020610d948339815191526044820152606401610376565b60085481116108695760405162461bcd60e51b815260206004820152601a60248201527f6d6178207265736572766520666163746f7220746f6f206c6f770000000000006044820152606401610376565b60075460408051918252602082018390527febec08ac4f5f91f0463f6e09a9b1729f1cbea09d240d8a1807ed6b9cd171ef19910160405180910390a1600755565b6000546001600160a01b031633146108f25760405162461bcd60e51b81526020600482018190526024820152600080516020610d948339815191526044820152606401610376565b60648111156109435760405162461bcd60e51b815260206004820152601960248201527f6d696e2062696420696e63726561736520746f6f2068696768000000000000006044820152606401610376565b600a8110156109945760405162461bcd60e51b815260206004820152601860248201527f6d696e2062696420696e63726561736520746f6f206c6f7700000000000000006044820152606401610376565b60055460408051918252602082018390527f3995c181714327dbf0232c3b20873e87ca6978b6418eec0f97a1447c5a4c43fc910160405180910390a1600555565b6000546001600160a01b03163314610a1d5760405162461bcd60e51b81526020600482018190526024820152600080516020610d948339815191526044820152606401610376565b6249d400811115610a705760405162461bcd60e51b815260206004820152601b60248201527f6d61782061756374696f6e206c656e67746820746f6f206869676800000000006044820152606401610376565b6002548111610ac15760405162461bcd60e51b815260206004820152601a60248201527f6d61782061756374696f6e206c656e67746820746f6f206c6f770000000000006044820152606401610376565b60015460408051918252602082018390527f06684837277f012a4c3a13c8ec0e53d85b843e328a811a8f5f25f5e1456d9f59910160405180910390a1600155565b6000546001600160a01b03163314610b4a5760405162461bcd60e51b81526020600482018190526024820152600080516020610d948339815191526044820152606401610376565b6001600160a01b038116610ba05760405162461bcd60e51b815260206004820152601b60248201527f666565732063616e6e6f7420676f20746f2030206164647265737300000000006044820152606401610376565b600954604080516001600160a01b03928316815291831660208301527f2861448678f0be67f11bfb5481b3e3b4cfeb3acc6126ad60a05f95bfc6530666910160405180910390a16009805473ffffffffffffffffffffffffffffffffffffffff19166001600160a01b0392909216919091179055565b6000546001600160a01b03163314610c5e5760405162461bcd60e51b81526020600482018190526024820152600080516020610d948339815191526044820152606401610376565b6001600160a01b038116610cda5760405162461bcd60e51b815260206004820152602660248201527f4f776e61626c653a206e6577206f776e657220697320746865207a65726f206160448201527f64647265737300000000000000000000000000000000000000000000000000006064820152608401610376565b610ce381610ce6565b50565b600080546001600160a01b0383811673ffffffffffffffffffffffffffffffffffffffff19831681178455604051919092169283917f8be0079c531659141344cd1fd0a4f28419497f9722a3daafe3b4186f6b6457e09190a35050565b600060208284031215610d54578081fd5b8135610d5f81610d7e565b9392505050565b600060208284031215610d77578081fd5b5035919050565b6001600160a01b0381168114610ce357600080fdfe4f776e61626c653a2063616c6c6572206973206e6f7420746865206f776e6572a2646970667358221220d5f97ab62a2d889298f3de6ab7c2a9f0b348bee8c5605374b2d11b0722d8f6b264736f6c63430008040033",
  "linkReferences": {},
  "deployedLinkReferences": {}
}