{
  "_format": "hh-sol-artifact-1",
  "contractName": "TokenVault",
  "sourceName": "contracts/fractional/ERC721TokenVault.sol",
  "abi": [
    {
      "inputs": [
        {
          "internalType": "address",
          "name": "_settings",
          "type": "address"
        }
      ],
      "stateMutability": "nonpayable",
      "type": "constructor"
    },
    {
      "anonymous": false,
      "inputs": [
        {
          "indexed": true,
          "internalType": "address",
          "name": "owner",
          "type": "address"
        },
        {
          "indexed": true,
          "internalType": "address",
          "name": "spender",
          "type": "address"
        },
        {
          "indexed": false,
          "internalType": "uint256",
          "name": "value",
          "type": "uint256"
        }
      ],
      "name": "Approval",
      "type": "event"
    },
    {
      "anonymous": false,
      "inputs": [
        {
          "indexed": true,
          "internalType": "address",
          "name": "buyer",
          "type": "address"
        },
        {
          "indexed": false,
          "internalType": "uint256",
          "name": "price",
          "type": "uint256"
        }
      ],
      "name": "Bid",
      "type": "event"
    },
    {
      "anonymous": false,
      "inputs": [
        {
          "indexed": true,
          "internalType": "address",
          "name": "owner",
          "type": "address"
        },
        {
          "indexed": false,
          "internalType": "uint256",
          "name": "shares",
          "type": "uint256"
        }
      ],
      "name": "Cash",
      "type": "event"
    },
    {
      "anonymous": false,
      "inputs": [
        {
          "indexed": false,
          "internalType": "uint256",
          "name": "fee",
          "type": "uint256"
        }
      ],
      "name": "FeeClaimed",
      "type": "event"
    },
    {
      "anonymous": false,
      "inputs": [
        {
          "indexed": false,
          "internalType": "uint8",
          "name": "version",
          "type": "uint8"
        }
      ],
      "name": "Initialized",
      "type": "event"
    },
    {
      "anonymous": false,
      "inputs": [
        {
          "indexed": false,
          "internalType": "address",
          "name": "account",
          "type": "address"
        }
      ],
      "name": "Paused",
      "type": "event"
    },
    {
      "anonymous": false,
      "inputs": [
        {
          "indexed": true,
          "internalType": "address",
          "name": "user",
          "type": "address"
        },
        {
          "indexed": false,
          "internalType": "uint256",
          "name": "price",
          "type": "uint256"
        }
      ],
      "name": "PriceUpdate",
      "type": "event"
    },
    {
      "anonymous": false,
      "inputs": [
        {
          "indexed": true,
          "internalType": "address",
          "name": "redeemer",
          "type": "address"
        }
      ],
      "name": "Redeem",
      "type": "event"
    },
    {
      "anonymous": false,
      "inputs": [
        {
          "indexed": true,
          "internalType": "bytes32",
          "name": "role",
          "type": "bytes32"
        },
        {
          "indexed": true,
          "internalType": "bytes32",
          "name": "previousAdminRole",
          "type": "bytes32"
        },
        {
          "indexed": true,
          "internalType": "bytes32",
          "name": "newAdminRole",
          "type": "bytes32"
        }
      ],
      "name": "RoleAdminChanged",
      "type": "event"
    },
    {
      "anonymous": false,
      "inputs": [
        {
          "indexed": true,
          "internalType": "bytes32",
          "name": "role",
          "type": "bytes32"
        },
        {
          "indexed": true,
          "internalType": "address",
          "name": "account",
          "type": "address"
        },
        {
          "indexed": true,
          "internalType": "address",
          "name": "sender",
          "type": "address"
        }
      ],
      "name": "RoleGranted",
      "type": "event"
    },
    {
      "anonymous": false,
      "inputs": [
        {
          "indexed": true,
          "internalType": "bytes32",
          "name": "role",
          "type": "bytes32"
        },
        {
          "indexed": true,
          "internalType": "address",
          "name": "account",
          "type": "address"
        },
        {
          "indexed": true,
          "internalType": "address",
          "name": "sender",
          "type": "address"
        }
      ],
      "name": "RoleRevoked",
      "type": "event"
    },
    {
      "anonymous": false,
      "inputs": [
        {
          "indexed": true,
          "internalType": "address",
          "name": "buyer",
          "type": "address"
        },
        {
          "indexed": false,
          "internalType": "uint256",
          "name": "price",
          "type": "uint256"
        }
      ],
      "name": "Start",
      "type": "event"
    },
    {
      "anonymous": false,
      "inputs": [
        {
          "indexed": true,
          "internalType": "address",
          "name": "from",
          "type": "address"
        },
        {
          "indexed": true,
          "internalType": "address",
          "name": "to",
          "type": "address"
        },
        {
          "indexed": false,
          "internalType": "uint256",
          "name": "value",
          "type": "uint256"
        }
      ],
      "name": "Transfer",
      "type": "event"
    },
    {
      "anonymous": false,
      "inputs": [
        {
          "indexed": false,
          "internalType": "address",
          "name": "account",
          "type": "address"
        }
      ],
      "name": "Unpaused",
      "type": "event"
    },
    {
      "anonymous": false,
      "inputs": [
        {
          "indexed": false,
          "internalType": "uint256",
          "name": "length",
          "type": "uint256"
        }
      ],
      "name": "UpdateAuctionLength",
      "type": "event"
    },
    {
      "anonymous": false,
      "inputs": [
        {
          "indexed": false,
          "internalType": "uint256",
          "name": "fee",
          "type": "uint256"
        }
      ],
      "name": "UpdateCuratorFee",
      "type": "event"
    },
    {
      "anonymous": false,
      "inputs": [
        {
          "indexed": true,
          "internalType": "address",
          "name": "buyer",
          "type": "address"
        },
        {
          "indexed": false,
          "internalType": "uint256",
          "name": "price",
          "type": "uint256"
        }
      ],
      "name": "Won",
      "type": "event"
    },
    {
      "inputs": [],
      "name": "DEFAULT_ADMIN_ROLE",
      "outputs": [
        {
          "internalType": "bytes32",
          "name": "",
          "type": "bytes32"
        }
      ],
      "stateMutability": "view",
      "type": "function"
    },
    {
      "inputs": [],
      "name": "SENDER_ROLE",
      "outputs": [
        {
          "internalType": "bytes32",
          "name": "",
          "type": "bytes32"
        }
      ],
      "stateMutability": "view",
      "type": "function"
    },
    {
      "inputs": [],
      "name": "SUPPORT_ROLE",
      "outputs": [
        {
          "internalType": "bytes32",
          "name": "",
          "type": "bytes32"
        }
      ],
      "stateMutability": "view",
      "type": "function"
    },
    {
      "inputs": [
        {
          "internalType": "address",
          "name": "sender",
          "type": "address"
        }
      ],
      "name": "addSender",
      "outputs": [],
      "stateMutability": "nonpayable",
      "type": "function"
    },
    {
      "inputs": [
        {
          "internalType": "address",
          "name": "owner",
          "type": "address"
        },
        {
          "internalType": "address",
          "name": "spender",
          "type": "address"
        }
      ],
      "name": "allowance",
      "outputs": [
        {
          "internalType": "uint256",
          "name": "",
          "type": "uint256"
        }
      ],
      "stateMutability": "view",
      "type": "function"
    },
    {
      "inputs": [
        {
          "internalType": "address",
          "name": "spender",
          "type": "address"
        },
        {
          "internalType": "uint256",
          "name": "amount",
          "type": "uint256"
        }
      ],
      "name": "approve",
      "outputs": [
        {
          "internalType": "bool",
          "name": "",
          "type": "bool"
        }
      ],
      "stateMutability": "nonpayable",
      "type": "function"
    },
    {
      "inputs": [],
      "name": "auctionEnd",
      "outputs": [
        {
          "internalType": "uint256",
          "name": "",
          "type": "uint256"
        }
      ],
      "stateMutability": "view",
      "type": "function"
    },
    {
      "inputs": [],
      "name": "auctionLength",
      "outputs": [
        {
          "internalType": "uint256",
          "name": "",
          "type": "uint256"
        }
      ],
      "stateMutability": "view",
      "type": "function"
    },
    {
      "inputs": [],
      "name": "auctionState",
      "outputs": [
        {
          "internalType": "enum TokenVault.State",
          "name": "",
          "type": "uint8"
        }
      ],
      "stateMutability": "view",
      "type": "function"
    },
    {
      "inputs": [
        {
          "internalType": "address",
          "name": "account",
          "type": "address"
        }
      ],
      "name": "balanceOf",
      "outputs": [
        {
          "internalType": "uint256",
          "name": "",
          "type": "uint256"
        }
      ],
      "stateMutability": "view",
      "type": "function"
    },
    {
      "inputs": [
        {
          "internalType": "uint256",
          "name": "_bid",
          "type": "uint256"
        }
      ],
      "name": "bid",
      "outputs": [],
      "stateMutability": "nonpayable",
      "type": "function"
    },
    {
      "inputs": [],
      "name": "cash",
      "outputs": [],
      "stateMutability": "nonpayable",
      "type": "function"
    },
    {
      "inputs": [],
      "name": "claimFees",
      "outputs": [],
      "stateMutability": "nonpayable",
      "type": "function"
    },
    {
      "inputs": [],
      "name": "curator",
      "outputs": [
        {
          "internalType": "address",
          "name": "",
          "type": "address"
        }
      ],
      "stateMutability": "view",
      "type": "function"
    },
    {
      "inputs": [],
      "name": "decimals",
      "outputs": [
        {
          "internalType": "uint8",
          "name": "",
          "type": "uint8"
        }
      ],
      "stateMutability": "pure",
      "type": "function"
    },
    {
      "inputs": [
        {
          "internalType": "address",
          "name": "spender",
          "type": "address"
        },
        {
          "internalType": "uint256",
          "name": "subtractedValue",
          "type": "uint256"
        }
      ],
      "name": "decreaseAllowance",
      "outputs": [
        {
          "internalType": "bool",
          "name": "",
          "type": "bool"
        }
      ],
      "stateMutability": "nonpayable",
      "type": "function"
    },
    {
      "inputs": [],
      "name": "end",
      "outputs": [],
      "stateMutability": "nonpayable",
      "type": "function"
    },
    {
      "inputs": [],
      "name": "fee",
      "outputs": [
        {
          "internalType": "uint256",
          "name": "",
          "type": "uint256"
        }
      ],
      "stateMutability": "view",
      "type": "function"
    },
    {
      "inputs": [
        {
          "internalType": "bytes32",
          "name": "role",
          "type": "bytes32"
        }
      ],
      "name": "getRoleAdmin",
      "outputs": [
        {
          "internalType": "bytes32",
          "name": "",
          "type": "bytes32"
        }
      ],
      "stateMutability": "view",
      "type": "function"
    },
    {
      "inputs": [
        {
          "internalType": "bytes32",
          "name": "role",
          "type": "bytes32"
        },
        {
          "internalType": "address",
          "name": "account",
          "type": "address"
        }
      ],
      "name": "grantRole",
      "outputs": [],
      "stateMutability": "nonpayable",
      "type": "function"
    },
    {
      "inputs": [
        {
          "internalType": "bytes32",
          "name": "role",
          "type": "bytes32"
        },
        {
          "internalType": "address",
          "name": "account",
          "type": "address"
        }
      ],
      "name": "hasRole",
      "outputs": [
        {
          "internalType": "bool",
          "name": "",
          "type": "bool"
        }
      ],
      "stateMutability": "view",
      "type": "function"
    },
    {
      "inputs": [],
      "name": "id",
      "outputs": [
        {
          "internalType": "uint256",
          "name": "",
          "type": "uint256"
        }
      ],
      "stateMutability": "view",
      "type": "function"
    },
    {
      "inputs": [
        {
          "internalType": "address",
          "name": "spender",
          "type": "address"
        },
        {
          "internalType": "uint256",
          "name": "addedValue",
          "type": "uint256"
        }
      ],
      "name": "increaseAllowance",
      "outputs": [
        {
          "internalType": "bool",
          "name": "",
          "type": "bool"
        }
      ],
      "stateMutability": "nonpayable",
      "type": "function"
    },
    {
      "inputs": [
        {
          "internalType": "address",
          "name": "_curator",
          "type": "address"
        },
        {
          "internalType": "address",
          "name": "_token",
          "type": "address"
        },
        {
          "internalType": "uint256",
          "name": "_id",
          "type": "uint256"
        },
        {
          "internalType": "uint256",
          "name": "_supply",
          "type": "uint256"
        },
        {
          "internalType": "uint256",
          "name": "_listPrice",
          "type": "uint256"
        },
        {
          "internalType": "uint256",
          "name": "_fee",
          "type": "uint256"
        },
        {
          "internalType": "string",
          "name": "_name",
          "type": "string"
        },
        {
          "internalType": "string",
          "name": "_symbol",
          "type": "string"
        },
        {
          "internalType": "address",
          "name": "_usdc",
          "type": "address"
        }
      ],
      "name": "initialize",
      "outputs": [],
      "stateMutability": "nonpayable",
      "type": "function"
    },
    {
      "inputs": [
        {
          "internalType": "address",
          "name": "_curator",
          "type": "address"
        }
      ],
      "name": "kickCurator",
      "outputs": [],
      "stateMutability": "nonpayable",
      "type": "function"
    },
    {
      "inputs": [],
      "name": "lastClaimed",
      "outputs": [
        {
          "internalType": "uint256",
          "name": "",
          "type": "uint256"
        }
      ],
      "stateMutability": "view",
      "type": "function"
    },
    {
      "inputs": [],
      "name": "livePrice",
      "outputs": [
        {
          "internalType": "uint256",
          "name": "",
          "type": "uint256"
        }
      ],
      "stateMutability": "view",
      "type": "function"
    },
    {
      "inputs": [],
      "name": "name",
      "outputs": [
        {
          "internalType": "string",
          "name": "",
          "type": "string"
        }
      ],
      "stateMutability": "view",
      "type": "function"
    },
    {
      "inputs": [
        {
          "internalType": "address",
          "name": "",
          "type": "address"
        },
        {
          "internalType": "address",
          "name": "",
          "type": "address"
        },
        {
          "internalType": "uint256",
          "name": "",
          "type": "uint256"
        },
        {
          "internalType": "bytes",
          "name": "",
          "type": "bytes"
        }
      ],
      "name": "onERC721Received",
      "outputs": [
        {
          "internalType": "bytes4",
          "name": "",
          "type": "bytes4"
        }
      ],
      "stateMutability": "nonpayable",
      "type": "function"
    },
    {
      "inputs": [],
      "name": "ownerAddress",
      "outputs": [
        {
          "internalType": "address",
          "name": "",
          "type": "address"
        }
      ],
      "stateMutability": "view",
      "type": "function"
    },
    {
      "inputs": [],
      "name": "pause",
      "outputs": [],
      "stateMutability": "nonpayable",
      "type": "function"
    },
    {
      "inputs": [],
      "name": "paused",
      "outputs": [
        {
          "internalType": "bool",
          "name": "",
          "type": "bool"
        }
      ],
      "stateMutability": "view",
      "type": "function"
    },
    {
      "inputs": [],
      "name": "redeem",
      "outputs": [],
      "stateMutability": "nonpayable",
      "type": "function"
    },
    {
      "inputs": [
        {
          "internalType": "address",
          "name": "_user",
          "type": "address"
        }
      ],
      "name": "removeReserve",
      "outputs": [],
      "stateMutability": "nonpayable",
      "type": "function"
    },
    {
      "inputs": [
        {
          "internalType": "address",
          "name": "sender",
          "type": "address"
        }
      ],
      "name": "removeSender",
      "outputs": [],
      "stateMutability": "nonpayable",
      "type": "function"
    },
    {
      "inputs": [
        {
          "internalType": "bytes32",
          "name": "role",
          "type": "bytes32"
        },
        {
          "internalType": "address",
          "name": "account",
          "type": "address"
        }
      ],
      "name": "renounceRole",
      "outputs": [],
      "stateMutability": "nonpayable",
      "type": "function"
    },
    {
      "inputs": [],
      "name": "renounceSupport",
      "outputs": [],
      "stateMutability": "nonpayable",
      "type": "function"
    },
    {
      "inputs": [],
      "name": "reservePrice",
      "outputs": [
        {
          "internalType": "uint256",
          "name": "",
          "type": "uint256"
        }
      ],
      "stateMutability": "view",
      "type": "function"
    },
    {
      "inputs": [],
      "name": "reserveTotal",
      "outputs": [
        {
          "internalType": "uint256",
          "name": "",
          "type": "uint256"
        }
      ],
      "stateMutability": "view",
      "type": "function"
    },
    {
      "inputs": [
        {
          "internalType": "bytes32",
          "name": "role",
          "type": "bytes32"
        },
        {
          "internalType": "address",
          "name": "account",
          "type": "address"
        }
      ],
      "name": "revokeRole",
      "outputs": [],
      "stateMutability": "nonpayable",
      "type": "function"
    },
    {
      "inputs": [],
      "name": "settings",
      "outputs": [
        {
          "internalType": "address",
          "name": "",
          "type": "address"
        }
      ],
      "stateMutability": "view",
      "type": "function"
    },
    {
      "inputs": [
        {
          "internalType": "uint256",
          "name": "_bid",
          "type": "uint256"
        }
      ],
      "name": "start",
      "outputs": [],
      "stateMutability": "nonpayable",
      "type": "function"
    },
    {
      "inputs": [
        {
          "internalType": "bytes4",
          "name": "interfaceId",
          "type": "bytes4"
        }
      ],
      "name": "supportsInterface",
      "outputs": [
        {
          "internalType": "bool",
          "name": "",
          "type": "bool"
        }
      ],
      "stateMutability": "view",
      "type": "function"
    },
    {
      "inputs": [],
      "name": "symbol",
      "outputs": [
        {
          "internalType": "string",
          "name": "",
          "type": "string"
        }
      ],
      "stateMutability": "view",
      "type": "function"
    },
    {
      "inputs": [],
      "name": "toggleAuctions",
      "outputs": [],
      "stateMutability": "nonpayable",
      "type": "function"
    },
    {
      "inputs": [],
      "name": "token",
      "outputs": [
        {
          "internalType": "address",
          "name": "",
          "type": "address"
        }
      ],
      "stateMutability": "view",
      "type": "function"
    },
    {
      "inputs": [],
      "name": "totalSupply",
      "outputs": [
        {
          "internalType": "uint256",
          "name": "",
          "type": "uint256"
        }
      ],
      "stateMutability": "view",
      "type": "function"
    },
    {
      "inputs": [
        {
          "internalType": "address",
          "name": "to",
          "type": "address"
        },
        {
          "internalType": "uint256",
          "name": "amount",
          "type": "uint256"
        }
      ],
      "name": "transfer",
      "outputs": [
        {
          "internalType": "bool",
          "name": "",
          "type": "bool"
        }
      ],
      "stateMutability": "nonpayable",
      "type": "function"
    },
    {
      "inputs": [
        {
          "internalType": "address",
          "name": "from",
          "type": "address"
        },
        {
          "internalType": "address",
          "name": "to",
          "type": "address"
        },
        {
          "internalType": "uint256",
          "name": "amount",
          "type": "uint256"
        }
      ],
      "name": "transferFrom",
      "outputs": [
        {
          "internalType": "bool",
          "name": "",
          "type": "bool"
        }
      ],
      "stateMutability": "nonpayable",
      "type": "function"
    },
    {
      "inputs": [],
      "name": "unpause",
      "outputs": [],
      "stateMutability": "nonpayable",
      "type": "function"
    },
    {
      "inputs": [
        {
          "internalType": "uint256",
          "name": "_length",
          "type": "uint256"
        }
      ],
      "name": "updateAuctionLength",
      "outputs": [],
      "stateMutability": "nonpayable",
      "type": "function"
    },
    {
      "inputs": [
        {
          "internalType": "address",
          "name": "_curator",
          "type": "address"
        }
      ],
      "name": "updateCurator",
      "outputs": [],
      "stateMutability": "nonpayable",
      "type": "function"
    },
    {
      "inputs": [
        {
          "internalType": "uint256",
          "name": "_fee",
          "type": "uint256"
        }
      ],
      "name": "updateFee",
      "outputs": [],
      "stateMutability": "nonpayable",
      "type": "function"
    },
    {
      "inputs": [
        {
          "internalType": "uint256",
          "name": "_new",
          "type": "uint256"
        }
      ],
      "name": "updateUserPrice",
      "outputs": [],
      "stateMutability": "nonpayable",
      "type": "function"
    },
    {
      "inputs": [],
      "name": "usdc",
      "outputs": [
        {
          "internalType": "address",
          "name": "",
          "type": "address"
        }
      ],
      "stateMutability": "view",
      "type": "function"
    },
    {
      "inputs": [
        {
          "internalType": "address",
          "name": "",
          "type": "address"
        }
      ],
      "name": "userPrices",
      "outputs": [
        {
          "internalType": "uint256",
          "name": "",
          "type": "uint256"
        }
      ],
      "stateMutability": "view",
      "type": "function"
    },
    {
      "inputs": [],
      "name": "vaultClosed",
      "outputs": [
        {
          "internalType": "bool",
          "name": "",
          "type": "bool"
        }
      ],
      "stateMutability": "view",
      "type": "function"
    },
    {
      "inputs": [],
      "name": "votingTokens",
      "outputs": [
        {
          "internalType": "uint256",
          "name": "",
          "type": "uint256"
        }
      ],
      "stateMutability": "view",
      "type": "function"
    },
    {
      "inputs": [],
      "name": "winning",
      "outputs": [
        {
          "internalType": "address",
          "name": "",
          "type": "address"
        }
      ],
      "stateMutability": "view",
      "type": "function"
    }
  ],
  "bytecode": "0x60a06040523480156200001157600080fd5b50604051620047003803806200470083398101604081905262000034916200004a565b60601b6001600160601b0319166080526200007a565b6000602082840312156200005c578081fd5b81516001600160a01b038116811462000073578182fd5b9392505050565b60805160601c6145fe620001026000396000818161081801528181610a1b01528181610b5c01528181610bf901528181610ec1015281816111bf015281816114fa015281816115f8015281816117b3015281816118b101528181611a3001528181611d8801528181611fa3015281816126aa0152818161321e01526132b501526145fe6000f3fe608060405234801561001057600080fd5b50600436106103995760003560e01c8063853a1b90116101e9578063b697f5311161010f578063db2e1eed116100ad578063e06174e41161007c578063e06174e414610813578063e66f53b71461083a578063efbe1c1c1461084e578063fc0c546a1461085657600080fd5b8063db2e1eed146107c0578063dd62ed3e146107c8578063ddca3f4314610801578063df01441a1461080b57600080fd5b8063c91de649116100e9578063c91de64914610771578063ca8aa74214610792578063d294f093146107a5578063d547741f146107ad57600080fd5b8063b697f5311461072f578063be040fb014610742578063c42ef38c1461074a57600080fd5b8063961be39111610187578063a9059cbb11610156578063a9059cbb146106f5578063adc1b95614610708578063af640d0f14610712578063b2f876431461071c57600080fd5b8063961be391146106c85780639a4e6d34146106d0578063a217fddf146106da578063a457c2d7146106e257600080fd5b806391d14854116101c357806391d148541461064d57806394b059ab1461068657806395805dad146106ad57806395d89b41146106c057600080fd5b8063853a1b90146106125780638f84aa09146106265780639012c4a81461063a57600080fd5b806336568abe116102ce5780635c9920fc1161026c5780637b5581ed1161023b5780637b5581ed146105cb5780637fb45099146105d557806380436fe0146105f75780638456cb591461060a57600080fd5b80635c9920fc146105775780636a775714146105855780636da84e6c1461059857806370a08231146105a257600080fd5b80633f4ba83a116102a85780633f4ba83a14610549578063454a2ab31461055157806352c6020f146105645780635c975abb1461056c57600080fd5b806336568abe146104f7578063395093511461050a5780633e413bee1461051d57600080fd5b8063248a9ca31161033b5780632bf33bd9116103155780632bf33bd9146104b85780632f2ff15d146104cb578063313ce567146104de578063325c25a2146104ed57600080fd5b8063248a9ca3146104785780632a24f46c1461049b5780632a44f120146104a557600080fd5b80630c6a62dd116103775780630c6a62dd146103ee578063150b7a021461040357806318160ddd1461045357806323b872dd1461046557600080fd5b806301ffc9a71461039e57806306fdde03146103c6578063095ea7b3146103db575b600080fd5b6103b16103ac36600461437f565b61086a565b60405190151581526020015b60405180910390f35b6103ce6108d3565b6040516103bd9190614468565b6103b16103e93660046142f8565b610965565b6104016103fc36600461410d565b61097d565b005b61043a6104113660046141bd565b7f150b7a0200000000000000000000000000000000000000000000000000000000949350505050565b6040516001600160e01b031990911681526020016103bd565b6035545b6040519081526020016103bd565b6103b161047336600461417d565b6109f5565b610457610486366004614343565b600090815260fb602052604090206001015490565b6104576101315481565b6104016104b336600461410d565b610a19565b6104016104c6366004614343565b610b0a565b6104016104d936600461435b565b610d17565b604051600681526020016103bd565b6104576101325481565b61040161050536600461435b565b610d41565b6103b16105183660046142f8565b610dcd565b61012e54610531906001600160a01b031681565b6040516001600160a01b0390911681526020016103bd565b610401610e0c565b61040161055f366004614343565b610e41565b6104016111bd565b60975460ff166103b1565b610139546103b19060ff1681565b610401610593366004614343565b6113c1565b6104576101345481565b6104576105b036600461410d565b6001600160a01b031660009081526033602052604090205490565b6104576101335481565b610135546105ea90600160a01b900460ff1681565b6040516103bd9190614440565b61040161060536600461410d565b611a2e565b610401611cb2565b61013554610531906001600160a01b031681565b61012d54610531906001600160a01b031681565b610401610648366004614343565b611ce4565b6103b161065b36600461435b565b600091825260fb602090815260408084206001600160a01b0393909316845291905290205460ff1690565b6104577fe1bb029b7f4f8898e3ea44ceab083b5d93b14e8dd01ea4b170b110de8472fe6481565b6104016106bb366004614343565b611ecb565b6103ce6121b3565b6104016121c2565b61045761013a5481565b610457600081565b6103b16106f03660046142f8565b612413565b6103b16107033660046142f8565b6124bd565b6104576101385481565b6104576101305481565b61040161072a36600461410d565b6124cb565b61040161073d36600461410d565b6124f5565b61040161251f565b6104577f76d12de99ad2ca162840505be9b657c2e7a650cc3ee0284048f3f9def3c1adf281565b61045761077f36600461410d565b61013b6020526000908152604090205481565b6104016107a036600461423a565b61266f565b610401612814565b6104016107bb36600461435b565b61281c565b610457612841565b6104576107d6366004614145565b6001600160a01b03918216600090815260346020908152604080832093909416825291909152205490565b6104576101375481565b61040161286b565b6105317f000000000000000000000000000000000000000000000000000000000000000081565b61013654610531906001600160a01b031681565b610401612895565b61012f54610531906001600160a01b031681565b60006001600160e01b031982167f7965db0b0000000000000000000000000000000000000000000000000000000014806108cd57507f01ffc9a7000000000000000000000000000000000000000000000000000000006001600160e01b03198316145b92915050565b6060603680546108e29061454c565b80601f016020809104026020016040519081016040528092919081815260200182805461090e9061454c565b801561095b5780601f106109305761010080835404028352916020019161095b565b820191906000526020600020905b81548152906001019060200180831161093e57829003601f168201915b5050505050905090565b600033610973818585612a4d565b5060019392505050565b610136546001600160a01b031633146109d25760405162461bcd60e51b81526020600482015260126024820152713ab83230ba329d3737ba1031bab930ba37b960711b60448201526064015b60405180910390fd5b61013680546001600160a01b0319166001600160a01b0392909216919091179055565b600033610a03858285612ba5565b610a0e858585612c37565b506001949350505050565b7f00000000000000000000000000000000000000000000000000000000000000006001600160a01b0316638da5cb5b6040518163ffffffff1660e01b815260040160206040518083038186803b158015610a7257600080fd5b505afa158015610a86573d6000803e3d6000fd5b505050506040513d601f19601f82011682018060405250810190610aaa9190614129565b6001600160a01b0316336001600160a01b0316146109d25760405162461bcd60e51b815260206004820152600c60248201527f6b69636b3a6e6f7420676f76000000000000000000000000000000000000000060448201526064016109c9565b610136546001600160a01b03163314610b5a5760405162461bcd60e51b81526020600482015260126024820152713ab83230ba329d3737ba1031bab930ba37b960711b60448201526064016109c9565b7f00000000000000000000000000000000000000000000000000000000000000006001600160a01b031663a0b335e36040518163ffffffff1660e01b8152600401602060405180830381600087803b158015610bb557600080fd5b505af1158015610bc9573d6000803e3d6000fd5b505050506040513d601f19601f82011682018060405250810190610bed91906143a7565b8110158015610c8e57507f00000000000000000000000000000000000000000000000000000000000000006001600160a01b0316630e519ef96040518163ffffffff1660e01b8152600401602060405180830381600087803b158015610c5257600080fd5b505af1158015610c66573d6000803e3d6000fd5b505050506040513d601f19601f82011682018060405250810190610c8a91906143a7565b8111155b610cda5760405162461bcd60e51b815260206004820152601d60248201527f7570646174653a696e76616c69642061756374696f6e206c656e67746800000060448201526064016109c9565b6101328190556040518181527f4ab86ae701798277aa378943b9dfd155d3b19703cd57be298908fadd32f7bf46906020015b60405180910390a150565b600082815260fb6020526040902060010154610d3281612e59565b610d3c8383612e63565b505050565b6001600160a01b0381163314610dbf5760405162461bcd60e51b815260206004820152602f60248201527f416363657373436f6e74726f6c3a2063616e206f6e6c792072656e6f756e636560448201527f20726f6c657320666f722073656c66000000000000000000000000000000000060648201526084016109c9565b610dc98282612f05565b5050565b3360008181526034602090815260408083206001600160a01b03871684529091528120549091906109739082908690610e0790879061449b565b612a4d565b7fe1bb029b7f4f8898e3ea44ceab083b5d93b14e8dd01ea4b170b110de8472fe64610e3681612e59565b610e3e612f88565b50565b600261013554600160a01b900460ff166004811115610e7057634e487b7160e01b600052602160045260246000fd5b14610ebd5760405162461bcd60e51b815260206004820152601760248201527f6269643a61756374696f6e206973206e6f74206c69766500000000000000000060448201526064016109c9565b60007f00000000000000000000000000000000000000000000000000000000000000006001600160a01b0316637c513c0f6040518163ffffffff1660e01b8152600401602060405180830381600087803b158015610f1a57600080fd5b505af1158015610f2e573d6000803e3d6000fd5b505050506040513d601f19601f82011682018060405250810190610f5291906143a7565b610f5e906103e861449b565b90508061013454610f6f91906144d3565b610f7b836103e86144d3565b1015610fc95760405162461bcd60e51b815260206004820152600f60248201527f6269643a746f6f206c6f7720626964000000000000000000000000000000000060448201526064016109c9565b61013154421061101b5760405162461bcd60e51b815260206004820152601160248201527f6269643a61756374696f6e20656e64656400000000000000000000000000000060448201526064016109c9565b610384426101315461102d91906144f2565b1161104d576103846101316000828254611047919061449b565b90915550505b61012e54610135546101345460405163a9059cbb60e01b81526001600160a01b039283166004820152602481019190915291169063a9059cbb90604401602060405180830381600087803b1580156110a457600080fd5b505af11580156110b8573d6000803e3d6000fd5b505050506040513d601f19601f820116820180604052508101906110dc9190614323565b5061012e546040516323b872dd60e01b8152336004820152306024820152604481018490526001600160a01b03909116906323b872dd90606401602060405180830381600087803b15801561113057600080fd5b505af1158015611144573d6000803e3d6000fd5b505050506040513d601f19601f820116820180604052508101906111689190614323565b5061013482905561013580546001600160a01b031916339081179091556040518381527fe684a55f31b79eca403df938249029212a5925ec6be8012e099b45bc1019e5d2906020015b60405180910390a25050565b7f00000000000000000000000000000000000000000000000000000000000000006001600160a01b0316638da5cb5b6040518163ffffffff1660e01b815260040160206040518083038186803b15801561121657600080fd5b505afa15801561122a573d6000803e3d6000fd5b505050506040513d601f19601f8201168201806040525081019061124e9190614129565b6001600160a01b0316336001600160a01b0316146112ae5760405162461bcd60e51b815260206004820152600e60248201527f746f67676c653a6e6f7420676f7600000000000000000000000000000000000060448201526064016109c9565b600061013554600160a01b900460ff1660048111156112dd57634e487b7160e01b600052602160045260246000fd5b14156113015761013580546001919060ff60a01b1916600160a01b835b0217905550565b600161013554600160a01b900460ff16600481111561133057634e487b7160e01b600052602160045260246000fd5b14156113515761013580546000919060ff60a01b1916600160a01b836112fa565b60405162461bcd60e51b815260206004820152603c60248201527f746f67676c653a63616e206f6e6c7920746f67676c652061756374696f6e206260448201527f65747765656e20696e61637469766520616e642064697361626c65640000000060648201526084016109c9565b565b6113c9613024565b156114265760405162461bcd60e51b815260206004820152602760248201527f7570646174653a61756374696f6e206c6976652063616e6e6f742075706461746044820152666520707269636560c81b60648201526084016109c9565b33600090815261013b6020526040902054818114156114875760405162461bcd60e51b815260206004820152601460248201527f7570646174653a6e6f7420616e2075706461746500000000000000000000000060448201526064016109c9565b3360009081526033602052604090205461013a546114b85761013a8190556114af83826144d3565b610133556119dc565b61013a54811480156114c957508115155b156114d8576114af83826144d3565b8161173257600061013a54610133546114f191906144b3565b905060006103e87f00000000000000000000000000000000000000000000000000000000000000006001600160a01b03166309990a966040518163ffffffff1660e01b8152600401602060405180830381600087803b15801561155357600080fd5b505af1158015611567573d6000803e3d6000fd5b505050506040513d601f19601f8201168201806040525081019061158b91906143a7565b61159590846144d3565b61159f91906144b3565b9050808510156115f15760405162461bcd60e51b815260206004820152601c60248201527f7570646174653a7265736572766520707269636520746f6f206c6f770000000060448201526064016109c9565b60006103e87f00000000000000000000000000000000000000000000000000000000000000006001600160a01b0316635410bfc96040518163ffffffff1660e01b8152600401602060405180830381600087803b15801561165157600080fd5b505af1158015611665573d6000803e3d6000fd5b505050506040513d601f19601f8201168201806040525081019061168991906143a7565b61169390856144d3565b61169d91906144b3565b9050808611156116ef5760405162461bcd60e51b815260206004820152601d60248201527f7570646174653a7265736572766520707269636520746f6f206869676800000060448201526064016109c9565b8361013a6000828254611702919061449b565b90915550611712905086856144d3565b6101336000828254611724919061449b565b909155506119dc9350505050565b82611777578061013a600082825461174a91906144f2565b9091555061175a905082826144d3565b610133600082825461176c91906144f2565b909155506119dc9050565b60008161013a5461178891906144f2565b61179283856144d3565b610133546117a091906144f2565b6117aa91906144b3565b905060006103e87f00000000000000000000000000000000000000000000000000000000000000006001600160a01b03166309990a966040518163ffffffff1660e01b8152600401602060405180830381600087803b15801561180c57600080fd5b505af1158015611820573d6000803e3d6000fd5b505050506040513d601f19601f8201168201806040525081019061184491906143a7565b61184e90846144d3565b61185891906144b3565b9050808510156118aa5760405162461bcd60e51b815260206004820152601c60248201527f7570646174653a7265736572766520707269636520746f6f206c6f770000000060448201526064016109c9565b60006103e87f00000000000000000000000000000000000000000000000000000000000000006001600160a01b0316635410bfc96040518163ffffffff1660e01b8152600401602060405180830381600087803b15801561190a57600080fd5b505af115801561191e573d6000803e3d6000fd5b505050506040513d601f19601f8201168201806040525081019061194291906143a7565b61194c90856144d3565b61195691906144b3565b9050808611156119a85760405162461bcd60e51b815260206004820152601d60248201527f7570646174653a7265736572766520707269636520746f6f206869676800000060448201526064016109c9565b6119b285856144d3565b6119bc87866144d3565b610133546119ca919061449b565b6119d491906144f2565b610133555050505b33600081815261013b602052604090819020859055517f64e6e7bd72b853c4e62fd6ceaca05a104700c70a4cb567c75c7f2242ba7f037c90611a219086815260200190565b60405180910390a2505050565b7f00000000000000000000000000000000000000000000000000000000000000006001600160a01b0316638da5cb5b6040518163ffffffff1660e01b815260040160206040518083038186803b158015611a8757600080fd5b505afa158015611a9b573d6000803e3d6000fd5b505050506040513d601f19601f82011682018060405250810190611abf9190614129565b6001600160a01b0316336001600160a01b031614611b1f5760405162461bcd60e51b815260206004820152600e60248201527f72656d6f76653a6e6f7420676f7600000000000000000000000000000000000060448201526064016109c9565b600161013554600160a01b900460ff166004811115611b4e57634e487b7160e01b600052602160045260246000fd5b14611bab5760405162461bcd60e51b815260206004820152602760248201527f7570646174653a61756374696f6e206c6976652063616e6e6f742075706461746044820152666520707269636560c81b60648201526084016109c9565b6001600160a01b038116600090815261013b602052604090205480611c125760405162461bcd60e51b815260206004820152601460248201527f7570646174653a6e6f7420616e2075706461746500000000000000000000000060448201526064016109c9565b6001600160a01b03821660009081526033602052604081205490508061013a6000828254611c4091906144f2565b90915550611c50905082826144d3565b6101336000828254611c6291906144f2565b90915550506001600160a01b038316600081815261013b60209081526040808320839055519182527f64e6e7bd72b853c4e62fd6ceaca05a104700c70a4cb567c75c7f2242ba7f037c9101611a21565b7fe1bb029b7f4f8898e3ea44ceab083b5d93b14e8dd01ea4b170b110de8472fe64611cdc81612e59565b610e3e613094565b610136546001600160a01b03163314611d345760405162461bcd60e51b81526020600482015260126024820152713ab83230ba329d3737ba1031bab930ba37b960711b60448201526064016109c9565b610137548110611d865760405162461bcd60e51b815260206004820152601260248201527f7570646174653a63616e2774207261697365000000000000000000000000000060448201526064016109c9565b7f00000000000000000000000000000000000000000000000000000000000000006001600160a01b0316638a364bc16040518163ffffffff1660e01b8152600401602060405180830381600087803b158015611de157600080fd5b505af1158015611df5573d6000803e3d6000fd5b505050506040513d601f19601f82011682018060405250810190611e1991906143a7565b811115611e8d5760405162461bcd60e51b8152602060048201526024808201527f7570646174653a63616e6e6f7420696e6372656173652066656520746869732060448201527f686967680000000000000000000000000000000000000000000000000000000060648201526084016109c9565b611e9561311c565b6101378190556040518181527f2d1dae59a9e9ec0bc2ab19d45b7d10c8c55304fa08b40a7998e9f67f03223d0490602001610d0c565b600161013554600160a01b900460ff166004811115611efa57634e487b7160e01b600052602160045260246000fd5b14611f475760405162461bcd60e51b815260206004820152601760248201527f73746172743a6e6f2061756374696f6e2073746172747300000000000000000060448201526064016109c9565b611f4f612841565b811015611f9e5760405162461bcd60e51b815260206004820152601160248201527f73746172743a746f6f206c6f772062696400000000000000000000000000000060448201526064016109c9565b6035547f00000000000000000000000000000000000000000000000000000000000000006001600160a01b03166332977c736040518163ffffffff1660e01b8152600401602060405180830381600087803b158015611ffc57600080fd5b505af1158015612010573d6000803e3d6000fd5b505050506040513d601f19601f8201168201806040525081019061203491906143a7565b61203e91906144d3565b61013a5461204e906103e86144d3565b101561209c5760405162461bcd60e51b815260206004820152601760248201527f73746172743a6e6f7420656e6f75676820766f7465727300000000000000000060448201526064016109c9565b610132546120aa904261449b565b6101315561013580547402000000000000000000000000000000000000000060ff60a01b1990911617905561012e546040516323b872dd60e01b8152336004820152306024820152604481018390526001600160a01b03909116906323b872dd90606401602060405180830381600087803b15801561212857600080fd5b505af115801561213c573d6000803e3d6000fd5b505050506040513d601f19601f820116820180604052508101906121609190614323565b5061013481905561013580546001600160a01b031916339081179091556040518281527fcfb9c5312b25ec7b809d61e638df25f749eae5d5c25399e1c93d1d319bfd58219060200160405180910390a250565b6060603780546108e29061454c565b600361013554600160a01b900460ff1660048111156121f157634e487b7160e01b600052602160045260246000fd5b1461223e5760405162461bcd60e51b815260206004820152601960248201527f636173683a7661756c74206e6f7420636c6f736564207965740000000000000060448201526064016109c9565b336000908152603360205260409020548061229b5760405162461bcd60e51b815260206004820152601a60248201527f636173683a6e6f20746f6b656e7320746f2063617368206f757400000000000060448201526064016109c9565b60006122a660355490565b61012e546040517f70a082310000000000000000000000000000000000000000000000000000000081523060048201526001600160a01b03909116906370a082319060240160206040518083038186803b15801561230357600080fd5b505afa158015612317573d6000803e3d6000fd5b505050506040513d601f19601f8201168201806040525081019061233b91906143a7565b61234590846144d3565b61234f91906144b3565b905061235b3383613441565b61012e5460405163a9059cbb60e01b8152336004820152602481018390526001600160a01b039091169063a9059cbb90604401602060405180830381600087803b1580156123a857600080fd5b505af11580156123bc573d6000803e3d6000fd5b505050506040513d601f19601f820116820180604052508101906123e09190614323565b5060405181815233907f730831a1e4aa2d187ddd8e03d7beeac760a3927da5f112d645e0f8df7494b367906020016111b1565b3360008181526034602090815260408083206001600160a01b0387168452909152812054909190838110156124b05760405162461bcd60e51b815260206004820152602560248201527f45524332303a2064656372656173656420616c6c6f77616e63652062656c6f7760448201527f207a65726f00000000000000000000000000000000000000000000000000000060648201526084016109c9565b610a0e8286868403612a4d565b600033610973818585612c37565b610e3e7f76d12de99ad2ca162840505be9b657c2e7a650cc3ee0284048f3f9def3c1adf28261281c565b610e3e7f76d12de99ad2ca162840505be9b657c2e7a650cc3ee0284048f3f9def3c1adf282610d17565b600161013554600160a01b900460ff16600481111561254e57634e487b7160e01b600052602160045260246000fd5b1461259b5760405162461bcd60e51b815260206004820152601360248201527f72656465656d3a6e6f2072656465656d696e670000000000000000000000000060448201526064016109c9565b6125ad336125a860355490565b613441565b61012f54610130546040516323b872dd60e01b815230600482015233602482015260448101919091526001600160a01b03909116906323b872dd90606401600060405180830381600087803b15801561260557600080fd5b505af1158015612619573d6000803e3d6000fd5b5050610135805460ff60a01b191674040000000000000000000000000000000000000000179055505060405133907fd1b5ea7fe0f1c2fa09d49c2aa9b2200664ba57a734f1d95481d95b7f99af991c90600090a2565b600061267b60016135d2565b90508015612693576000805461ff0019166101001790555b61269d848461370b565b6126a5613780565b61273e7f00000000000000000000000000000000000000000000000000000000000000006001600160a01b0316638da5cb5b6040518163ffffffff1660e01b815260040160206040518083038186803b15801561270157600080fd5b505afa158015612715573d6000803e3d6000fd5b505050506040513d601f19601f820116820180604052508101906127399190614129565b6137eb565b61012f80546001600160a01b038b81166001600160a01b0319928316179092556101308a90556203f4806101325561013680548d841690831681179091556101378890554261013855610135805460ff60a01b19169055600090815261013b6020526040902088905561012e80549091169184169190911790556127c28a886138fa565b8015612808576000805461ff0019169055604051600181527f7f26b83ff96e1f2b6a682f133852f6798a09c465da95921460cefb38474024989060200160405180910390a15b50505050505050505050565b6113bf61311c565b600082815260fb602052604090206001015461283781612e59565b610d3c8383612f05565b600061013a546000146128655761013a546101335461286091906144b3565b905090565b50600090565b6113bf7fe1bb029b7f4f8898e3ea44ceab083b5d93b14e8dd01ea4b170b110de8472fe6433610d41565b600261013554600160a01b900460ff1660048111156128c457634e487b7160e01b600052602160045260246000fd5b146129115760405162461bcd60e51b815260206004820152601c60248201527f656e643a7661756c742068617320616c726561647920636c6f7365640000000060448201526064016109c9565b610131544210156129645760405162461bcd60e51b815260206004820152601060248201527f656e643a61756374696f6e206c6976650000000000000000000000000000000060448201526064016109c9565b61296c61311c565b61012f5461013554610130546040516323b872dd60e01b81523060048201526001600160a01b03928316602482015260448101919091529116906323b872dd90606401600060405180830381600087803b1580156129c957600080fd5b505af11580156129dd573d6000803e3d6000fd5b505061013580547403000000000000000000000000000000000000000060ff60a01b19821617909155610134546040519081526001600160a01b0390911692507f8b01f9dd0400d6a1e84369a5fb8f6033934856ffa8ebadd707dca302ab551695915060200160405180910390a2565b6001600160a01b038316612ac85760405162461bcd60e51b8152602060048201526024808201527f45524332303a20617070726f76652066726f6d20746865207a65726f2061646460448201527f726573730000000000000000000000000000000000000000000000000000000060648201526084016109c9565b6001600160a01b038216612b445760405162461bcd60e51b815260206004820152602260248201527f45524332303a20617070726f766520746f20746865207a65726f20616464726560448201527f737300000000000000000000000000000000000000000000000000000000000060648201526084016109c9565b6001600160a01b0383811660008181526034602090815260408083209487168084529482529182902085905590518481527f8c5be1e5ebec7d5bd14f71427d1e84f3dd0314c0f7b2291e5b200ac8c7c3b925910160405180910390a3505050565b6001600160a01b038381166000908152603460209081526040808320938616835292905220546000198114612c315781811015612c245760405162461bcd60e51b815260206004820152601d60248201527f45524332303a20696e73756666696369656e7420616c6c6f77616e636500000060448201526064016109c9565b612c318484848403612a4d565b50505050565b6001600160a01b038316612cb35760405162461bcd60e51b815260206004820152602560248201527f45524332303a207472616e736665722066726f6d20746865207a65726f20616460448201527f647265737300000000000000000000000000000000000000000000000000000060648201526084016109c9565b6001600160a01b038216612d2f5760405162461bcd60e51b815260206004820152602360248201527f45524332303a207472616e7366657220746f20746865207a65726f206164647260448201527f657373000000000000000000000000000000000000000000000000000000000060648201526084016109c9565b612d3a8383836139e5565b6001600160a01b03831660009081526033602052604090205481811015612dc95760405162461bcd60e51b815260206004820152602660248201527f45524332303a207472616e7366657220616d6f756e742065786365656473206260448201527f616c616e6365000000000000000000000000000000000000000000000000000060648201526084016109c9565b6001600160a01b03808516600090815260336020526040808220858503905591851681529081208054849290612e0090849061449b565b92505081905550826001600160a01b0316846001600160a01b03167fddf252ad1be2c89b69c2b068fc378daa952ba7f163c4a11628f55a4df523b3ef84604051612e4c91815260200190565b60405180910390a3612c31565b610e3e8133613b5f565b600082815260fb602090815260408083206001600160a01b038516845290915290205460ff16610dc957600082815260fb602090815260408083206001600160a01b03851684529091529020805460ff19166001179055612ec13390565b6001600160a01b0316816001600160a01b0316837f2f8788117e7eff1d82e926ec794901d17c78024a50270940304540a733656f0d60405160405180910390a45050565b600082815260fb602090815260408083206001600160a01b038516845290915290205460ff1615610dc957600082815260fb602090815260408083206001600160a01b0385168085529252808320805460ff1916905551339285917ff6391f5c32d9c69d2a47ea670b442974b53935d1edc7fd64eb21e047a839171b9190a45050565b60975460ff16612fda5760405162461bcd60e51b815260206004820152601460248201527f5061757361626c653a206e6f742070617573656400000000000000000000000060448201526064016109c9565b6097805460ff191690557f5db9ee0a495bf2e6ff9c91a7834c1ba4fdd244a5e8aa4e537bd38aeae4b073aa335b6040516001600160a01b03909116815260200160405180910390a1565b6000600161013554600160a01b900460ff16600481111561305557634e487b7160e01b600052602160045260246000fd5b141580156128605750600061013554600160a01b900460ff16600481111561308d57634e487b7160e01b600052602160045260246000fd5b1415905090565b60975460ff16156130e75760405162461bcd60e51b815260206004820152601060248201527f5061757361626c653a207061757365640000000000000000000000000000000060448201526064016109c9565b6097805460ff191660011790557f62e78cea01bee320cd4e420270b5ea74000d11b0c9f74754ebdbfc544b05a2586130073390565b600361013554600160a01b900460ff16600481111561314b57634e487b7160e01b600052602160045260246000fd5b14156131bf5760405162461bcd60e51b815260206004820152602560248201527f636c61696d3a63616e6e6f7420636c61696d2061667465722061756374696f6e60448201527f20656e647300000000000000000000000000000000000000000000000000000060648201526084016109c9565b60006103e86131cd60355490565b610137546131db91906144d3565b6131e591906144b3565b905060006131f76301e13380836144b3565b90506000610138544261320a91906144f2565b9050600061321883836144d3565b905060007f00000000000000000000000000000000000000000000000000000000000000006001600160a01b031663b3f006746040518163ffffffff1660e01b8152600401602060405180830381600087803b15801561327757600080fd5b505af115801561328b573d6000803e3d6000fd5b505050506040513d601f19601f820116820180604052508101906132af9190614129565b905060007f00000000000000000000000000000000000000000000000000000000000000006001600160a01b0316630ea90a126040518163ffffffff1660e01b8152600401602060405180830381600087803b15801561330e57600080fd5b505af1158015613322573d6000803e3d6000fd5b505050506040513d601f19601f8201168201806040525081019061334691906143a7565b90506103e861335460355490565b61335e90836144d3565b61336891906144b3565b95506133786301e13380876144b3565b9450600061338686866144d3565b4261013855610136549091506001600160a01b0316156133eb57610136546133b7906001600160a01b0316856138fa565b6040518481527f62b10e3ff3d45b5ff546e740b893897facb1680285f989a64ae932d62c5388e19060200160405180910390a15b6001600160a01b038316156134385761340483826138fa565b6040518181527f62b10e3ff3d45b5ff546e740b893897facb1680285f989a64ae932d62c5388e19060200160405180910390a15b50505050505050565b6001600160a01b0382166134bd5760405162461bcd60e51b815260206004820152602160248201527f45524332303a206275726e2066726f6d20746865207a65726f2061646472657360448201527f730000000000000000000000000000000000000000000000000000000000000060648201526084016109c9565b6134c9826000836139e5565b6001600160a01b038216600090815260336020526040902054818110156135585760405162461bcd60e51b815260206004820152602260248201527f45524332303a206275726e20616d6f756e7420657863656564732062616c616e60448201527f636500000000000000000000000000000000000000000000000000000000000060648201526084016109c9565b6001600160a01b03831660009081526033602052604081208383039055603580548492906135879084906144f2565b90915550506040518281526000906001600160a01b038516907fddf252ad1be2c89b69c2b068fc378daa952ba7f163c4a11628f55a4df523b3ef9060200160405180910390a3505050565b60008054610100900460ff161561366f578160ff1660011480156135f55750303b155b6136675760405162461bcd60e51b815260206004820152602e60248201527f496e697469616c697a61626c653a20636f6e747261637420697320616c72656160448201527f647920696e697469616c697a656400000000000000000000000000000000000060648201526084016109c9565b506000919050565b60005460ff8084169116106136ec5760405162461bcd60e51b815260206004820152602e60248201527f496e697469616c697a61626c653a20636f6e747261637420697320616c72656160448201527f647920696e697469616c697a656400000000000000000000000000000000000060648201526084016109c9565b506000805460ff191660ff92909216919091179055600190565b919050565b600054610100900460ff166137765760405162461bcd60e51b815260206004820152602b60248201527f496e697469616c697a61626c653a20636f6e7472616374206973206e6f74206960448201526a6e697469616c697a696e6760a81b60648201526084016109c9565b610dc98282613bdf565b600054610100900460ff166113bf5760405162461bcd60e51b815260206004820152602b60248201527f496e697469616c697a61626c653a20636f6e7472616374206973206e6f74206960448201526a6e697469616c697a696e6760a81b60648201526084016109c9565b600054610100900460ff166138565760405162461bcd60e51b815260206004820152602b60248201527f496e697469616c697a61626c653a20636f6e7472616374206973206e6f74206960448201526a6e697469616c697a696e6760a81b60648201526084016109c9565b61385e613c71565b613866613780565b6138b07f76d12de99ad2ca162840505be9b657c2e7a650cc3ee0284048f3f9def3c1adf27fe1bb029b7f4f8898e3ea44ceab083b5d93b14e8dd01ea4b170b110de8472fe64613ce4565b61012d80546001600160a01b0319166001600160a01b038316908117909155610e3e907fe1bb029b7f4f8898e3ea44ceab083b5d93b14e8dd01ea4b170b110de8472fe6490612e63565b6001600160a01b0382166139505760405162461bcd60e51b815260206004820152601f60248201527f45524332303a206d696e7420746f20746865207a65726f20616464726573730060448201526064016109c9565b61395c600083836139e5565b806035600082825461396e919061449b565b90915550506001600160a01b0382166000908152603360205260408120805483929061399b90849061449b565b90915550506040518181526001600160a01b038316906000907fddf252ad1be2c89b69c2b068fc378daa952ba7f163c4a11628f55a4df523b3ef9060200160405180910390a35050565b60975460ff161580613a2557503360009081527f2ba196f47b3be71b138f201feb4ef660723b7e914902e4011640313a80a06e19602052604090205460ff165b613a715760405162461bcd60e51b815260206004820152601560248201527f4e6f207065726d697373696f6e20746f2073656e64000000000000000000000060448201526064016109c9565b613a79613024565b610d3c576001600160a01b03808416600090815261013b6020526040808220549285168252902054808214613b585780613aed578261013a6000828254613ac091906144f2565b90915550613ad0905082846144d3565b6101336000828254613ae291906144f2565b90915550613b589050565b81613b27578261013a6000828254613b05919061449b565b90915550613b15905081846144d3565b6101336000828254613ae2919061449b565b613b3182846144d3565b613b3b82856144d3565b61013354613b49919061449b565b613b5391906144f2565b610133555b5050505050565b600082815260fb602090815260408083206001600160a01b038516845290915290205460ff16610dc957613b9d816001600160a01b03166014613d2f565b613ba8836020613d2f565b604051602001613bb99291906143bf565b60408051601f198184030181529082905262461bcd60e51b82526109c991600401614468565b600054610100900460ff16613c4a5760405162461bcd60e51b815260206004820152602b60248201527f496e697469616c697a61626c653a20636f6e7472616374206973206e6f74206960448201526a6e697469616c697a696e6760a81b60648201526084016109c9565b8151613c5d906036906020850190613fd4565b508051610d3c906037906020840190613fd4565b600054610100900460ff16613cdc5760405162461bcd60e51b815260206004820152602b60248201527f496e697469616c697a61626c653a20636f6e7472616374206973206e6f74206960448201526a6e697469616c697a696e6760a81b60648201526084016109c9565b6113bf613f5d565b600082815260fb6020526040808220600101805490849055905190918391839186917fbd79b86ffe0ab8e8776151514217cd7cacd52c909f66475c3af44e129f0b00ff9190a4505050565b60606000613d3e8360026144d3565b613d4990600261449b565b67ffffffffffffffff811115613d6f57634e487b7160e01b600052604160045260246000fd5b6040519080825280601f01601f191660200182016040528015613d99576020820181803683370190505b5090507f300000000000000000000000000000000000000000000000000000000000000081600081518110613dde57634e487b7160e01b600052603260045260246000fd5b60200101906001600160f81b031916908160001a9053507f780000000000000000000000000000000000000000000000000000000000000081600181518110613e3757634e487b7160e01b600052603260045260246000fd5b60200101906001600160f81b031916908160001a9053506000613e5b8460026144d3565b613e6690600161449b565b90505b6001811115613f07577f303132333435363738396162636465660000000000000000000000000000000085600f1660108110613eb557634e487b7160e01b600052603260045260246000fd5b1a60f81b828281518110613ed957634e487b7160e01b600052603260045260246000fd5b60200101906001600160f81b031916908160001a90535060049490941c93613f0081614535565b9050613e69565b508315613f565760405162461bcd60e51b815260206004820181905260248201527f537472696e67733a20686578206c656e67746820696e73756666696369656e7460448201526064016109c9565b9392505050565b600054610100900460ff16613fc85760405162461bcd60e51b815260206004820152602b60248201527f496e697469616c697a61626c653a20636f6e7472616374206973206e6f74206960448201526a6e697469616c697a696e6760a81b60648201526084016109c9565b6097805460ff19169055565b828054613fe09061454c565b90600052602060002090601f0160209004810192826140025760008555614048565b82601f1061401b57805160ff1916838001178555614048565b82800160010185558215614048579182015b8281111561404857825182559160200191906001019061402d565b50614054929150614058565b5090565b5b808211156140545760008155600101614059565b600067ffffffffffffffff808411156140885761408861459d565b604051601f8501601f19908116603f011681019082821181831017156140b0576140b061459d565b816040528093508581528686860111156140c957600080fd5b858560208301376000602087830101525050509392505050565b8035613706816145b3565b600082601f8301126140fe578081fd5b613f568383356020850161406d565b60006020828403121561411e578081fd5b8135613f56816145b3565b60006020828403121561413a578081fd5b8151613f56816145b3565b60008060408385031215614157578081fd5b8235614162816145b3565b91506020830135614172816145b3565b809150509250929050565b600080600060608486031215614191578081fd5b833561419c816145b3565b925060208401356141ac816145b3565b929592945050506040919091013590565b600080600080608085870312156141d2578081fd5b84356141dd816145b3565b935060208501356141ed816145b3565b925060408501359150606085013567ffffffffffffffff81111561420f578182fd5b8501601f8101871361421f578182fd5b61422e8782356020840161406d565b91505092959194509250565b60008060008060008060008060006101208a8c031215614258578485fd5b8935614263816145b3565b985060208a0135614273816145b3565b975060408a0135965060608a0135955060808a0135945060a08a0135935060c08a013567ffffffffffffffff808211156142ab578485fd5b6142b78d838e016140ee565b945060e08c01359150808211156142cc578384fd5b506142d98c828d016140ee565b9250506142e96101008b016140e3565b90509295985092959850929598565b6000806040838503121561430a578182fd5b8235614315816145b3565b946020939093013593505050565b600060208284031215614334578081fd5b81518015158114613f56578182fd5b600060208284031215614354578081fd5b5035919050565b6000806040838503121561436d578182fd5b823591506020830135614172816145b3565b600060208284031215614390578081fd5b81356001600160e01b031981168114613f56578182fd5b6000602082840312156143b8578081fd5b5051919050565b7f416363657373436f6e74726f6c3a206163636f756e74200000000000000000008152600083516143f7816017850160208801614509565b7f206973206d697373696e6720726f6c65200000000000000000000000000000006017918401918201528351614434816028840160208801614509565b01602801949350505050565b602081016005831061446257634e487b7160e01b600052602160045260246000fd5b91905290565b6020815260008251806020840152614487816040850160208701614509565b601f01601f19169190910160400192915050565b600082198211156144ae576144ae614587565b500190565b6000826144ce57634e487b7160e01b81526012600452602481fd5b500490565b60008160001904831182151516156144ed576144ed614587565b500290565b60008282101561450457614504614587565b500390565b60005b8381101561452457818101518382015260200161450c565b83811115612c315750506000910152565b60008161454457614544614587565b506000190190565b600181811c9082168061456057607f821691505b6020821081141561458157634e487b7160e01b600052602260045260246000fd5b50919050565b634e487b7160e01b600052601160045260246000fd5b634e487b7160e01b600052604160045260246000fd5b6001600160a01b0381168114610e3e57600080fdfea26469706673582212207a8ae442b2ee6e706d9ae43340fd30d6d2494868a1d909f14c248d9ba5ce348864736f6c63430008040033",
  "linkReferences": {},
  "deployedLinkReferences": {}
}