{
  "_format": "hh-sol-artifact-1",
  "contractName": "ERC721MembershipUpgradeable",
  "sourceName": "contracts/nfts/ERC721MembershipUpgradeable.sol",
  "abi": [
    {
      "anonymous": false,
      "inputs": [
        {
          "indexed": true,
          "internalType": "address",
          "name": "owner",
          "type": "address"
        },
        {
          "indexed": true,
          "internalType": "address",
          "name": "approved",
          "type": "address"
        },
        {
          "indexed": true,
          "internalType": "uint256",
          "name": "tokenId",
          "type": "uint256"
        }
      ],
      "name": "Approval",
      "type": "event"
    },
    {
      "anonymous": false,
      "inputs": [
        {
          "indexed": true,
          "internalType": "address",
          "name": "owner",
          "type": "address"
        },
        {
          "indexed": true,
          "internalType": "address",
          "name": "operator",
          "type": "address"
        },
        {
          "indexed": false,
          "internalType": "bool",
          "name": "approved",
          "type": "bool"
        }
      ],
      "name": "ApprovalForAll",
      "type": "event"
    },
    {
      "anonymous": false,
      "inputs": [
        {
          "indexed": false,
          "internalType": "uint8",
          "name": "version",
          "type": "uint8"
        }
      ],
      "name": "Initialized",
      "type": "event"
    },
    {
      "anonymous": false,
      "inputs": [
        {
          "indexed": true,
          "internalType": "address",
          "name": "previousOwner",
          "type": "address"
        },
        {
          "indexed": true,
          "internalType": "address",
          "name": "newOwner",
          "type": "address"
        }
      ],
      "name": "OwnershipTransferred",
      "type": "event"
    },
    {
      "anonymous": false,
      "inputs": [
        {
          "indexed": false,
          "internalType": "address",
          "name": "account",
          "type": "address"
        }
      ],
      "name": "Paused",
      "type": "event"
    },
    {
      "anonymous": false,
      "inputs": [
        {
          "indexed": true,
          "internalType": "address",
          "name": "owner",
          "type": "address"
        },
        {
          "indexed": true,
          "internalType": "uint256",
          "name": "id",
          "type": "uint256"
        }
      ],
      "name": "Redeem",
      "type": "event"
    },
    {
      "anonymous": false,
      "inputs": [
        {
          "indexed": true,
          "internalType": "address",
          "name": "owner",
          "type": "address"
        },
        {
          "indexed": true,
          "internalType": "uint256",
          "name": "id",
          "type": "uint256"
        }
      ],
      "name": "Release",
      "type": "event"
    },
    {
      "anonymous": false,
      "inputs": [
        {
          "indexed": true,
          "internalType": "bytes32",
          "name": "role",
          "type": "bytes32"
        },
        {
          "indexed": true,
          "internalType": "bytes32",
          "name": "previousAdminRole",
          "type": "bytes32"
        },
        {
          "indexed": true,
          "internalType": "bytes32",
          "name": "newAdminRole",
          "type": "bytes32"
        }
      ],
      "name": "RoleAdminChanged",
      "type": "event"
    },
    {
      "anonymous": false,
      "inputs": [
        {
          "indexed": true,
          "internalType": "bytes32",
          "name": "role",
          "type": "bytes32"
        },
        {
          "indexed": true,
          "internalType": "address",
          "name": "account",
          "type": "address"
        },
        {
          "indexed": true,
          "internalType": "address",
          "name": "sender",
          "type": "address"
        }
      ],
      "name": "RoleGranted",
      "type": "event"
    },
    {
      "anonymous": false,
      "inputs": [
        {
          "indexed": true,
          "internalType": "bytes32",
          "name": "role",
          "type": "bytes32"
        },
        {
          "indexed": true,
          "internalType": "address",
          "name": "account",
          "type": "address"
        },
        {
          "indexed": true,
          "internalType": "address",
          "name": "sender",
          "type": "address"
        }
      ],
      "name": "RoleRevoked",
      "type": "event"
    },
    {
      "anonymous": false,
      "inputs": [
        {
          "indexed": true,
          "internalType": "address",
          "name": "from",
          "type": "address"
        },
        {
          "indexed": true,
          "internalType": "address",
          "name": "to",
          "type": "address"
        },
        {
          "indexed": true,
          "internalType": "uint256",
          "name": "tokenId",
          "type": "uint256"
        }
      ],
      "name": "Transfer",
      "type": "event"
    },
    {
      "anonymous": false,
      "inputs": [
        {
          "indexed": false,
          "internalType": "address",
          "name": "account",
          "type": "address"
        }
      ],
      "name": "Unpaused",
      "type": "event"
    },
    {
      "inputs": [],
      "name": "DEFAULT_ADMIN_ROLE",
      "outputs": [
        {
          "internalType": "bytes32",
          "name": "",
          "type": "bytes32"
        }
      ],
      "stateMutability": "view",
      "type": "function"
    },
    {
      "inputs": [],
      "name": "SENDER_ROLE",
      "outputs": [
        {
          "internalType": "bytes32",
          "name": "",
          "type": "bytes32"
        }
      ],
      "stateMutability": "view",
      "type": "function"
    },
    {
      "inputs": [],
      "name": "SUPPORT_ROLE",
      "outputs": [
        {
          "internalType": "bytes32",
          "name": "",
          "type": "bytes32"
        }
      ],
      "stateMutability": "view",
      "type": "function"
    },
    {
      "inputs": [
        {
          "internalType": "enum ERC721MembershipUpgradeable.TierCode",
          "name": "tierCode",
          "type": "uint8"
        },
        {
          "internalType": "address",
          "name": "erc20From",
          "type": "address"
        },
        {
          "internalType": "address",
          "name": "nftTo",
          "type": "address"
        }
      ],
      "name": "_redeem",
      "outputs": [],
      "stateMutability": "nonpayable",
      "type": "function"
    },
    {
      "inputs": [
        {
          "internalType": "uint256[]",
          "name": "tokenIds",
          "type": "uint256[]"
        },
        {
          "internalType": "uint256[]",
          "name": "timestamps",
          "type": "uint256[]"
        }
      ],
      "name": "addEscrowReleaseTime",
      "outputs": [],
      "stateMutability": "nonpayable",
      "type": "function"
    },
    {
      "inputs": [
        {
          "internalType": "address",
          "name": "sender",
          "type": "address"
        }
      ],
      "name": "addSender",
      "outputs": [],
      "stateMutability": "nonpayable",
      "type": "function"
    },
    {
      "inputs": [
        {
          "internalType": "address",
          "name": "to",
          "type": "address"
        },
        {
          "internalType": "uint256",
          "name": "tokenId",
          "type": "uint256"
        }
      ],
      "name": "approve",
      "outputs": [],
      "stateMutability": "nonpayable",
      "type": "function"
    },
    {
      "inputs": [
        {
          "internalType": "address",
          "name": "owner",
          "type": "address"
        }
      ],
      "name": "balanceOf",
      "outputs": [
        {
          "internalType": "uint256",
          "name": "",
          "type": "uint256"
        }
      ],
      "stateMutability": "view",
      "type": "function"
    },
    {
      "inputs": [
        {
          "internalType": "uint256",
          "name": "tokenId",
          "type": "uint256"
        }
      ],
      "name": "burn",
      "outputs": [],
      "stateMutability": "nonpayable",
      "type": "function"
    },
    {
      "inputs": [],
      "name": "deleteDefaultRoyalty",
      "outputs": [],
      "stateMutability": "nonpayable",
      "type": "function"
    },
    {
      "inputs": [],
      "name": "disableEscrow",
      "outputs": [],
      "stateMutability": "nonpayable",
      "type": "function"
    },
    {
      "inputs": [],
      "name": "enableRelease",
      "outputs": [],
      "stateMutability": "nonpayable",
      "type": "function"
    },
    {
      "inputs": [],
      "name": "escrowEnabled",
      "outputs": [
        {
          "internalType": "bool",
          "name": "",
          "type": "bool"
        }
      ],
      "stateMutability": "view",
      "type": "function"
    },
    {
      "inputs": [
        {
          "internalType": "uint256",
          "name": "",
          "type": "uint256"
        }
      ],
      "name": "escrowReleaseTimes",
      "outputs": [
        {
          "internalType": "uint256",
          "name": "",
          "type": "uint256"
        }
      ],
      "stateMutability": "view",
      "type": "function"
    },
    {
      "inputs": [],
      "name": "foundationTier",
      "outputs": [
        {
          "internalType": "uint256",
          "name": "currId",
          "type": "uint256"
        },
        {
          "internalType": "uint256",
          "name": "start",
          "type": "uint256"
        },
        {
          "internalType": "uint256",
          "name": "end",
          "type": "uint256"
        },
        {
          "internalType": "uint256",
          "name": "price",
          "type": "uint256"
        }
      ],
      "stateMutability": "view",
      "type": "function"
    },
    {
      "inputs": [],
      "name": "friendTier",
      "outputs": [
        {
          "internalType": "uint256",
          "name": "currId",
          "type": "uint256"
        },
        {
          "internalType": "uint256",
          "name": "start",
          "type": "uint256"
        },
        {
          "internalType": "uint256",
          "name": "end",
          "type": "uint256"
        },
        {
          "internalType": "uint256",
          "name": "price",
          "type": "uint256"
        }
      ],
      "stateMutability": "view",
      "type": "function"
    },
    {
      "inputs": [],
      "name": "genesisTier",
      "outputs": [
        {
          "internalType": "uint256",
          "name": "currId",
          "type": "uint256"
        },
        {
          "internalType": "uint256",
          "name": "start",
          "type": "uint256"
        },
        {
          "internalType": "uint256",
          "name": "end",
          "type": "uint256"
        },
        {
          "internalType": "uint256",
          "name": "price",
          "type": "uint256"
        }
      ],
      "stateMutability": "view",
      "type": "function"
    },
    {
      "inputs": [
        {
          "internalType": "uint256",
          "name": "tokenId",
          "type": "uint256"
        }
      ],
      "name": "getApproved",
      "outputs": [
        {
          "internalType": "address",
          "name": "",
          "type": "address"
        }
      ],
      "stateMutability": "view",
      "type": "function"
    },
    {
      "inputs": [
        {
          "internalType": "bytes32",
          "name": "role",
          "type": "bytes32"
        }
      ],
      "name": "getRoleAdmin",
      "outputs": [
        {
          "internalType": "bytes32",
          "name": "",
          "type": "bytes32"
        }
      ],
      "stateMutability": "view",
      "type": "function"
    },
    {
      "inputs": [
        {
          "internalType": "enum ERC721MembershipUpgradeable.TierCode",
          "name": "tierCode",
          "type": "uint8"
        }
      ],
      "name": "getTierNumRemainingNFTs",
      "outputs": [
        {
          "internalType": "uint256",
          "name": "num",
          "type": "uint256"
        }
      ],
      "stateMutability": "view",
      "type": "function"
    },
    {
      "inputs": [
        {
          "internalType": "enum ERC721MembershipUpgradeable.TierCode",
          "name": "tierCode",
          "type": "uint8"
        }
      ],
      "name": "getTierPrice",
      "outputs": [
        {
          "internalType": "uint256",
          "name": "price",
          "type": "uint256"
        }
      ],
      "stateMutability": "view",
      "type": "function"
    },
    {
      "inputs": [
        {
          "internalType": "bytes32",
          "name": "role",
          "type": "bytes32"
        },
        {
          "internalType": "address",
          "name": "account",
          "type": "address"
        }
      ],
      "name": "grantRole",
      "outputs": [],
      "stateMutability": "nonpayable",
      "type": "function"
    },
    {
      "inputs": [
        {
          "internalType": "bytes32",
          "name": "role",
          "type": "bytes32"
        },
        {
          "internalType": "address",
          "name": "account",
          "type": "address"
        }
      ],
      "name": "hasRole",
      "outputs": [
        {
          "internalType": "bool",
          "name": "",
          "type": "bool"
        }
      ],
      "stateMutability": "view",
      "type": "function"
    },
    {
      "inputs": [
        {
          "internalType": "string",
          "name": "name_",
          "type": "string"
        },
        {
          "internalType": "string",
          "name": "symbol_",
          "type": "string"
        },
        {
          "internalType": "address",
          "name": "vault_",
          "type": "address"
        },
        {
          "internalType": "address",
          "name": "voteDelegatorLogic_",
          "type": "address"
        },
        {
          "internalType": "uint256",
          "name": "genesisEnd",
          "type": "uint256"
        },
        {
          "internalType": "uint256",
          "name": "foundationEnd",
          "type": "uint256"
        },
        {
          "internalType": "uint256",
          "name": "friendEnd",
          "type": "uint256"
        },
        {
          "internalType": "uint256",
          "name": "genesisPrice",
          "type": "uint256"
        },
        {
          "internalType": "uint256",
          "name": "foundationPrice",
          "type": "uint256"
        },
        {
          "internalType": "uint256",
          "name": "friendPrice",
          "type": "uint256"
        }
      ],
      "name": "initialize",
      "outputs": [],
      "stateMutability": "nonpayable",
      "type": "function"
    },
    {
      "inputs": [
        {
          "internalType": "address",
          "name": "owner",
          "type": "address"
        },
        {
          "internalType": "address",
          "name": "operator",
          "type": "address"
        }
      ],
      "name": "isApprovedForAll",
      "outputs": [
        {
          "internalType": "bool",
          "name": "",
          "type": "bool"
        }
      ],
      "stateMutability": "view",
      "type": "function"
    },
    {
      "inputs": [],
      "name": "name",
      "outputs": [
        {
          "internalType": "string",
          "name": "",
          "type": "string"
        }
      ],
      "stateMutability": "view",
      "type": "function"
    },
    {
      "inputs": [],
      "name": "owner",
      "outputs": [
        {
          "internalType": "address",
          "name": "",
          "type": "address"
        }
      ],
      "stateMutability": "view",
      "type": "function"
    },
    {
      "inputs": [],
      "name": "ownerAddress",
      "outputs": [
        {
          "internalType": "address",
          "name": "",
          "type": "address"
        }
      ],
      "stateMutability": "view",
      "type": "function"
    },
    {
      "inputs": [
        {
          "internalType": "uint256",
          "name": "tokenId",
          "type": "uint256"
        }
      ],
      "name": "ownerOf",
      "outputs": [
        {
          "internalType": "address",
          "name": "",
          "type": "address"
        }
      ],
      "stateMutability": "view",
      "type": "function"
    },
    {
      "inputs": [],
      "name": "pause",
      "outputs": [],
      "stateMutability": "nonpayable",
      "type": "function"
    },
    {
      "inputs": [],
      "name": "paused",
      "outputs": [
        {
          "internalType": "bool",
          "name": "",
          "type": "bool"
        }
      ],
      "stateMutability": "view",
      "type": "function"
    },
    {
      "inputs": [
        {
          "internalType": "enum ERC721MembershipUpgradeable.TierCode",
          "name": "tierCode",
          "type": "uint8"
        },
        {
          "internalType": "address",
          "name": "erc20From",
          "type": "address"
        },
        {
          "internalType": "address",
          "name": "nftTo",
          "type": "address"
        }
      ],
      "name": "redeem",
      "outputs": [],
      "stateMutability": "nonpayable",
      "type": "function"
    },
    {
      "inputs": [
        {
          "internalType": "uint256",
          "name": "id",
          "type": "uint256"
        }
      ],
      "name": "release",
      "outputs": [],
      "stateMutability": "nonpayable",
      "type": "function"
    },
    {
      "inputs": [],
      "name": "releaseEnabled",
      "outputs": [
        {
          "internalType": "bool",
          "name": "",
          "type": "bool"
        }
      ],
      "stateMutability": "view",
      "type": "function"
    },
    {
      "inputs": [
        {
          "internalType": "uint256[]",
          "name": "tokenIds",
          "type": "uint256[]"
        }
      ],
      "name": "removeEscrowReleaseTime",
      "outputs": [],
      "stateMutability": "nonpayable",
      "type": "function"
    },
    {
      "inputs": [
        {
          "internalType": "address",
          "name": "sender",
          "type": "address"
        }
      ],
      "name": "removeSender",
      "outputs": [],
      "stateMutability": "nonpayable",
      "type": "function"
    },
    {
      "inputs": [],
      "name": "renounceOwnership",
      "outputs": [],
      "stateMutability": "nonpayable",
      "type": "function"
    },
    {
      "inputs": [
        {
          "internalType": "bytes32",
          "name": "role",
          "type": "bytes32"
        },
        {
          "internalType": "address",
          "name": "account",
          "type": "address"
        }
      ],
      "name": "renounceRole",
      "outputs": [],
      "stateMutability": "nonpayable",
      "type": "function"
    },
    {
      "inputs": [],
      "name": "renounceSupport",
      "outputs": [],
      "stateMutability": "nonpayable",
      "type": "function"
    },
    {
      "inputs": [
        {
          "internalType": "bytes32",
          "name": "role",
          "type": "bytes32"
        },
        {
          "internalType": "address",
          "name": "account",
          "type": "address"
        }
      ],
      "name": "revokeRole",
      "outputs": [],
      "stateMutability": "nonpayable",
      "type": "function"
    },
    {
      "inputs": [
        {
          "internalType": "uint256",
          "name": "_tokenId",
          "type": "uint256"
        },
        {
          "internalType": "uint256",
          "name": "_salePrice",
          "type": "uint256"
        }
      ],
      "name": "royaltyInfo",
      "outputs": [
        {
          "internalType": "address",
          "name": "",
          "type": "address"
        },
        {
          "internalType": "uint256",
          "name": "",
          "type": "uint256"
        }
      ],
      "stateMutability": "view",
      "type": "function"
    },
    {
      "inputs": [
        {
          "internalType": "address",
          "name": "from",
          "type": "address"
        },
        {
          "internalType": "address",
          "name": "to",
          "type": "address"
        },
        {
          "internalType": "uint256",
          "name": "tokenId",
          "type": "uint256"
        }
      ],
      "name": "safeTransferFrom",
      "outputs": [],
      "stateMutability": "nonpayable",
      "type": "function"
    },
    {
      "inputs": [
        {
          "internalType": "address",
          "name": "from",
          "type": "address"
        },
        {
          "internalType": "address",
          "name": "to",
          "type": "address"
        },
        {
          "internalType": "uint256",
          "name": "tokenId",
          "type": "uint256"
        },
        {
          "internalType": "bytes",
          "name": "_data",
          "type": "bytes"
        }
      ],
      "name": "safeTransferFrom",
      "outputs": [],
      "stateMutability": "nonpayable",
      "type": "function"
    },
    {
      "inputs": [
        {
          "internalType": "address",
          "name": "operator",
          "type": "address"
        },
        {
          "internalType": "bool",
          "name": "approved",
          "type": "bool"
        }
      ],
      "name": "setApprovalForAll",
      "outputs": [],
      "stateMutability": "nonpayable",
      "type": "function"
    },
    {
      "inputs": [
        {
          "internalType": "string",
          "name": "membershipBaseURI_",
          "type": "string"
        }
      ],
      "name": "setBaseURI",
      "outputs": [],
      "stateMutability": "nonpayable",
      "type": "function"
    },
    {
      "inputs": [
        {
          "internalType": "address",
          "name": "receiver",
          "type": "address"
        },
        {
          "internalType": "uint96",
          "name": "feeNumerator",
          "type": "uint96"
        }
      ],
      "name": "setDefaultRoyalty",
      "outputs": [],
      "stateMutability": "nonpayable",
      "type": "function"
    },
    {
      "inputs": [
        {
          "internalType": "bytes4",
          "name": "interfaceId",
          "type": "bytes4"
        }
      ],
      "name": "supportsInterface",
      "outputs": [
        {
          "internalType": "bool",
          "name": "",
          "type": "bool"
        }
      ],
      "stateMutability": "view",
      "type": "function"
    },
    {
      "inputs": [],
      "name": "symbol",
      "outputs": [
        {
          "internalType": "string",
          "name": "",
          "type": "string"
        }
      ],
      "stateMutability": "view",
      "type": "function"
    },
    {
      "inputs": [
        {
          "internalType": "uint256",
          "name": "tokenId",
          "type": "uint256"
        }
      ],
      "name": "tokenURI",
      "outputs": [
        {
          "internalType": "string",
          "name": "",
          "type": "string"
        }
      ],
      "stateMutability": "view",
      "type": "function"
    },
    {
      "inputs": [
        {
          "internalType": "address",
          "name": "from",
          "type": "address"
        },
        {
          "internalType": "address",
          "name": "to",
          "type": "address"
        },
        {
          "internalType": "uint256",
          "name": "tokenId",
          "type": "uint256"
        }
      ],
      "name": "transferFrom",
      "outputs": [],
      "stateMutability": "nonpayable",
      "type": "function"
    },
    {
      "inputs": [
        {
          "internalType": "address",
          "name": "newOwner",
          "type": "address"
        }
      ],
      "name": "transferOwnership",
      "outputs": [],
      "stateMutability": "nonpayable",
      "type": "function"
    },
    {
      "inputs": [],
      "name": "unpause",
      "outputs": [],
      "stateMutability": "nonpayable",
      "type": "function"
    },
    {
      "inputs": [
        {
          "internalType": "uint16",
          "name": "nftID",
          "type": "uint16"
        },
        {
          "internalType": "uint256",
          "name": "newPrice",
          "type": "uint256"
        }
      ],
      "name": "updateUserPrice",
      "outputs": [],
      "stateMutability": "nonpayable",
      "type": "function"
    },
    {
      "inputs": [],
      "name": "vault",
      "outputs": [
        {
          "internalType": "address",
          "name": "",
          "type": "address"
        }
      ],
      "stateMutability": "view",
      "type": "function"
    },
    {
      "inputs": [],
      "name": "voteDelegatorLogic",
      "outputs": [
        {
          "internalType": "address",
          "name": "",
          "type": "address"
        }
      ],
      "stateMutability": "view",
      "type": "function"
    },
    {
      "inputs": [
        {
          "internalType": "uint256",
          "name": "",
          "type": "uint256"
        }
      ],
      "name": "voteDelegators",
      "outputs": [
        {
          "internalType": "address",
          "name": "",
          "type": "address"
        }
      ],
      "stateMutability": "view",
      "type": "function"
    }
  ],
  "bytecode": "0x60c06040526005608081905264173539b7b760d91b60a090815262000029916101c591906200004c565b506101c8805460ff191660011790553480156200004557600080fd5b506200012f565b8280546200005a90620000f2565b90600052602060002090601f0160209004810192826200007e5760008555620000c9565b82601f106200009957805160ff1916838001178555620000c9565b82800160010185558215620000c9579182015b82811115620000c9578251825591602001919060010190620000ac565b50620000d7929150620000db565b5090565b5b80821115620000d75760008155600101620000dc565b600181811c908216806200010757607f821691505b602082108114156200012957634e487b7160e01b600052602260045260246000fd5b50919050565b614e34806200013f6000396000f3fe60806040523480156200001157600080fd5b5060043610620003c15760003560e01c806385967f9511620001f9578063b88d4fde1162000119578063db15c93c11620000af578063ed9054aa1162000086578063ed9054aa14620008f3578063f2fde38b1462000920578063fbfa77cf1462000937578063fd225d2e146200094c57600080fd5b8063db15c93c146200089b578063df01441a14620008aa578063e985e9c514620008b457600080fd5b8063cb40345b11620000f0578063cb40345b1462000840578063cdf2a5681462000856578063d238d359146200086d578063d547741f146200088457600080fd5b8063b88d4fde14620007ea578063c42ef38c1462000801578063c87b56dd146200082957600080fd5b8063a0ab2584116200018f578063aa1b103f1162000166578063aa1b103f14620007a8578063b203286414620007b2578063b2f8764314620007bc578063b697f53114620007d357600080fd5b8063a0ab2584146200076e578063a217fddf1462000788578063a22cb465146200079157600080fd5b806391d1485411620001d057806391d1485414620006e857806394b059ab146200072557806395461678146200074d57806395d89b41146200076457600080fd5b806385967f9514620006b65780638da5cb5b14620006c05780638f84aa0914620006d357600080fd5b806336568abe11620002e55780635c975abb116200027b57806370a08231116200025257806370a082311462000670578063715018a6146200068757806374ab088b14620006915780638456cb5914620006ac57600080fd5b80635c975abb14620006325780635de7eb1b146200063e5780636352211e146200065957600080fd5b806342842e0e11620002bc57806342842e0e14620005d657806342966c6814620005ed5780635586402d146200060457806355f804b3146200061b57600080fd5b806336568abe146200059e57806337bdc99b14620005b55780633f4ba83a14620005cc57600080fd5b806323b872dd116200035b5780632870917011620003325780632870917014620005225780632a55205a14620005395780632f2ff15d146200057057806330e76996146200058757600080fd5b806323b872dd14620004be5780632444fdee14620004d5578063248a9ca314620004ec57600080fd5b8063081812fc116200039c578063081812fc1462000424578063095ea7b314620004545780631b31647d146200046b5780631d0e3392146200048257600080fd5b806301ffc9a714620003c657806304634d8d14620003f257806306fdde03146200040b575b600080fd5b620003dd620003d73660046200449d565b62000970565b60405190151581526020015b60405180910390f35b62000409620004033660046200434d565b620009a7565b005b6200041562000a18565b604051620003e9919062004906565b6200043b620004353660046200445f565b62000ab2565b6040516001600160a01b039091168152602001620003e9565b620004096200046536600462004321565b62000b49565b620004096200047c36600462004677565b62000c86565b6101d2546101d3546101d4546101d5546200049d9392919084565b604080519485526020850193909352918301526060820152608001620003e9565b62000409620004cf36600462004224565b62000fed565b62000409620004e6366004620044f8565b6200107b565b62000513620004fd3660046200445f565b600090815261015f602052604090206001015490565b604051908152602001620003e9565b6200040962000533366004620045b3565b620010f6565b620005506200054a366004620046b5565b62001435565b604080516001600160a01b039093168352602083019190915201620003e9565b620004096200058136600462004478565b620014f7565b62000409620005983660046200438c565b62001521565b62000409620005af36600462004478565b620015e1565b62000409620005c63660046200445f565b6200166d565b62000409620018db565b62000409620005e736600462004224565b62001914565b62000409620005fe3660046200445f565b62001931565b6200051362000615366004620044db565b620019bb565b620004096200062c36600462004541565b620019d4565b60335460ff16620003dd565b6101cd546101ce546101cf546101d0546200049d9392919084565b6200043b6200066a3660046200445f565b62001a40565b6200051362000681366004620041d0565b62001acd565b6200040962001b69565b6101d7546101d8546101d9546101da546200049d9392919084565b6200040962001bd4565b6200040962001c0a565b610192546001600160a01b03166200043b565b610191546200043b906001600160a01b031681565b620003dd620006f936600462004478565b600091825261015f602090815260408084206001600160a01b0393909316845291905290205460ff1690565b620005137fe1bb029b7f4f8898e3ea44ceab083b5d93b14e8dd01ea4b170b110de8472fe6481565b620004096200075e366004620043d0565b62001c74565b6200041562001d61565b6101c8546200043b9061010090046001600160a01b031681565b62000513600081565b62000409620007a2366004620042e6565b62001d72565b6200040962001d7f565b6200040962001de7565b62000409620007cd366004620041d0565b62001e5a565b62000409620007e4366004620041d0565b62001e86565b62000409620007fb36600462004264565b62001eb2565b620005137f76d12de99ad2ca162840505be9b657c2e7a650cc3ee0284048f3f9def3c1adf281565b620004156200083a3660046200445f565b62001f46565b6101c654620003dd90600160a01b900460ff1681565b6200040962000867366004620044f8565b62002010565b620005136200087e366004620044db565b6200230f565b620004096200089536600462004478565b6200234d565b6101c854620003dd9060ff1681565b6200040962002377565b620003dd620008c5366004620041ed565b6001600160a01b03918216600090815260ce6020908152604080832093909416825291909152205460ff1690565b6200043b620009043660046200445f565b6101cc602052600090815260409020546001600160a01b031681565b6200040962000931366004620041d0565b620023a3565b6101c6546200043b906001600160a01b031681565b620005136200095d3660046200445f565b6101c76020526000908152604090205481565b60006200097d8262002489565b806200098f57506200098f82620024ca565b80620009a15750620009a18262002540565b92915050565b610192546001600160a01b0316331462000a085760405162461bcd60e51b815260206004820181905260248201527f4f776e61626c653a2063616c6c6572206973206e6f7420746865206f776e657260448201526064015b60405180910390fd5b62000a1482826200254d565b5050565b606060c9805462000a2990620049d2565b80601f016020809104026020016040519081016040528092919081815260200182805462000a5790620049d2565b801562000aa85780601f1062000a7c5761010080835404028352916020019162000aa8565b820191906000526020600020905b81548152906001019060200180831162000a8a57829003601f168201915b5050505050905090565b600081815260cb60205260408120546001600160a01b031662000b2d5760405162461bcd60e51b815260206004820152602c60248201527f4552433732313a20617070726f76656420717565727920666f72206e6f6e657860448201526b34b9ba32b73a103a37b5b2b760a11b6064820152608401620009ff565b50600090815260cd60205260409020546001600160a01b031690565b600062000b568262001a40565b9050806001600160a01b0316836001600160a01b0316141562000be25760405162461bcd60e51b815260206004820152602160248201527f4552433732313a20617070726f76616c20746f2063757272656e74206f776e6560448201527f72000000000000000000000000000000000000000000000000000000000000006064820152608401620009ff565b336001600160a01b038216148062000c01575062000c018133620008c5565b62000c755760405162461bcd60e51b815260206004820152603860248201527f4552433732313a20617070726f76652063616c6c6572206973206e6f74206f7760448201527f6e6572206e6f7220617070726f76656420666f7220616c6c00000000000000006064820152608401620009ff565b62000c8183836200266b565b505050565b3362000c9661ffff841662001a40565b6001600160a01b03161462000d145760405162461bcd60e51b815260206004820152603f60248201527f6d656d626572736869703a63616e206f6e6c792064656c656761746520766f7460448201527f657320666f722073656e6465722773206d656d62657273686970204e465473006064820152608401620009ff565b61ffff821660009081526101cc60205260409020546001600160a01b03168062000e2f576101c6546040516001600160a01b03909116602482015260009060440160408051601f198184030181529181526020820180517bffffffffffffffffffffffffffffffffffffffffffffffffffffffff167fc4d66de8000000000000000000000000000000000000000000000000000000001790526101c85490519192506001600160a01b036101009091041690829062000dd39062003f55565b62000de0929190620048a1565b604051809103906000f08015801562000dfd573d6000803e3d6000fd5b5061ffff851660009081526101cc6020526040902080546001600160a01b0319166001600160a01b0383161790559150505b80600062000e4161ffff8616620026db565b6101c6546040516370a0823160e01b81526001600160a01b038681166004830152929350600092909116906370a082319060240160206040518083038186803b15801562000e8e57600080fd5b505afa15801562000ea3573d6000803e3d6000fd5b505050506040513d601f19601f8201168201806040525081019062000ec991906200469c565b826003015462000eda91906200496f565b9050801562000f70576101c65460405163a9059cbb60e01b81526001600160a01b038681166004830152602482018490529091169063a9059cbb90604401602060405180830381600087803b15801562000f3357600080fd5b505af115801562000f48573d6000803e3d6000fd5b505050506040513d601f19601f8201168201806040525081019062000f6e919062004440565b505b6040517f6a775714000000000000000000000000000000000000000000000000000000008152600481018690526001600160a01b03841690636a77571490602401600060405180830381600087803b15801562000fcc57600080fd5b505af115801562000fe1573d6000803e3d6000fd5b50505050505050505050565b62000ffa335b8262002766565b6200106e5760405162461bcd60e51b815260206004820152603160248201527f4552433732313a207472616e736665722063616c6c6572206973206e6f74206f60448201527f776e6572206e6f7220617070726f7665640000000000000000000000000000006064820152608401620009ff565b62000c8183838362002865565b6040517fcdf2a568000000000000000000000000000000000000000000000000000000008152309063cdf2a56890620010bd90869086908690600401620048c5565b600060405180830381600087803b158015620010d857600080fd5b505af1158015620010ed573d6000803e3d6000fd5b50505050505050565b600062001104600162002a4b565b905080156200111d576000805461ff0019166101001790555b620011298b8b62002b8a565b6200113362002c03565b620011516200114b610192546001600160a01b031690565b62002c7a565b886101c660006101000a8154816001600160a01b0302191690836001600160a01b03160217905550876101c860016101000a8154816001600160a01b0302191690836001600160a01b031602179055506040518060a0016040528060018152602001600181526020018881526020018581526020016101c98054806020026020016040519081016040528092919081815260200182805480156200121557602002820191906000526020600020905b81548152602001906001019080831162001200575b50505091909252505080516101d79081556020808301516101d85560408301516101d95560608301516101da55608083015180516200125a926101db92019062003f63565b509050506040518060a001604052808881526020018881526020018781526020018481526020016101ca805480602002602001604051908101604052809291908181526020018280548015620012d057602002820191906000526020600020905b815481526020019060010190808311620012bb575b50505091909252505080516101d29081556020808301516101d35560408301516101d45560608301516101d5556080830151805162001315926101d692019062003f63565b509050506040518060a001604052808781526020018781526020018681526020018381526020016101cb8054806020026020016040519081016040528092919081815260200182805480156200138b57602002820191906000526020600020905b81548152602001906001019080831162001376575b50505091909252505080516101cd9081556020808301516101ce5560408301516101cf5560608301516101d05560808301518051620013d0926101d192019062003f63565b50506101c6805460ff60a01b1916905550801562001428576000805461ff0019169055604051600181527f7f26b83ff96e1f2b6a682f133852f6798a09c465da95921460cefb38474024989060200160405180910390a15b5050505050505050505050565b60008281526098602090815260408083208151808301909252546001600160a01b038116808352600160a01b9091046bffffffffffffffffffffffff16928201929092528291620014b55750604080518082019091526097546001600160a01b0381168252600160a01b90046bffffffffffffffffffffffff1660208201525b602081015160009061271090620014db906bffffffffffffffffffffffff16876200494d565b620014e7919062004936565b91519350909150505b9250929050565b600082815261015f6020526040902060010154620015158162002d93565b62000c81838362002d9f565b610192546001600160a01b031633146200157e5760405162461bcd60e51b815260206004820181905260248201527f4f776e61626c653a2063616c6c6572206973206e6f7420746865206f776e65726044820152606401620009ff565b60005b8181101562000c815760006101c76000858585818110620015b257634e487b7160e01b600052603260045260246000fd5b905060200201358152602001908152602001600020819055508080620015d89062004a0f565b91505062001581565b6001600160a01b0381163314620016615760405162461bcd60e51b815260206004820152602f60248201527f416363657373436f6e74726f6c3a2063616e206f6e6c792072656e6f756e636560448201527f20726f6c657320666f722073656c6600000000000000000000000000000000006064820152608401620009ff565b62000a14828262002e45565b620016788162001a40565b6001600160a01b0316336001600160a01b031614620017005760405162461bcd60e51b815260206004820152602f60248201527f6d656d626572736869703a63616e206f6e6c792072656c6561736520796f757260448201527f206f776e206d656d6265727368697000000000000000000000000000000000006064820152608401620009ff565b6101c654600160a01b900460ff166200175c5760405162461bcd60e51b815260206004820152601f60248201527f6d656d626572736869703a2072656c65617365206e6f7420656e61626c6564006044820152606401620009ff565b620017678162002ecb565b60006200177482620026db565b60008381526101cc60205260409020549091506001600160a01b03168015620017fb576040516351cff8d960e01b815233600482015281906001600160a01b038216906351cff8d990602401600060405180830381600087803b158015620017db57600080fd5b505af1158015620017f0573d6000803e3d6000fd5b50505050506200188c565b6101c654600383015460405163a9059cbb60e01b815233600482015260248101919091526001600160a01b039091169063a9059cbb90604401602060405180830381600087803b1580156200184f57600080fd5b505af115801562001864573d6000803e3d6000fd5b505050506040513d601f19601f820116820180604052508101906200188a919062004440565b505b60048201805460018101825560009182526020822001849055604051849133917ff6334794522b9db534a812aaae1af828a2e96aac68473b58e36d7d0bfd67477b9190a362000c818362001931565b7fe1bb029b7f4f8898e3ea44ceab083b5d93b14e8dd01ea4b170b110de8472fe64620019078162002d93565b6200191162002f38565b50565b62000c818383836040518060200160405280600081525062001eb2565b6200193c3362000ff3565b620019b05760405162461bcd60e51b815260206004820152603060248201527f4552433732314275726e61626c653a2063616c6c6572206973206e6f74206f7760448201527f6e6572206e6f7220617070726f766564000000000000000000000000000000006064820152608401620009ff565b620019118162002fd6565b600080620019c98362002fe1565b600301549392505050565b610192546001600160a01b0316331462001a315760405162461bcd60e51b815260206004820181905260248201527f4f776e61626c653a2063616c6c6572206973206e6f7420746865206f776e65726044820152606401620009ff565b62000c816101c4838362003fb3565b600081815260cb60205260408120546001600160a01b031680620009a15760405162461bcd60e51b815260206004820152602960248201527f4552433732313a206f776e657220717565727920666f72206e6f6e657869737460448201527f656e7420746f6b656e00000000000000000000000000000000000000000000006064820152608401620009ff565b60006001600160a01b03821662001b4d5760405162461bcd60e51b815260206004820152602a60248201527f4552433732313a2062616c616e636520717565727920666f7220746865207a6560448201527f726f2061646472657373000000000000000000000000000000000000000000006064820152608401620009ff565b506001600160a01b0316600090815260cc602052604090205490565b610192546001600160a01b0316331462001bc65760405162461bcd60e51b815260206004820181905260248201527f4f776e61626c653a2063616c6c6572206973206e6f7420746865206f776e65726044820152606401620009ff565b62001bd26000620030c4565b565b7fe1bb029b7f4f8898e3ea44ceab083b5d93b14e8dd01ea4b170b110de8472fe6462001c008162002d93565b6200191162003117565b610192546001600160a01b0316331462001c675760405162461bcd60e51b815260206004820181905260248201527f4f776e61626c653a2063616c6c6572206973206e6f7420746865206f776e65726044820152606401620009ff565b6101c8805460ff19169055565b610192546001600160a01b0316331462001cd15760405162461bcd60e51b815260206004820181905260248201527f4f776e61626c653a2063616c6c6572206973206e6f7420746865206f776e65726044820152606401620009ff565b60005b8381101562001d5a5782828281811062001cfe57634e487b7160e01b600052603260045260246000fd5b905060200201356101c7600087878581811062001d2b57634e487b7160e01b600052603260045260246000fd5b90506020020135815260200190815260200160002081905550808062001d519062004a0f565b91505062001cd4565b5050505050565b606060ca805462000a2990620049d2565b62000a14338383620031a2565b610192546001600160a01b0316331462001ddc5760405162461bcd60e51b815260206004820181905260248201527f4f776e61626c653a2063616c6c6572206973206e6f7420746865206f776e65726044820152606401620009ff565b62001bd26000609755565b610192546001600160a01b0316331462001e445760405162461bcd60e51b815260206004820181905260248201527f4f776e61626c653a2063616c6c6572206973206e6f7420746865206f776e65726044820152606401620009ff565b6101c6805460ff60a01b1916600160a01b179055565b620019117f76d12de99ad2ca162840505be9b657c2e7a650cc3ee0284048f3f9def3c1adf2826200234d565b620019117f76d12de99ad2ca162840505be9b657c2e7a650cc3ee0284048f3f9def3c1adf282620014f7565b62001ebe338362002766565b62001f325760405162461bcd60e51b815260206004820152603160248201527f4552433732313a207472616e736665722063616c6c6572206973206e6f74206f60448201527f776e6572206e6f7220617070726f7665640000000000000000000000000000006064820152608401620009ff565b62001f408484848462003273565b50505050565b600081815260cb60205260409020546060906001600160a01b031662001fd55760405162461bcd60e51b815260206004820152602f60248201527f4552433732314d657461646174613a2055524920717565727920666f72206e6f60448201527f6e6578697374656e7420746f6b656e00000000000000000000000000000000006064820152608401620009ff565b6101c462001fe383620032f7565b6101c560405160200162001ffa93929190620047a5565b6040516020818303038152906040529050919050565b6000806200201e8562002fe1565b600481015490915015620020aa5760048101805462002040906001906200496f565b815481106200205f57634e487b7160e01b600052603260045260246000fd5b90600052602060002001549150806004018054806200208e57634e487b7160e01b600052603160045260246000fd5b600190038181906000526020600020016000905590556200213f565b6002810154815410620021265760405162461bcd60e51b815260206004820152602a60248201527f6d656d626572736869703a63616e6e6f74206d696e74206d6f726520746f6b6560448201527f6e732061742074696572000000000000000000000000000000000000000000006064820152608401620009ff565b8054915081816000620021398362004a0f565b91905055505b60405182906001600160a01b038516907f222838db2794d11532d940e8dec38ae307ed0b63cd97c233322e221f998767a690600090a362002181838362003425565b60038101546101c6546040516370a0823160e01b81526001600160a01b038781166004830152909116906370a082319060240160206040518083038186803b158015620021cd57600080fd5b505afa158015620021e2573d6000803e3d6000fd5b505050506040513d601f19601f820116820180604052508101906200220891906200469c565b1015620022585760405162461bcd60e51b815260206004820152601f60248201527f6d656d626572736869703a696e73756666696369656e742062616c616e6365006044820152606401620009ff565b6101c65460038201546040517f23b872dd0000000000000000000000000000000000000000000000000000000081526001600160a01b03878116600483015230602483015260448201929092529116906323b872dd90606401602060405180830381600087803b158015620022cc57600080fd5b505af1158015620022e1573d6000803e3d6000fd5b505050506040513d601f19601f8201168201806040525081019062002307919062004440565b505050505050565b6000806200231d8362002fe1565b60048101548154600283015492935090916200233a91906200496f565b6200234691906200491b565b9392505050565b600082815261015f60205260409020600101546200236b8162002d93565b62000c81838362002e45565b62001bd27fe1bb029b7f4f8898e3ea44ceab083b5d93b14e8dd01ea4b170b110de8472fe6433620015e1565b610192546001600160a01b03163314620024005760405162461bcd60e51b815260206004820181905260248201527f4f776e61626c653a2063616c6c6572206973206e6f7420746865206f776e65726044820152606401620009ff565b6001600160a01b0381166200247e5760405162461bcd60e51b815260206004820152602660248201527f4f776e61626c653a206e6577206f776e657220697320746865207a65726f206160448201527f64647265737300000000000000000000000000000000000000000000000000006064820152608401620009ff565b6200191181620030c4565b60006001600160e01b031982167f7965db0b000000000000000000000000000000000000000000000000000000001480620009a15750620009a18262002540565b60006001600160e01b031982167f80ac58cd0000000000000000000000000000000000000000000000000000000014806200252e57506001600160e01b031982167f5b5e139f00000000000000000000000000000000000000000000000000000000145b80620009a15750620009a18262003441565b6000620009a182620024ca565b6127106bffffffffffffffffffffffff82161115620025d55760405162461bcd60e51b815260206004820152602a60248201527f455243323938313a20726f79616c7479206665652077696c6c2065786365656460448201527f2073616c655072696365000000000000000000000000000000000000000000006064820152608401620009ff565b6001600160a01b0382166200262d5760405162461bcd60e51b815260206004820152601960248201527f455243323938313a20696e76616c6964207265636569766572000000000000006044820152606401620009ff565b604080518082019091526001600160a01b039092168083526bffffffffffffffffffffffff9091166020909201829052600160a01b90910217609755565b600081815260cd6020526040902080546001600160a01b0319166001600160a01b0384169081179091558190620026a28262001a40565b6001600160a01b03167f8c5be1e5ebec7d5bd14f71427d1e84f3dd0314c0f7b2291e5b200ac8c7c3b92560405160405180910390a45050565b6101d954600090821015620026f357506101d7919050565b6101d4548210156200270857506101d2919050565b6101cf548210156200271d57506101cd919050565b60405162461bcd60e51b815260206004820152600f60248201527f6964206f7574206f662072616e676500000000000000000000000000000000006044820152606401620009ff565b600081815260cb60205260408120546001600160a01b0316620027e15760405162461bcd60e51b815260206004820152602c60248201527f4552433732313a206f70657261746f7220717565727920666f72206e6f6e657860448201526b34b9ba32b73a103a37b5b2b760a11b6064820152608401620009ff565b6000620027ee8362001a40565b9050806001600160a01b0316846001600160a01b031614806200283657506001600160a01b03808216600090815260ce602090815260408083209388168352929052205460ff165b806200285d5750836001600160a01b0316620028528462000ab2565b6001600160a01b0316145b949350505050565b826001600160a01b03166200287a8262001a40565b6001600160a01b031614620028f85760405162461bcd60e51b815260206004820152602560248201527f4552433732313a207472616e736665722066726f6d20696e636f72726563742060448201527f6f776e65720000000000000000000000000000000000000000000000000000006064820152608401620009ff565b6001600160a01b038216620029755760405162461bcd60e51b8152602060048201526024808201527f4552433732313a207472616e7366657220746f20746865207a65726f2061646460448201527f72657373000000000000000000000000000000000000000000000000000000006064820152608401620009ff565b62002982838383620034aa565b6200298f6000826200266b565b6001600160a01b038316600090815260cc60205260408120805460019290620029ba9084906200496f565b90915550506001600160a01b038216600090815260cc60205260408120805460019290620029ea9084906200491b565b9091555050600081815260cb602052604080822080546001600160a01b0319166001600160a01b0386811691821790925591518493918716917fddf252ad1be2c89b69c2b068fc378daa952ba7f163c4a11628f55a4df523b3ef91a4505050565b60008054610100900460ff161562002aec578160ff16600114801562002a705750303b155b62002ae45760405162461bcd60e51b815260206004820152602e60248201527f496e697469616c697a61626c653a20636f6e747261637420697320616c72656160448201527f647920696e697469616c697a65640000000000000000000000000000000000006064820152608401620009ff565b506000919050565b60005460ff80841691161062002b6b5760405162461bcd60e51b815260206004820152602e60248201527f496e697469616c697a61626c653a20636f6e747261637420697320616c72656160448201527f647920696e697469616c697a65640000000000000000000000000000000000006064820152608401620009ff565b506000805460ff191660ff92909216919091179055600190565b919050565b600054610100900460ff1662002bf75760405162461bcd60e51b815260206004820152602b60248201527f496e697469616c697a61626c653a20636f6e7472616374206973206e6f74206960448201526a6e697469616c697a696e6760a81b6064820152608401620009ff565b62000a148282620035e9565b600054610100900460ff1662002c705760405162461bcd60e51b815260206004820152602b60248201527f496e697469616c697a61626c653a20636f6e7472616374206973206e6f74206960448201526a6e697469616c697a696e6760a81b6064820152608401620009ff565b62001bd262003681565b600054610100900460ff1662002ce75760405162461bcd60e51b815260206004820152602b60248201527f496e697469616c697a61626c653a20636f6e7472616374206973206e6f74206960448201526a6e697469616c697a696e6760a81b6064820152608401620009ff565b62002cf1620036f9565b62002cfb62003770565b62002d477f76d12de99ad2ca162840505be9b657c2e7a650cc3ee0284048f3f9def3c1adf27fe1bb029b7f4f8898e3ea44ceab083b5d93b14e8dd01ea4b170b110de8472fe64620037dd565b61019180546001600160a01b0319166001600160a01b03831690811790915562001911907fe1bb029b7f4f8898e3ea44ceab083b5d93b14e8dd01ea4b170b110de8472fe649062002d9f565b62001911813362003829565b600082815261015f602090815260408083206001600160a01b038516845290915290205460ff1662000a1457600082815261015f602090815260408083206001600160a01b03851684529091529020805460ff1916600117905562002e013390565b6001600160a01b0316816001600160a01b0316837f2f8788117e7eff1d82e926ec794901d17c78024a50270940304540a733656f0d60405160405180910390a45050565b600082815261015f602090815260408083206001600160a01b038516845290915290205460ff161562000a1457600082815261015f602090815260408083206001600160a01b0385168085529252808320805460ff1916905551339285917ff6391f5c32d9c69d2a47ea670b442974b53935d1edc7fd64eb21e047a839171b9190a45050565b6101c85460ff1615620019115760008181526101c760205260409020544211620019115760405162461bcd60e51b815260206004820152601b60248201527f6d656d626572736869703a6c6f636b656420696e20657363726f7700000000006044820152606401620009ff565b60335460ff1662002f8c5760405162461bcd60e51b815260206004820152601460248201527f5061757361626c653a206e6f74207061757365640000000000000000000000006044820152606401620009ff565b6033805460ff191690557f5db9ee0a495bf2e6ff9c91a7834c1ba4fdd244a5e8aa4e537bd38aeae4b073aa335b6040516001600160a01b03909116815260200160405180910390a1565b6200191181620038b3565b6000808260028111156200300557634e487b7160e01b600052602160045260246000fd5b14156200301557506101d7919050565b60018260028111156200303857634e487b7160e01b600052602160045260246000fd5b14156200304857506101d2919050565b60028260028111156200306b57634e487b7160e01b600052602160045260246000fd5b14156200307b57506101cd919050565b60405162461bcd60e51b815260206004820152601660248201527f7469657220636f6465206f7574206f662072616e6765000000000000000000006044820152606401620009ff565b61019280546001600160a01b038381166001600160a01b0319831681179093556040519116919082907f8be0079c531659141344cd1fd0a4f28419497f9722a3daafe3b4186f6b6457e090600090a35050565b60335460ff16156200316c5760405162461bcd60e51b815260206004820152601060248201527f5061757361626c653a20706175736564000000000000000000000000000000006044820152606401620009ff565b6033805460ff191660011790557f62e78cea01bee320cd4e420270b5ea74000d11b0c9f74754ebdbfc544b05a25862002fb93390565b816001600160a01b0316836001600160a01b03161415620032065760405162461bcd60e51b815260206004820152601960248201527f4552433732313a20617070726f766520746f2063616c6c6572000000000000006044820152606401620009ff565b6001600160a01b03838116600081815260ce6020908152604080832094871680845294825291829020805460ff191686151590811790915591519182527f17307eab39ab6107e8899845ad3d59bd9653f200f220920489ca2b5937696c31910160405180910390a3505050565b6200328084848462002865565b6200328e84848484620038cf565b62001f405760405162461bcd60e51b815260206004820152603260248201527f4552433732313a207472616e7366657220746f206e6f6e20455243373231526560448201527131b2b4bb32b91034b6b83632b6b2b73a32b960711b6064820152608401620009ff565b6060816200331c5750506040805180820190915260018152600360fc1b602082015290565b8160005b81156200334c5780620033338162004a0f565b9150620033449050600a8362004936565b915062003320565b60008167ffffffffffffffff8111156200337657634e487b7160e01b600052604160045260246000fd5b6040519080825280601f01601f191660200182016040528015620033a1576020820181803683370190505b5090505b84156200285d57620033b96001836200496f565b9150620033c8600a8662004a2d565b620033d59060306200491b565b60f81b818381518110620033f957634e487b7160e01b600052603260045260246000fd5b60200101906001600160f81b031916908160001a9053506200341d600a8662004936565b9450620033a5565b62000a1482826040518060200160405280600081525062003a34565b60006001600160e01b031982167f2a55205a000000000000000000000000000000000000000000000000000000001480620009a157507f01ffc9a7000000000000000000000000000000000000000000000000000000006001600160e01b0319831614620009a1565b60335460ff161580620034eb57503360009081527f5f1b05240646dce1439f42e8a960f7a8d6acf18c7794ead364880e5f74a56273602052604090205460ff165b620035395760405162461bcd60e51b815260206004820152601560248201527f4e6f207065726d697373696f6e20746f2073656e6400000000000000000000006044820152606401620009ff565b60008181526101cc60205260409020546001600160a01b031680158015906200356a57506001600160a01b03841615155b80156200357f57506001600160a01b03831615155b1562001f40576040516351cff8d960e01b815230600482015281906001600160a01b038216906351cff8d990602401600060405180830381600087803b158015620035c957600080fd5b505af1158015620035de573d6000803e3d6000fd5b505050505050505050565b600054610100900460ff16620036565760405162461bcd60e51b815260206004820152602b60248201527f496e697469616c697a61626c653a20636f6e7472616374206973206e6f74206960448201526a6e697469616c697a696e6760a81b6064820152608401620009ff565b81516200366b9060c990602085019062004030565b50805162000c819060ca90602084019062004030565b600054610100900460ff16620036ee5760405162461bcd60e51b815260206004820152602b60248201527f496e697469616c697a61626c653a20636f6e7472616374206973206e6f74206960448201526a6e697469616c697a696e6760a81b6064820152608401620009ff565b62001bd233620030c4565b600054610100900460ff16620037665760405162461bcd60e51b815260206004820152602b60248201527f496e697469616c697a61626c653a20636f6e7472616374206973206e6f74206960448201526a6e697469616c697a696e6760a81b6064820152608401620009ff565b62001bd262003ab8565b600054610100900460ff1662001bd25760405162461bcd60e51b815260206004820152602b60248201527f496e697469616c697a61626c653a20636f6e7472616374206973206e6f74206960448201526a6e697469616c697a696e6760a81b6064820152608401620009ff565b600082815261015f6020526040808220600101805490849055905190918391839186917fbd79b86ffe0ab8e8776151514217cd7cacd52c909f66475c3af44e129f0b00ff9190a4505050565b600082815261015f602090815260408083206001600160a01b038516845290915290205460ff1662000a14576200386b816001600160a01b0316601462003b31565b6200387883602062003b31565b6040516020016200388b929190620047de565b60408051601f198184030181529082905262461bcd60e51b8252620009ff9160040162004906565b620038be8162003d50565b600090815260986020526040812055565b60006001600160a01b0384163b1562003a2957604051630a85bd0160e11b81526001600160a01b0385169063150b7a02906200391690339089908890889060040162004863565b602060405180830381600087803b1580156200393157600080fd5b505af192505050801562003964575060408051601f3d908101601f191682019092526200396191810190620044bc565b60015b62003a0e573d80801562003995576040519150601f19603f3d011682016040523d82523d6000602084013e6200399a565b606091505b50805162003a065760405162461bcd60e51b815260206004820152603260248201527f4552433732313a207472616e7366657220746f206e6f6e20455243373231526560448201527131b2b4bb32b91034b6b83632b6b2b73a32b960711b6064820152608401620009ff565b805181602001fd5b6001600160e01b031916630a85bd0160e11b1490506200285d565b506001949350505050565b62003a40838362003dff565b62003a4f6000848484620038cf565b62000c815760405162461bcd60e51b815260206004820152603260248201527f4552433732313a207472616e7366657220746f206e6f6e20455243373231526560448201527131b2b4bb32b91034b6b83632b6b2b73a32b960711b6064820152608401620009ff565b600054610100900460ff1662003b255760405162461bcd60e51b815260206004820152602b60248201527f496e697469616c697a61626c653a20636f6e7472616374206973206e6f74206960448201526a6e697469616c697a696e6760a81b6064820152608401620009ff565b6033805460ff19169055565b6060600062003b428360026200494d565b62003b4f9060026200491b565b67ffffffffffffffff81111562003b7657634e487b7160e01b600052604160045260246000fd5b6040519080825280601f01601f19166020018201604052801562003ba1576020820181803683370190505b509050600360fc1b8160008151811062003bcb57634e487b7160e01b600052603260045260246000fd5b60200101906001600160f81b031916908160001a9053507f78000000000000000000000000000000000000000000000000000000000000008160018151811062003c2557634e487b7160e01b600052603260045260246000fd5b60200101906001600160f81b031916908160001a905350600062003c4b8460026200494d565b62003c589060016200491b565b90505b600181111562003cff577f303132333435363738396162636465660000000000000000000000000000000085600f166010811062003ca957634e487b7160e01b600052603260045260246000fd5b1a60f81b82828151811062003cce57634e487b7160e01b600052603260045260246000fd5b60200101906001600160f81b031916908160001a90535060049490941c9362003cf781620049b8565b905062003c5b565b508315620023465760405162461bcd60e51b815260206004820181905260248201527f537472696e67733a20686578206c656e67746820696e73756666696369656e746044820152606401620009ff565b600062003d5d8262001a40565b905062003d6d81600084620034aa565b62003d7a6000836200266b565b6001600160a01b038116600090815260cc6020526040812080546001929062003da59084906200496f565b9091555050600082815260cb602052604080822080546001600160a01b0319169055518391906001600160a01b038416907fddf252ad1be2c89b69c2b068fc378daa952ba7f163c4a11628f55a4df523b3ef908390a45050565b6001600160a01b03821662003e575760405162461bcd60e51b815260206004820181905260248201527f4552433732313a206d696e7420746f20746865207a65726f20616464726573736044820152606401620009ff565b600081815260cb60205260409020546001600160a01b03161562003ebe5760405162461bcd60e51b815260206004820152601c60248201527f4552433732313a20746f6b656e20616c7265616479206d696e746564000000006044820152606401620009ff565b62003ecc60008383620034aa565b6001600160a01b038216600090815260cc6020526040812080546001929062003ef79084906200491b565b9091555050600081815260cb602052604080822080546001600160a01b0319166001600160a01b03861690811790915590518392907fddf252ad1be2c89b69c2b068fc378daa952ba7f163c4a11628f55a4df523b3ef908290a45050565b6103528062004aad83390190565b82805482825590600052602060002090810192821562003fa1579160200282015b8281111562003fa157825182559160200191906001019062003f84565b5062003faf929150620040ac565b5090565b82805462003fc190620049d2565b90600052602060002090601f01602090048101928262003fe5576000855562003fa1565b82601f10620040005782800160ff1982351617855562003fa1565b8280016001018555821562003fa1579182015b8281111562003fa157823582559160200191906001019062004013565b8280546200403e90620049d2565b90600052602060002090601f01602090048101928262004062576000855562003fa1565b82601f106200407d57805160ff191683800117855562003fa1565b8280016001018555821562003fa1579182018281111562003fa157825182559160200191906001019062003f84565b5b8082111562003faf5760008155600101620040ad565b600067ffffffffffffffff80841115620040e157620040e162004a70565b604051601f8501601f19908116603f011681019082821181831017156200410c576200410c62004a70565b816040528093508581528686860111156200412657600080fd5b858560208301376000602087830101525050509392505050565b80356001600160a01b038116811462002b8557600080fd5b60008083601f8401126200416a578081fd5b50813567ffffffffffffffff81111562004182578182fd5b6020830191508360208260051b8501011115620014f057600080fd5b80356003811062002b8557600080fd5b600082601f830112620041bf578081fd5b6200234683833560208501620040c3565b600060208284031215620041e2578081fd5b620023468262004140565b6000806040838503121562004200578081fd5b6200420b8362004140565b91506200421b6020840162004140565b90509250929050565b60008060006060848603121562004239578081fd5b620042448462004140565b9250620042546020850162004140565b9150604084013590509250925092565b600080600080608085870312156200427a578081fd5b620042858562004140565b9350620042956020860162004140565b925060408501359150606085013567ffffffffffffffff811115620042b8578182fd5b8501601f81018713620042c9578182fd5b620042da87823560208401620040c3565b91505092959194509250565b60008060408385031215620042f9578182fd5b620043048362004140565b91506020830135620043168162004a86565b809150509250929050565b6000806040838503121562004334578182fd5b6200433f8362004140565b946020939093013593505050565b6000806040838503121562004360578182fd5b6200436b8362004140565b915060208301356bffffffffffffffffffffffff8116811462004316578182fd5b600080602083850312156200439f578182fd5b823567ffffffffffffffff811115620043b6578283fd5b620043c48582860162004158565b90969095509350505050565b60008060008060408587031215620043e6578182fd5b843567ffffffffffffffff80821115620043fe578384fd5b6200440c8883890162004158565b9096509450602087013591508082111562004425578384fd5b50620044348782880162004158565b95989497509550505050565b60006020828403121562004452578081fd5b8151620023468162004a86565b60006020828403121562004471578081fd5b5035919050565b600080604083850312156200448b578182fd5b823591506200421b6020840162004140565b600060208284031215620044af578081fd5b8135620023468162004a95565b600060208284031215620044ce578081fd5b8151620023468162004a95565b600060208284031215620044ed578081fd5b62002346826200419e565b6000806000606084860312156200450d578081fd5b62004518846200419e565b9250620045286020850162004140565b9150620045386040850162004140565b90509250925092565b6000806020838503121562004554578182fd5b823567ffffffffffffffff808211156200456c578384fd5b818501915085601f83011262004580578384fd5b8135818111156200458f578485fd5b866020828501011115620045a1578485fd5b60209290920196919550909350505050565b6000806000806000806000806000806101408b8d031215620045d3578788fd5b8a3567ffffffffffffffff80821115620045eb57898afd5b620045f98e838f01620041ae565b9b5060208d01359150808211156200460f57898afd5b506200461e8d828e01620041ae565b9950506200462f60408c0162004140565b97506200463f60608c0162004140565b999c989b50969960808101359860a0820135985060c0820135975060e082013596506101008201359550610120909101359350915050565b600080604083850312156200468a578182fd5b823561ffff811681146200433f578283fd5b600060208284031215620046ae578081fd5b5051919050565b60008060408385031215620046c8578182fd5b50508035926020909101359150565b60008151808452620046f181602086016020860162004989565b601f01601f19169290920160200192915050565b8054600090600181811c90808316806200472057607f831692505b60208084108214156200474157634e487b7160e01b86526022600452602486fd5b8180156200475857600181146200476a5762004799565b60ff1986168952848901965062004799565b60008881526020902060005b86811015620047915781548b82015290850190830162004776565b505084890196505b50505050505092915050565b6000620047b3828662004705565b8451620047c581836020890162004989565b620047d38183018662004705565b979650505050505050565b7f416363657373436f6e74726f6c3a206163636f756e74200000000000000000008152600083516200481881601785016020880162004989565b7f206973206d697373696e6720726f6c652000000000000000000000000000000060179184019182015283516200485781602884016020880162004989565b01602801949350505050565b60006001600160a01b03808716835280861660208401525083604083015260806060830152620048976080830184620046d7565b9695505050505050565b6001600160a01b03831681526040602082015260006200285d6040830184620046d7565b6060810160038510620048e857634e487b7160e01b600052602160045260246000fd5b9381526001600160a01b039283166020820152911660409091015290565b602081526000620023466020830184620046d7565b6000821982111562004931576200493162004a44565b500190565b60008262004948576200494862004a5a565b500490565b60008160001904831182151516156200496a576200496a62004a44565b500290565b60008282101562004984576200498462004a44565b500390565b60005b83811015620049a65781810151838201526020016200498c565b8381111562001f405750506000910152565b600081620049ca57620049ca62004a44565b506000190190565b600181811c90821680620049e757607f821691505b6020821081141562004a0957634e487b7160e01b600052602260045260246000fd5b50919050565b600060001982141562004a265762004a2662004a44565b5060010190565b60008262004a3f5762004a3f62004a5a565b500690565b634e487b7160e01b600052601160045260246000fd5b634e487b7160e01b600052601260045260246000fd5b634e487b7160e01b600052604160045260246000fd5b80151581146200191157600080fd5b6001600160e01b0319811681146200191157600080fdfe60a060405234801561001057600080fd5b5060405161035238038061035283398101604081905261002f916100d7565b6001600160601b0319606083901b1660805260405160009081906001600160a01b0385169061005f9085906101a0565b600060405180830381855af49150503d806000811461009a576040519150601f19603f3d011682016040523d82523d6000602084013e61009f565b606091505b50915091508181906100cd5760405162461bcd60e51b81526004016100c491906101bc565b60405180910390fd5b5050505050610235565b600080604083850312156100e9578182fd5b82516001600160a01b03811681146100ff578283fd5b60208401519092506001600160401b038082111561011b578283fd5b818501915085601f83011261012e578283fd5b8151818111156101405761014061021f565b604051601f8201601f19908116603f011681019083821181831017156101685761016861021f565b81604052828152886020848701011115610180578586fd5b6101918360208301602088016101ef565b80955050505050509250929050565b600082516101b28184602087016101ef565b9190910192915050565b60208152600082518060208401526101db8160408501602087016101ef565b601f01601f19169190910160400192915050565b60005b8381101561020a5781810151838201526020016101f2565b83811115610219576000848401525b50505050565b634e487b7160e01b600052604160045260246000fd5b60805160601c60fc61025660003960008181602a0152607b015260fc6000f3fe608060405260043610601f5760003560e01c8063d7dfa0dd14606b576025565b36602557005b6040517f00000000000000000000000000000000000000000000000000000000000000009036600082376000803683855af43d806000843e8180156067578184f35b8184fd5b348015607657600080fd5b50609d7f000000000000000000000000000000000000000000000000000000000000000081565b60405173ffffffffffffffffffffffffffffffffffffffff909116815260200160405180910390f3fea264697066735822122044f1b562fbad4ecd11b96ac178950ce7e00045c4bc97024871f36416b15b86e064736f6c63430008040033a264697066735822122078c0f12576b1b55aee9153fd60f9af7a7f084ea6289e270129946fafc50ffa3e64736f6c63430008040033",
  "linkReferences": {},
  "deployedLinkReferences": {}
}