{
  "_format": "hh-sol-artifact-1",
  "contractName": "PartiallyPausableUpgradeable",
  "sourceName": "contracts/lib/PartiallyPausableUpgradeable.sol",
  "abi": [
    {
      "anonymous": false,
      "inputs": [
        {
          "indexed": false,
          "internalType": "uint8",
          "name": "version",
          "type": "uint8"
        }
      ],
      "name": "Initialized",
      "type": "event"
    },
    {
      "anonymous": false,
      "inputs": [
        {
          "indexed": false,
          "internalType": "address",
          "name": "account",
          "type": "address"
        }
      ],
      "name": "Paused",
      "type": "event"
    },
    {
      "anonymous": false,
      "inputs": [
        {
          "indexed": true,
          "internalType": "bytes32",
          "name": "role",
          "type": "bytes32"
        },
        {
          "indexed": true,
          "internalType": "bytes32",
          "name": "previousAdminRole",
          "type": "bytes32"
        },
        {
          "indexed": true,
          "internalType": "bytes32",
          "name": "newAdminRole",
          "type": "bytes32"
        }
      ],
      "name": "RoleAdminChanged",
      "type": "event"
    },
    {
      "anonymous": false,
      "inputs": [
        {
          "indexed": true,
          "internalType": "bytes32",
          "name": "role",
          "type": "bytes32"
        },
        {
          "indexed": true,
          "internalType": "address",
          "name": "account",
          "type": "address"
        },
        {
          "indexed": true,
          "internalType": "address",
          "name": "sender",
          "type": "address"
        }
      ],
      "name": "RoleGranted",
      "type": "event"
    },
    {
      "anonymous": false,
      "inputs": [
        {
          "indexed": true,
          "internalType": "bytes32",
          "name": "role",
          "type": "bytes32"
        },
        {
          "indexed": true,
          "internalType": "address",
          "name": "account",
          "type": "address"
        },
        {
          "indexed": true,
          "internalType": "address",
          "name": "sender",
          "type": "address"
        }
      ],
      "name": "RoleRevoked",
      "type": "event"
    },
    {
      "anonymous": false,
      "inputs": [
        {
          "indexed": false,
          "internalType": "address",
          "name": "account",
          "type": "address"
        }
      ],
      "name": "Unpaused",
      "type": "event"
    },
    {
      "inputs": [],
      "name": "DEFAULT_ADMIN_ROLE",
      "outputs": [
        {
          "internalType": "bytes32",
          "name": "",
          "type": "bytes32"
        }
      ],
      "stateMutability": "view",
      "type": "function"
    },
    {
      "inputs": [],
      "name": "SENDER_ROLE",
      "outputs": [
        {
          "internalType": "bytes32",
          "name": "",
          "type": "bytes32"
        }
      ],
      "stateMutability": "view",
      "type": "function"
    },
    {
      "inputs": [],
      "name": "SUPPORT_ROLE",
      "outputs": [
        {
          "internalType": "bytes32",
          "name": "",
          "type": "bytes32"
        }
      ],
      "stateMutability": "view",
      "type": "function"
    },
    {
      "inputs": [
        {
          "internalType": "address",
          "name": "sender",
          "type": "address"
        }
      ],
      "name": "addSender",
      "outputs": [],
      "stateMutability": "nonpayable",
      "type": "function"
    },
    {
      "inputs": [
        {
          "internalType": "bytes32",
          "name": "role",
          "type": "bytes32"
        }
      ],
      "name": "getRoleAdmin",
      "outputs": [
        {
          "internalType": "bytes32",
          "name": "",
          "type": "bytes32"
        }
      ],
      "stateMutability": "view",
      "type": "function"
    },
    {
      "inputs": [
        {
          "internalType": "bytes32",
          "name": "role",
          "type": "bytes32"
        },
        {
          "internalType": "address",
          "name": "account",
          "type": "address"
        }
      ],
      "name": "grantRole",
      "outputs": [],
      "stateMutability": "nonpayable",
      "type": "function"
    },
    {
      "inputs": [
        {
          "internalType": "bytes32",
          "name": "role",
          "type": "bytes32"
        },
        {
          "internalType": "address",
          "name": "account",
          "type": "address"
        }
      ],
      "name": "hasRole",
      "outputs": [
        {
          "internalType": "bool",
          "name": "",
          "type": "bool"
        }
      ],
      "stateMutability": "view",
      "type": "function"
    },
    {
      "inputs": [],
      "name": "ownerAddress",
      "outputs": [
        {
          "internalType": "address",
          "name": "",
          "type": "address"
        }
      ],
      "stateMutability": "view",
      "type": "function"
    },
    {
      "inputs": [],
      "name": "pause",
      "outputs": [],
      "stateMutability": "nonpayable",
      "type": "function"
    },
    {
      "inputs": [],
      "name": "paused",
      "outputs": [
        {
          "internalType": "bool",
          "name": "",
          "type": "bool"
        }
      ],
      "stateMutability": "view",
      "type": "function"
    },
    {
      "inputs": [
        {
          "internalType": "address",
          "name": "sender",
          "type": "address"
        }
      ],
      "name": "removeSender",
      "outputs": [],
      "stateMutability": "nonpayable",
      "type": "function"
    },
    {
      "inputs": [
        {
          "internalType": "bytes32",
          "name": "role",
          "type": "bytes32"
        },
        {
          "internalType": "address",
          "name": "account",
          "type": "address"
        }
      ],
      "name": "renounceRole",
      "outputs": [],
      "stateMutability": "nonpayable",
      "type": "function"
    },
    {
      "inputs": [],
      "name": "renounceSupport",
      "outputs": [],
      "stateMutability": "nonpayable",
      "type": "function"
    },
    {
      "inputs": [
        {
          "internalType": "bytes32",
          "name": "role",
          "type": "bytes32"
        },
        {
          "internalType": "address",
          "name": "account",
          "type": "address"
        }
      ],
      "name": "revokeRole",
      "outputs": [],
      "stateMutability": "nonpayable",
      "type": "function"
    },
    {
      "inputs": [
        {
          "internalType": "bytes4",
          "name": "interfaceId",
          "type": "bytes4"
        }
      ],
      "name": "supportsInterface",
      "outputs": [
        {
          "internalType": "bool",
          "name": "",
          "type": "bool"
        }
      ],
      "stateMutability": "view",
      "type": "function"
    },
    {
      "inputs": [],
      "name": "unpause",
      "outputs": [],
      "stateMutability": "nonpayable",
      "type": "function"
    }
  ],
  "bytecode": "0x608060405234801561001057600080fd5b50610c34806100206000396000f3fe608060405234801561001057600080fd5b50600436106101005760003560e01c806391d1485411610097578063b697f53111610066578063b697f53114610247578063c42ef38c1461025a578063d547741f14610281578063df01441a1461029457600080fd5b806391d14854146101cc57806394b059ab14610205578063a217fddf1461022c578063b2f876431461023457600080fd5b80633f4ba83a116100d35780633f4ba83a146101865780635c975abb1461018e5780638456cb59146101995780638f84aa09146101a157600080fd5b806301ffc9a714610105578063248a9ca31461012d5780632f2ff15d1461015e57806336568abe14610173575b600080fd5b610118610113366004610a76565b61029c565b60405190151581526020015b60405180910390f35b61015061013b366004610a33565b60009081526097602052604090206001015490565b604051908152602001610124565b61017161016c366004610a4b565b610335565b005b610171610181366004610a4b565b61035f565b6101716103f0565b60335460ff16610118565b610171610425565b60c9546101b4906001600160a01b031681565b6040516001600160a01b039091168152602001610124565b6101186101da366004610a4b565b60009182526097602090815260408084206001600160a01b0393909316845291905290205460ff1690565b6101507fe1bb029b7f4f8898e3ea44ceab083b5d93b14e8dd01ea4b170b110de8472fe6481565b610150600081565b610171610242366004610a19565b610457565b610171610255366004610a19565b610481565b6101507f76d12de99ad2ca162840505be9b657c2e7a650cc3ee0284048f3f9def3c1adf281565b61017161028f366004610a4b565b6104ab565b6101716104d0565b60007fffffffff0000000000000000000000000000000000000000000000000000000082167f7965db0b00000000000000000000000000000000000000000000000000000000148061032f57507f01ffc9a7000000000000000000000000000000000000000000000000000000007fffffffff000000000000000000000000000000000000000000000000000000008316145b92915050565b600082815260976020526040902060010154610350816104fc565b61035a8383610506565b505050565b6001600160a01b03811633146103e25760405162461bcd60e51b815260206004820152602f60248201527f416363657373436f6e74726f6c3a2063616e206f6e6c792072656e6f756e636560448201527f20726f6c657320666f722073656c66000000000000000000000000000000000060648201526084015b60405180910390fd5b6103ec82826105a8565b5050565b7fe1bb029b7f4f8898e3ea44ceab083b5d93b14e8dd01ea4b170b110de8472fe6461041a816104fc565b61042261062b565b50565b7fe1bb029b7f4f8898e3ea44ceab083b5d93b14e8dd01ea4b170b110de8472fe6461044f816104fc565b6104226106c7565b6104227f76d12de99ad2ca162840505be9b657c2e7a650cc3ee0284048f3f9def3c1adf2826104ab565b6104227f76d12de99ad2ca162840505be9b657c2e7a650cc3ee0284048f3f9def3c1adf282610335565b6000828152609760205260409020600101546104c6816104fc565b61035a83836105a8565b6104fa7fe1bb029b7f4f8898e3ea44ceab083b5d93b14e8dd01ea4b170b110de8472fe643361035f565b565b610422813361074f565b60008281526097602090815260408083206001600160a01b038516845290915290205460ff166103ec5760008281526097602090815260408083206001600160a01b03851684529091529020805460ff191660011790556105643390565b6001600160a01b0316816001600160a01b0316837f2f8788117e7eff1d82e926ec794901d17c78024a50270940304540a733656f0d60405160405180910390a45050565b60008281526097602090815260408083206001600160a01b038516845290915290205460ff16156103ec5760008281526097602090815260408083206001600160a01b0385168085529252808320805460ff1916905551339285917ff6391f5c32d9c69d2a47ea670b442974b53935d1edc7fd64eb21e047a839171b9190a45050565b60335460ff1661067d5760405162461bcd60e51b815260206004820152601460248201527f5061757361626c653a206e6f742070617573656400000000000000000000000060448201526064016103d9565b6033805460ff191690557f5db9ee0a495bf2e6ff9c91a7834c1ba4fdd244a5e8aa4e537bd38aeae4b073aa335b6040516001600160a01b03909116815260200160405180910390a1565b60335460ff161561071a5760405162461bcd60e51b815260206004820152601060248201527f5061757361626c653a207061757365640000000000000000000000000000000060448201526064016103d9565b6033805460ff191660011790557f62e78cea01bee320cd4e420270b5ea74000d11b0c9f74754ebdbfc544b05a2586106aa3390565b60008281526097602090815260408083206001600160a01b038516845290915290205460ff166103ec5761078d816001600160a01b031660146107cf565b6107988360206107cf565b6040516020016107a9929190610ab6565b60408051601f198184030181529082905262461bcd60e51b82526103d991600401610b37565b606060006107de836002610b82565b6107e9906002610b6a565b67ffffffffffffffff81111561080f57634e487b7160e01b600052604160045260246000fd5b6040519080825280601f01601f191660200182016040528015610839576020820181803683370190505b5090507f30000000000000000000000000000000000000000000000000000000000000008160008151811061087e57634e487b7160e01b600052603260045260246000fd5b60200101906001600160f81b031916908160001a9053507f7800000000000000000000000000000000000000000000000000000000000000816001815181106108d757634e487b7160e01b600052603260045260246000fd5b60200101906001600160f81b031916908160001a90535060006108fb846002610b82565b610906906001610b6a565b90505b60018111156109a7577f303132333435363738396162636465660000000000000000000000000000000085600f166010811061095557634e487b7160e01b600052603260045260246000fd5b1a60f81b82828151811061097957634e487b7160e01b600052603260045260246000fd5b60200101906001600160f81b031916908160001a90535060049490941c936109a081610bd1565b9050610909565b5083156109f65760405162461bcd60e51b815260206004820181905260248201527f537472696e67733a20686578206c656e67746820696e73756666696369656e7460448201526064016103d9565b9392505050565b80356001600160a01b0381168114610a1457600080fd5b919050565b600060208284031215610a2a578081fd5b6109f6826109fd565b600060208284031215610a44578081fd5b5035919050565b60008060408385031215610a5d578081fd5b82359150610a6d602084016109fd565b90509250929050565b600060208284031215610a87578081fd5b81357fffffffff00000000000000000000000000000000000000000000000000000000811681146109f6578182fd5b7f416363657373436f6e74726f6c3a206163636f756e7420000000000000000000815260008351610aee816017850160208801610ba1565b7f206973206d697373696e6720726f6c65200000000000000000000000000000006017918401918201528351610b2b816028840160208801610ba1565b01602801949350505050565b6020815260008251806020840152610b56816040850160208701610ba1565b601f01601f19169190910160400192915050565b60008219821115610b7d57610b7d610be8565b500190565b6000816000190483118215151615610b9c57610b9c610be8565b500290565b60005b83811015610bbc578181015183820152602001610ba4565b83811115610bcb576000848401525b50505050565b600081610be057610be0610be8565b506000190190565b634e487b7160e01b600052601160045260246000fdfea26469706673582212209c2002e8858c5536bdf096d3d2de2540b908363012eca3ab50344bcbe6c0d07664736f6c63430008040033",
  "linkReferences": {},
  "deployedLinkReferences": {}
}