{
  "_format": "hh-sol-artifact-1",
  "contractName": "ERC721ArtNFT",
  "sourceName": "contracts/nfts/ERC721ArtNFT.sol",
  "abi": [
    {
      "inputs": [
        {
          "internalType": "address payable",
          "name": "receiverAddress_",
          "type": "address"
        }
      ],
      "stateMutability": "nonpayable",
      "type": "constructor"
    },
    {
      "anonymous": false,
      "inputs": [
        {
          "indexed": true,
          "internalType": "address",
          "name": "owner",
          "type": "address"
        },
        {
          "indexed": true,
          "internalType": "address",
          "name": "approved",
          "type": "address"
        },
        {
          "indexed": true,
          "internalType": "uint256",
          "name": "tokenId",
          "type": "uint256"
        }
      ],
      "name": "Approval",
      "type": "event"
    },
    {
      "anonymous": false,
      "inputs": [
        {
          "indexed": true,
          "internalType": "address",
          "name": "owner",
          "type": "address"
        },
        {
          "indexed": true,
          "internalType": "address",
          "name": "operator",
          "type": "address"
        },
        {
          "indexed": false,
          "internalType": "bool",
          "name": "approved",
          "type": "bool"
        }
      ],
      "name": "ApprovalForAll",
      "type": "event"
    },
    {
      "anonymous": false,
      "inputs": [
        {
          "indexed": true,
          "internalType": "address",
          "name": "previousOwner",
          "type": "address"
        },
        {
          "indexed": true,
          "internalType": "address",
          "name": "newOwner",
          "type": "address"
        }
      ],
      "name": "OwnershipTransferred",
      "type": "event"
    },
    {
      "anonymous": false,
      "inputs": [
        {
          "indexed": true,
          "internalType": "address",
          "name": "from",
          "type": "address"
        },
        {
          "indexed": true,
          "internalType": "address",
          "name": "to",
          "type": "address"
        },
        {
          "indexed": true,
          "internalType": "uint256",
          "name": "tokenId",
          "type": "uint256"
        }
      ],
      "name": "Transfer",
      "type": "event"
    },
    {
      "inputs": [
        {
          "internalType": "address",
          "name": "to",
          "type": "address"
        },
        {
          "internalType": "uint256",
          "name": "tokenId",
          "type": "uint256"
        }
      ],
      "name": "approve",
      "outputs": [],
      "stateMutability": "nonpayable",
      "type": "function"
    },
    {
      "inputs": [
        {
          "internalType": "address",
          "name": "owner",
          "type": "address"
        }
      ],
      "name": "balanceOf",
      "outputs": [
        {
          "internalType": "uint256",
          "name": "",
          "type": "uint256"
        }
      ],
      "stateMutability": "view",
      "type": "function"
    },
    {
      "inputs": [],
      "name": "deleteDefaultRoyalty",
      "outputs": [],
      "stateMutability": "nonpayable",
      "type": "function"
    },
    {
      "inputs": [
        {
          "internalType": "uint256",
          "name": "tokenId",
          "type": "uint256"
        }
      ],
      "name": "getApproved",
      "outputs": [
        {
          "internalType": "address",
          "name": "",
          "type": "address"
        }
      ],
      "stateMutability": "view",
      "type": "function"
    },
    {
      "inputs": [
        {
          "internalType": "address",
          "name": "owner",
          "type": "address"
        },
        {
          "internalType": "address",
          "name": "operator",
          "type": "address"
        }
      ],
      "name": "isApprovedForAll",
      "outputs": [
        {
          "internalType": "bool",
          "name": "",
          "type": "bool"
        }
      ],
      "stateMutability": "view",
      "type": "function"
    },
    {
      "inputs": [
        {
          "internalType": "address",
          "name": "to",
          "type": "address"
        }
      ],
      "name": "mint",
      "outputs": [],
      "stateMutability": "nonpayable",
      "type": "function"
    },
    {
      "inputs": [],
      "name": "name",
      "outputs": [
        {
          "internalType": "string",
          "name": "",
          "type": "string"
        }
      ],
      "stateMutability": "view",
      "type": "function"
    },
    {
      "inputs": [],
      "name": "owner",
      "outputs": [
        {
          "internalType": "address",
          "name": "",
          "type": "address"
        }
      ],
      "stateMutability": "view",
      "type": "function"
    },
    {
      "inputs": [
        {
          "internalType": "uint256",
          "name": "tokenId",
          "type": "uint256"
        }
      ],
      "name": "ownerOf",
      "outputs": [
        {
          "internalType": "address",
          "name": "",
          "type": "address"
        }
      ],
      "stateMutability": "view",
      "type": "function"
    },
    {
      "inputs": [],
      "name": "receiverAddress",
      "outputs": [
        {
          "internalType": "address payable",
          "name": "",
          "type": "address"
        }
      ],
      "stateMutability": "view",
      "type": "function"
    },
    {
      "inputs": [],
      "name": "renounceOwnership",
      "outputs": [],
      "stateMutability": "nonpayable",
      "type": "function"
    },
    {
      "inputs": [
        {
          "internalType": "uint256",
          "name": "tokenId",
          "type": "uint256"
        }
      ],
      "name": "resetTokenRoyalty",
      "outputs": [],
      "stateMutability": "nonpayable",
      "type": "function"
    },
    {
      "inputs": [
        {
          "internalType": "uint256",
          "name": "_tokenId",
          "type": "uint256"
        },
        {
          "internalType": "uint256",
          "name": "_salePrice",
          "type": "uint256"
        }
      ],
      "name": "royaltyInfo",
      "outputs": [
        {
          "internalType": "address",
          "name": "",
          "type": "address"
        },
        {
          "internalType": "uint256",
          "name": "",
          "type": "uint256"
        }
      ],
      "stateMutability": "view",
      "type": "function"
    },
    {
      "inputs": [
        {
          "internalType": "address",
          "name": "from",
          "type": "address"
        },
        {
          "internalType": "address",
          "name": "to",
          "type": "address"
        },
        {
          "internalType": "uint256",
          "name": "tokenId",
          "type": "uint256"
        }
      ],
      "name": "safeTransferFrom",
      "outputs": [],
      "stateMutability": "nonpayable",
      "type": "function"
    },
    {
      "inputs": [
        {
          "internalType": "address",
          "name": "from",
          "type": "address"
        },
        {
          "internalType": "address",
          "name": "to",
          "type": "address"
        },
        {
          "internalType": "uint256",
          "name": "tokenId",
          "type": "uint256"
        },
        {
          "internalType": "bytes",
          "name": "_data",
          "type": "bytes"
        }
      ],
      "name": "safeTransferFrom",
      "outputs": [],
      "stateMutability": "nonpayable",
      "type": "function"
    },
    {
      "inputs": [
        {
          "internalType": "address",
          "name": "operator",
          "type": "address"
        },
        {
          "internalType": "bool",
          "name": "approved",
          "type": "bool"
        }
      ],
      "name": "setApprovalForAll",
      "outputs": [],
      "stateMutability": "nonpayable",
      "type": "function"
    },
    {
      "inputs": [
        {
          "internalType": "string",
          "name": "tokenBaseURI_",
          "type": "string"
        }
      ],
      "name": "setBaseURI",
      "outputs": [],
      "stateMutability": "nonpayable",
      "type": "function"
    },
    {
      "inputs": [
        {
          "internalType": "address",
          "name": "receiver",
          "type": "address"
        },
        {
          "internalType": "uint96",
          "name": "feeNumerator",
          "type": "uint96"
        }
      ],
      "name": "setDefaultRoyalty",
      "outputs": [],
      "stateMutability": "nonpayable",
      "type": "function"
    },
    {
      "inputs": [
        {
          "internalType": "uint256",
          "name": "tokenId",
          "type": "uint256"
        },
        {
          "internalType": "address",
          "name": "receiver",
          "type": "address"
        },
        {
          "internalType": "uint96",
          "name": "feeNumerator",
          "type": "uint96"
        }
      ],
      "name": "setTokenRoyalty",
      "outputs": [],
      "stateMutability": "nonpayable",
      "type": "function"
    },
    {
      "inputs": [
        {
          "internalType": "bytes4",
          "name": "interfaceId",
          "type": "bytes4"
        }
      ],
      "name": "supportsInterface",
      "outputs": [
        {
          "internalType": "bool",
          "name": "",
          "type": "bool"
        }
      ],
      "stateMutability": "view",
      "type": "function"
    },
    {
      "inputs": [],
      "name": "symbol",
      "outputs": [
        {
          "internalType": "string",
          "name": "",
          "type": "string"
        }
      ],
      "stateMutability": "view",
      "type": "function"
    },
    {
      "inputs": [],
      "name": "tokenIdCounter",
      "outputs": [
        {
          "internalType": "uint256",
          "name": "_value",
          "type": "uint256"
        }
      ],
      "stateMutability": "view",
      "type": "function"
    },
    {
      "inputs": [
        {
          "internalType": "uint256",
          "name": "tokenId",
          "type": "uint256"
        }
      ],
      "name": "tokenURI",
      "outputs": [
        {
          "internalType": "string",
          "name": "",
          "type": "string"
        }
      ],
      "stateMutability": "view",
      "type": "function"
    },
    {
      "inputs": [
        {
          "internalType": "address",
          "name": "from",
          "type": "address"
        },
        {
          "internalType": "address",
          "name": "to",
          "type": "address"
        },
        {
          "internalType": "uint256",
          "name": "tokenId",
          "type": "uint256"
        }
      ],
      "name": "transferFrom",
      "outputs": [],
      "stateMutability": "nonpayable",
      "type": "function"
    },
    {
      "inputs": [
        {
          "internalType": "address",
          "name": "newOwner",
          "type": "address"
        }
      ],
      "name": "transferOwnership",
      "outputs": [],
      "stateMutability": "nonpayable",
      "type": "function"
    },
    {
      "inputs": [],
      "name": "withdraw",
      "outputs": [],
      "stateMutability": "nonpayable",
      "type": "function"
    }
  ],
  "bytecode": "0x60e0604052600560a081905264173539b7b760d91b60c09081526200002891600b9190620001a5565b503480156200003657600080fd5b506040516200251a3803806200251a83398101604081905262000059916200024b565b604080518082018252600d81526c10dbcb535d5cd95d5b48105c9d609a1b602080830191825283518085019094526005845264434f4d554160d81b908401528151919291620000ab91600291620001a5565b508051620000c1906003906020840190620001a5565b505050620000de620000d86200014f60201b60201c565b62000153565b6001600160a01b038116620001395760405162461bcd60e51b815260206004820152601560248201527f52656365697665722063616e2774206265203078300000000000000000000000604482015260640160405180910390fd5b60601b6001600160601b031916608052620002b8565b3390565b600880546001600160a01b038381166001600160a01b0319831681179093556040519116919082907f8be0079c531659141344cd1fd0a4f28419497f9722a3daafe3b4186f6b6457e090600090a35050565b828054620001b3906200027b565b90600052602060002090601f016020900481019282620001d7576000855562000222565b82601f10620001f257805160ff191683800117855562000222565b8280016001018555821562000222579182015b828111156200022257825182559160200191906001019062000205565b506200023092915062000234565b5090565b5b8082111562000230576000815560010162000235565b6000602082840312156200025d578081fd5b81516001600160a01b038116811462000274578182fd5b9392505050565b600181811c908216806200029057607f821691505b60208210811415620002b257634e487b7160e01b600052602260045260246000fd5b50919050565b60805160601c61223c620002de60003960008181610248015261088a015261223c6000f3fe608060405234801561001057600080fd5b50600436106101ae5760003560e01c80636a627842116100ee57806398bdf6f511610097578063b88d4fde11610071578063b88d4fde14610390578063c87b56dd146103a3578063e985e9c5146103b6578063f2fde38b146103f257600080fd5b806398bdf6f51461036b578063a22cb46514610375578063aa1b103f1461038857600080fd5b80638a616bc0116100c85780638a616bc01461033f5780638da5cb5b1461035257806395d89b411461036357600080fd5b80636a6278421461030357806370a0823114610316578063715018a61461033757600080fd5b806323b872dd1161015b57806342842e0e1161013557806342842e0e146102b757806355f804b3146102ca5780635944c753146102dd5780636352211e146102f057600080fd5b806323b872dd1461026a5780632a55205a1461027d5780633ccfd60b146102af57600080fd5b8063081812fc1161018c578063081812fc14610205578063095ea7b31461023057806316fed3e21461024357600080fd5b806301ffc9a7146101b357806304634d8d146101db57806306fdde03146101f0575b600080fd5b6101c66101c1366004611e57565b610405565b60405190151581526020015b60405180910390f35b6101ee6101e9366004611e2e565b610416565b005b6101f8610483565b6040516101d291906120a3565b610218610213366004611efc565b610515565b6040516001600160a01b0390911681526020016101d2565b6101ee61023e366004611e05565b6105aa565b6102187f000000000000000000000000000000000000000000000000000000000000000081565b6101ee610278366004611cbb565b6106dc565b61029061028b366004611f4f565b610763565b604080516001600160a01b0390931683526020830191909152016101d2565b6101ee61081e565b6101ee6102c5366004611cbb565b61093b565b6101ee6102d8366004611e8f565b610956565b6101ee6102eb366004611f14565b6109bc565b6102186102fe366004611efc565b610a21565b6101ee610311366004611c68565b610aac565b610329610324366004611c68565b610b29565b6040519081526020016101d2565b6101ee610bc3565b6101ee61034d366004611efc565b610c29565b6008546001600160a01b0316610218565b6101f8610c94565b6009546103299081565b6101ee610383366004611dcb565b610ca3565b6101ee610cae565b6101ee61039e366004611cf6565b610d11565b6101f86103b1366004611efc565b610d9f565b6101c66103c4366004611c89565b6001600160a01b03918216600090815260076020908152604080832093909416825291909152205460ff1690565b6101ee610400366004611c68565b610e3b565b600061041082610f1a565b92915050565b6008546001600160a01b031633146104755760405162461bcd60e51b815260206004820181905260248201527f4f776e61626c653a2063616c6c6572206973206e6f7420746865206f776e657260448201526064015b60405180910390fd5b61047f8282610f8c565b5050565b60606002805461049290612144565b80601f01602080910402602001604051908101604052809291908181526020018280546104be90612144565b801561050b5780601f106104e05761010080835404028352916020019161050b565b820191906000526020600020905b8154815290600101906020018083116104ee57829003601f168201915b5050505050905090565b6000818152600460205260408120546001600160a01b031661058e5760405162461bcd60e51b815260206004820152602c60248201527f4552433732313a20617070726f76656420717565727920666f72206e6f6e657860448201526b34b9ba32b73a103a37b5b2b760a11b606482015260840161046c565b506000908152600660205260409020546001600160a01b031690565b60006105b582610a21565b9050806001600160a01b0316836001600160a01b0316141561063f5760405162461bcd60e51b815260206004820152602160248201527f4552433732313a20617070726f76616c20746f2063757272656e74206f776e6560448201527f7200000000000000000000000000000000000000000000000000000000000000606482015260840161046c565b336001600160a01b038216148061065b575061065b81336103c4565b6106cd5760405162461bcd60e51b815260206004820152603860248201527f4552433732313a20617070726f76652063616c6c6572206973206e6f74206f7760448201527f6e6572206e6f7220617070726f76656420666f7220616c6c0000000000000000606482015260840161046c565b6106d78383611093565b505050565b6106e6338261110e565b6107585760405162461bcd60e51b815260206004820152603160248201527f4552433732313a207472616e736665722063616c6c6572206973206e6f74206f60448201527f776e6572206e6f7220617070726f766564000000000000000000000000000000606482015260840161046c565b6106d7838383611205565b60008281526001602090815260408083208151808301909252546001600160a01b038116808352600160a01b9091046bffffffffffffffffffffffff169282019290925282916107e25750604080518082019091526000546001600160a01b0381168252600160a01b90046bffffffffffffffffffffffff1660208201525b602081015160009061271090610806906bffffffffffffffffffffffff16876120e2565b61081091906120ce565b915196919550909350505050565b6008546001600160a01b031633146108785760405162461bcd60e51b815260206004820181905260248201527f4f776e61626c653a2063616c6c6572206973206e6f7420746865206f776e6572604482015260640161046c565b60405147906000906001600160a01b037f0000000000000000000000000000000000000000000000000000000000000000169083908381818185875af1925050503d80600081146108e5576040519150601f19603f3d011682016040523d82523d6000602084013e6108ea565b606091505b505090508061047f5760405162461bcd60e51b815260206004820152600f60248201527f5769746864726177206661696c65640000000000000000000000000000000000604482015260640161046c565b6106d783838360405180602001604052806000815250610d11565b6008546001600160a01b031633146109b05760405162461bcd60e51b815260206004820181905260248201527f4f776e61626c653a2063616c6c6572206973206e6f7420746865206f776e6572604482015260640161046c565b6106d7600a8383611b97565b6008546001600160a01b03163314610a165760405162461bcd60e51b815260206004820181905260248201527f4f776e61626c653a2063616c6c6572206973206e6f7420746865206f776e6572604482015260640161046c565b6106d78383836113df565b6000818152600460205260408120546001600160a01b0316806104105760405162461bcd60e51b815260206004820152602960248201527f4552433732313a206f776e657220717565727920666f72206e6f6e657869737460448201527f656e7420746f6b656e0000000000000000000000000000000000000000000000606482015260840161046c565b6008546001600160a01b03163314610b065760405162461bcd60e51b815260206004820181905260248201527f4f776e61626c653a2063616c6c6572206973206e6f7420746865206f776e6572604482015260640161046c565b610b14600980546001019055565b610b2681610b2160095490565b6114f7565b50565b60006001600160a01b038216610ba75760405162461bcd60e51b815260206004820152602a60248201527f4552433732313a2062616c616e636520717565727920666f7220746865207a6560448201527f726f206164647265737300000000000000000000000000000000000000000000606482015260840161046c565b506001600160a01b031660009081526005602052604090205490565b6008546001600160a01b03163314610c1d5760405162461bcd60e51b815260206004820181905260248201527f4f776e61626c653a2063616c6c6572206973206e6f7420746865206f776e6572604482015260640161046c565b610c276000611511565b565b6008546001600160a01b03163314610c835760405162461bcd60e51b815260206004820181905260248201527f4f776e61626c653a2063616c6c6572206973206e6f7420746865206f776e6572604482015260640161046c565b600090815260016020526040812055565b60606003805461049290612144565b61047f338383611570565b6008546001600160a01b03163314610d085760405162461bcd60e51b815260206004820181905260248201527f4f776e61626c653a2063616c6c6572206973206e6f7420746865206f776e6572604482015260640161046c565b610c2760008055565b610d1b338361110e565b610d8d5760405162461bcd60e51b815260206004820152603160248201527f4552433732313a207472616e736665722063616c6c6572206973206e6f74206f60448201527f776e6572206e6f7220617070726f766564000000000000000000000000000000606482015260840161046c565b610d998484848461163f565b50505050565b6000818152600460205260409020546060906001600160a01b0316610e065760405162461bcd60e51b815260206004820152601f60248201527f55524920717565727920666f72206e6f6e6578697374656e7420746f6b656e00604482015260640161046c565b600a610e11836116bd565b600b604051602001610e2593929190612034565b6040516020818303038152906040529050919050565b6008546001600160a01b03163314610e955760405162461bcd60e51b815260206004820181905260248201527f4f776e61626c653a2063616c6c6572206973206e6f7420746865206f776e6572604482015260640161046c565b6001600160a01b038116610f115760405162461bcd60e51b815260206004820152602660248201527f4f776e61626c653a206e6577206f776e657220697320746865207a65726f206160448201527f6464726573730000000000000000000000000000000000000000000000000000606482015260840161046c565b610b2681611511565b60006001600160e01b031982167f80ac58cd000000000000000000000000000000000000000000000000000000001480610f7d57506001600160e01b031982167f5b5e139f00000000000000000000000000000000000000000000000000000000145b8061041057506104108261180b565b6127106bffffffffffffffffffffffff82161115610fff5760405162461bcd60e51b815260206004820152602a60248201527f455243323938313a20726f79616c7479206665652077696c6c206578636565646044820152692073616c65507269636560b01b606482015260840161046c565b6001600160a01b0382166110555760405162461bcd60e51b815260206004820152601960248201527f455243323938313a20696e76616c696420726563656976657200000000000000604482015260640161046c565b604080518082019091526001600160a01b039092168083526bffffffffffffffffffffffff9091166020909201829052600160a01b90910217600055565b6000818152600660205260409020805473ffffffffffffffffffffffffffffffffffffffff19166001600160a01b03841690811790915581906110d582610a21565b6001600160a01b03167f8c5be1e5ebec7d5bd14f71427d1e84f3dd0314c0f7b2291e5b200ac8c7c3b92560405160405180910390a45050565b6000818152600460205260408120546001600160a01b03166111875760405162461bcd60e51b815260206004820152602c60248201527f4552433732313a206f70657261746f7220717565727920666f72206e6f6e657860448201526b34b9ba32b73a103a37b5b2b760a11b606482015260840161046c565b600061119283610a21565b9050806001600160a01b0316846001600160a01b031614806111d957506001600160a01b0380821660009081526007602090815260408083209388168352929052205460ff165b806111fd5750836001600160a01b03166111f284610515565b6001600160a01b0316145b949350505050565b826001600160a01b031661121882610a21565b6001600160a01b0316146112945760405162461bcd60e51b815260206004820152602560248201527f4552433732313a207472616e736665722066726f6d20696e636f72726563742060448201527f6f776e6572000000000000000000000000000000000000000000000000000000606482015260840161046c565b6001600160a01b03821661130f5760405162461bcd60e51b8152602060048201526024808201527f4552433732313a207472616e7366657220746f20746865207a65726f2061646460448201527f7265737300000000000000000000000000000000000000000000000000000000606482015260840161046c565b61131a600082611093565b6001600160a01b0383166000908152600560205260408120805460019290611343908490612101565b90915550506001600160a01b03821660009081526005602052604081208054600192906113719084906120b6565b9091555050600081815260046020526040808220805473ffffffffffffffffffffffffffffffffffffffff19166001600160a01b0386811691821790925591518493918716917fddf252ad1be2c89b69c2b068fc378daa952ba7f163c4a11628f55a4df523b3ef91a4505050565b6127106bffffffffffffffffffffffff821611156114525760405162461bcd60e51b815260206004820152602a60248201527f455243323938313a20726f79616c7479206665652077696c6c206578636565646044820152692073616c65507269636560b01b606482015260840161046c565b6001600160a01b0382166114a85760405162461bcd60e51b815260206004820152601b60248201527f455243323938313a20496e76616c696420706172616d65746572730000000000604482015260640161046c565b6040805180820182526001600160a01b0393841681526bffffffffffffffffffffffff92831660208083019182526000968752600190529190942093519051909116600160a01b029116179055565b61047f828260405180602001604052806000815250611872565b600880546001600160a01b0383811673ffffffffffffffffffffffffffffffffffffffff19831681179093556040519116919082907f8be0079c531659141344cd1fd0a4f28419497f9722a3daafe3b4186f6b6457e090600090a35050565b816001600160a01b0316836001600160a01b031614156115d25760405162461bcd60e51b815260206004820152601960248201527f4552433732313a20617070726f766520746f2063616c6c657200000000000000604482015260640161046c565b6001600160a01b03838116600081815260076020908152604080832094871680845294825291829020805460ff191686151590811790915591519182527f17307eab39ab6107e8899845ad3d59bd9653f200f220920489ca2b5937696c31910160405180910390a3505050565b61164a848484611205565b611656848484846118f0565b610d995760405162461bcd60e51b815260206004820152603260248201527f4552433732313a207472616e7366657220746f206e6f6e20455243373231526560448201527131b2b4bb32b91034b6b83632b6b2b73a32b960711b606482015260840161046c565b6060816116fd57505060408051808201909152600181527f3000000000000000000000000000000000000000000000000000000000000000602082015290565b8160005b811561172757806117118161217f565b91506117209050600a836120ce565b9150611701565b60008167ffffffffffffffff81111561175057634e487b7160e01b600052604160045260246000fd5b6040519080825280601f01601f19166020018201604052801561177a576020820181803683370190505b5090505b84156111fd5761178f600183612101565b915061179c600a8661219a565b6117a79060306120b6565b60f81b8183815181106117ca57634e487b7160e01b600052603260045260246000fd5b60200101907effffffffffffffffffffffffffffffffffffffffffffffffffffffffffffff1916908160001a905350611804600a866120ce565b945061177e565b60006001600160e01b031982167f2a55205a00000000000000000000000000000000000000000000000000000000148061041057507f01ffc9a7000000000000000000000000000000000000000000000000000000006001600160e01b0319831614610410565b61187c8383611a48565b61188960008484846118f0565b6106d75760405162461bcd60e51b815260206004820152603260248201527f4552433732313a207472616e7366657220746f206e6f6e20455243373231526560448201527131b2b4bb32b91034b6b83632b6b2b73a32b960711b606482015260840161046c565b60006001600160a01b0384163b15611a3d57604051630a85bd0160e11b81526001600160a01b0385169063150b7a0290611934903390899088908890600401612067565b602060405180830381600087803b15801561194e57600080fd5b505af192505050801561197e575060408051601f3d908101601f1916820190925261197b91810190611e73565b60015b611a23573d8080156119ac576040519150601f19603f3d011682016040523d82523d6000602084013e6119b1565b606091505b508051611a1b5760405162461bcd60e51b815260206004820152603260248201527f4552433732313a207472616e7366657220746f206e6f6e20455243373231526560448201527131b2b4bb32b91034b6b83632b6b2b73a32b960711b606482015260840161046c565b805181602001fd5b6001600160e01b031916630a85bd0160e11b1490506111fd565b506001949350505050565b6001600160a01b038216611a9e5760405162461bcd60e51b815260206004820181905260248201527f4552433732313a206d696e7420746f20746865207a65726f2061646472657373604482015260640161046c565b6000818152600460205260409020546001600160a01b031615611b035760405162461bcd60e51b815260206004820152601c60248201527f4552433732313a20746f6b656e20616c7265616479206d696e74656400000000604482015260640161046c565b6001600160a01b0382166000908152600560205260408120805460019290611b2c9084906120b6565b9091555050600081815260046020526040808220805473ffffffffffffffffffffffffffffffffffffffff19166001600160a01b03861690811790915590518392907fddf252ad1be2c89b69c2b068fc378daa952ba7f163c4a11628f55a4df523b3ef908290a45050565b828054611ba390612144565b90600052602060002090601f016020900481019282611bc55760008555611c0b565b82601f10611bde5782800160ff19823516178555611c0b565b82800160010185558215611c0b579182015b82811115611c0b578235825591602001919060010190611bf0565b50611c17929150611c1b565b5090565b5b80821115611c175760008155600101611c1c565b80356001600160a01b0381168114611c4757600080fd5b919050565b80356bffffffffffffffffffffffff81168114611c4757600080fd5b600060208284031215611c79578081fd5b611c8282611c30565b9392505050565b60008060408385031215611c9b578081fd5b611ca483611c30565b9150611cb260208401611c30565b90509250929050565b600080600060608486031215611ccf578081fd5b611cd884611c30565b9250611ce660208501611c30565b9150604084013590509250925092565b60008060008060808587031215611d0b578081fd5b611d1485611c30565b9350611d2260208601611c30565b925060408501359150606085013567ffffffffffffffff80821115611d45578283fd5b818701915087601f830112611d58578283fd5b813581811115611d6a57611d6a6121da565b604051601f8201601f19908116603f01168101908382118183101715611d9257611d926121da565b816040528281528a6020848701011115611daa578586fd5b82602086016020830137918201602001949094529598949750929550505050565b60008060408385031215611ddd578182fd5b611de683611c30565b915060208301358015158114611dfa578182fd5b809150509250929050565b60008060408385031215611e17578182fd5b611e2083611c30565b946020939093013593505050565b60008060408385031215611e40578182fd5b611e4983611c30565b9150611cb260208401611c4c565b600060208284031215611e68578081fd5b8135611c82816121f0565b600060208284031215611e84578081fd5b8151611c82816121f0565b60008060208385031215611ea1578182fd5b823567ffffffffffffffff80821115611eb8578384fd5b818501915085601f830112611ecb578384fd5b813581811115611ed9578485fd5b866020828501011115611eea578485fd5b60209290920196919550909350505050565b600060208284031215611f0d578081fd5b5035919050565b600080600060608486031215611f28578283fd5b83359250611f3860208501611c30565b9150611f4660408501611c4c565b90509250925092565b60008060408385031215611f61578182fd5b50508035926020909101359150565b60008151808452611f88816020860160208601612118565b601f01601f19169290920160200192915050565b8054600090600181811c9080831680611fb657607f831692505b6020808410821415611fd657634e487b7160e01b86526022600452602486fd5b818015611fea5760018114611ffb57612028565b60ff19861689528489019650612028565b60008881526020902060005b868110156120205781548b820152908501908301612007565b505084890196505b50505050505092915050565b60006120408286611f9c565b8451612050818360208901612118565b61205c81830186611f9c565b979650505050505050565b60006001600160a01b038087168352808616602084015250836040830152608060608301526120996080830184611f70565b9695505050505050565b602081526000611c826020830184611f70565b600082198211156120c9576120c96121ae565b500190565b6000826120dd576120dd6121c4565b500490565b60008160001904831182151516156120fc576120fc6121ae565b500290565b600082821015612113576121136121ae565b500390565b60005b8381101561213357818101518382015260200161211b565b83811115610d995750506000910152565b600181811c9082168061215857607f821691505b6020821081141561217957634e487b7160e01b600052602260045260246000fd5b50919050565b6000600019821415612193576121936121ae565b5060010190565b6000826121a9576121a96121c4565b500690565b634e487b7160e01b600052601160045260246000fd5b634e487b7160e01b600052601260045260246000fd5b634e487b7160e01b600052604160045260246000fd5b6001600160e01b031981168114610b2657600080fdfea26469706673582212200616e7abbe1679d7e86b3ffe1e38bcb02a1e248144b2d847c9463b508af2557964736f6c63430008040033",
  "linkReferences": {},
  "deployedLinkReferences": {}
}