{
  "_format": "hh-sol-artifact-1",
  "contractName": "MembershipERC721",
  "sourceName": "contracts/MembershipERC721.sol",
  "abi": [
    {
      "inputs": [
        {
          "internalType": "string",
          "name": "name_",
          "type": "string"
        },
        {
          "internalType": "string",
          "name": "symbol_",
          "type": "string"
        },
        {
          "internalType": "address",
          "name": "erc20_",
          "type": "address"
        },
        {
          "internalType": "string",
          "name": "baseURI_",
          "type": "string"
        },
        {
          "internalType": "uint16",
          "name": "genesisEnd",
          "type": "uint16"
        },
        {
          "internalType": "uint16",
          "name": "foundationEnd",
          "type": "uint16"
        },
        {
          "internalType": "uint16",
          "name": "friendEnd",
          "type": "uint16"
        }
      ],
      "stateMutability": "nonpayable",
      "type": "constructor"
    },
    {
      "anonymous": false,
      "inputs": [
        {
          "indexed": true,
          "internalType": "address",
          "name": "owner",
          "type": "address"
        },
        {
          "indexed": true,
          "internalType": "address",
          "name": "approved",
          "type": "address"
        },
        {
          "indexed": true,
          "internalType": "uint256",
          "name": "tokenId",
          "type": "uint256"
        }
      ],
      "name": "Approval",
      "type": "event"
    },
    {
      "anonymous": false,
      "inputs": [
        {
          "indexed": true,
          "internalType": "address",
          "name": "owner",
          "type": "address"
        },
        {
          "indexed": true,
          "internalType": "address",
          "name": "operator",
          "type": "address"
        },
        {
          "indexed": false,
          "internalType": "bool",
          "name": "approved",
          "type": "bool"
        }
      ],
      "name": "ApprovalForAll",
      "type": "event"
    },
    {
      "anonymous": false,
      "inputs": [
        {
          "indexed": true,
          "internalType": "address",
          "name": "owner",
          "type": "address"
        },
        {
          "indexed": true,
          "internalType": "uint16",
          "name": "id",
          "type": "uint16"
        }
      ],
      "name": "Redeem",
      "type": "event"
    },
    {
      "anonymous": false,
      "inputs": [
        {
          "indexed": true,
          "internalType": "address",
          "name": "owner",
          "type": "address"
        },
        {
          "indexed": true,
          "internalType": "uint16",
          "name": "id",
          "type": "uint16"
        }
      ],
      "name": "Release",
      "type": "event"
    },
    {
      "anonymous": false,
      "inputs": [
        {
          "indexed": true,
          "internalType": "address",
          "name": "from",
          "type": "address"
        },
        {
          "indexed": true,
          "internalType": "address",
          "name": "to",
          "type": "address"
        },
        {
          "indexed": true,
          "internalType": "uint256",
          "name": "tokenId",
          "type": "uint256"
        }
      ],
      "name": "Transfer",
      "type": "event"
    },
    {
      "inputs": [
        {
          "internalType": "address",
          "name": "to",
          "type": "address"
        },
        {
          "internalType": "uint256",
          "name": "tokenId",
          "type": "uint256"
        }
      ],
      "name": "approve",
      "outputs": [],
      "stateMutability": "nonpayable",
      "type": "function"
    },
    {
      "inputs": [
        {
          "internalType": "address",
          "name": "owner",
          "type": "address"
        }
      ],
      "name": "balanceOf",
      "outputs": [
        {
          "internalType": "uint256",
          "name": "",
          "type": "uint256"
        }
      ],
      "stateMutability": "view",
      "type": "function"
    },
    {
      "inputs": [],
      "name": "baseURI",
      "outputs": [
        {
          "internalType": "string",
          "name": "",
          "type": "string"
        }
      ],
      "stateMutability": "view",
      "type": "function"
    },
    {
      "inputs": [
        {
          "internalType": "uint256",
          "name": "tokenId",
          "type": "uint256"
        }
      ],
      "name": "burn",
      "outputs": [],
      "stateMutability": "nonpayable",
      "type": "function"
    },
    {
      "inputs": [],
      "name": "erc20",
      "outputs": [
        {
          "internalType": "contract IERC20Decimal",
          "name": "",
          "type": "address"
        }
      ],
      "stateMutability": "view",
      "type": "function"
    },
    {
      "inputs": [],
      "name": "foundationTier",
      "outputs": [
        {
          "internalType": "uint16",
          "name": "currId",
          "type": "uint16"
        },
        {
          "internalType": "uint16",
          "name": "start",
          "type": "uint16"
        },
        {
          "internalType": "uint16",
          "name": "end",
          "type": "uint16"
        },
        {
          "internalType": "uint256",
          "name": "price",
          "type": "uint256"
        }
      ],
      "stateMutability": "view",
      "type": "function"
    },
    {
      "inputs": [],
      "name": "friendTier",
      "outputs": [
        {
          "internalType": "uint16",
          "name": "currId",
          "type": "uint16"
        },
        {
          "internalType": "uint16",
          "name": "start",
          "type": "uint16"
        },
        {
          "internalType": "uint16",
          "name": "end",
          "type": "uint16"
        },
        {
          "internalType": "uint256",
          "name": "price",
          "type": "uint256"
        }
      ],
      "stateMutability": "view",
      "type": "function"
    },
    {
      "inputs": [],
      "name": "genesisTier",
      "outputs": [
        {
          "internalType": "uint16",
          "name": "currId",
          "type": "uint16"
        },
        {
          "internalType": "uint16",
          "name": "start",
          "type": "uint16"
        },
        {
          "internalType": "uint16",
          "name": "end",
          "type": "uint16"
        },
        {
          "internalType": "uint256",
          "name": "price",
          "type": "uint256"
        }
      ],
      "stateMutability": "view",
      "type": "function"
    },
    {
      "inputs": [
        {
          "internalType": "uint256",
          "name": "tokenId",
          "type": "uint256"
        }
      ],
      "name": "getApproved",
      "outputs": [
        {
          "internalType": "address",
          "name": "",
          "type": "address"
        }
      ],
      "stateMutability": "view",
      "type": "function"
    },
    {
      "inputs": [
        {
          "internalType": "address",
          "name": "owner",
          "type": "address"
        },
        {
          "internalType": "address",
          "name": "operator",
          "type": "address"
        }
      ],
      "name": "isApprovedForAll",
      "outputs": [
        {
          "internalType": "bool",
          "name": "",
          "type": "bool"
        }
      ],
      "stateMutability": "view",
      "type": "function"
    },
    {
      "inputs": [],
      "name": "name",
      "outputs": [
        {
          "internalType": "string",
          "name": "",
          "type": "string"
        }
      ],
      "stateMutability": "view",
      "type": "function"
    },
    {
      "inputs": [
        {
          "internalType": "uint256",
          "name": "tokenId",
          "type": "uint256"
        }
      ],
      "name": "ownerOf",
      "outputs": [
        {
          "internalType": "address",
          "name": "",
          "type": "address"
        }
      ],
      "stateMutability": "view",
      "type": "function"
    },
    {
      "inputs": [],
      "name": "redeemFoundation",
      "outputs": [],
      "stateMutability": "nonpayable",
      "type": "function"
    },
    {
      "inputs": [],
      "name": "redeemFriend",
      "outputs": [],
      "stateMutability": "nonpayable",
      "type": "function"
    },
    {
      "inputs": [],
      "name": "redeemGenesis",
      "outputs": [],
      "stateMutability": "nonpayable",
      "type": "function"
    },
    {
      "inputs": [
        {
          "internalType": "uint16",
          "name": "id",
          "type": "uint16"
        }
      ],
      "name": "release",
      "outputs": [],
      "stateMutability": "nonpayable",
      "type": "function"
    },
    {
      "inputs": [
        {
          "internalType": "address",
          "name": "from",
          "type": "address"
        },
        {
          "internalType": "address",
          "name": "to",
          "type": "address"
        },
        {
          "internalType": "uint256",
          "name": "tokenId",
          "type": "uint256"
        }
      ],
      "name": "safeTransferFrom",
      "outputs": [],
      "stateMutability": "nonpayable",
      "type": "function"
    },
    {
      "inputs": [
        {
          "internalType": "address",
          "name": "from",
          "type": "address"
        },
        {
          "internalType": "address",
          "name": "to",
          "type": "address"
        },
        {
          "internalType": "uint256",
          "name": "tokenId",
          "type": "uint256"
        },
        {
          "internalType": "bytes",
          "name": "_data",
          "type": "bytes"
        }
      ],
      "name": "safeTransferFrom",
      "outputs": [],
      "stateMutability": "nonpayable",
      "type": "function"
    },
    {
      "inputs": [
        {
          "internalType": "address",
          "name": "operator",
          "type": "address"
        },
        {
          "internalType": "bool",
          "name": "approved",
          "type": "bool"
        }
      ],
      "name": "setApprovalForAll",
      "outputs": [],
      "stateMutability": "nonpayable",
      "type": "function"
    },
    {
      "inputs": [
        {
          "internalType": "bytes4",
          "name": "interfaceId",
          "type": "bytes4"
        }
      ],
      "name": "supportsInterface",
      "outputs": [
        {
          "internalType": "bool",
          "name": "",
          "type": "bool"
        }
      ],
      "stateMutability": "view",
      "type": "function"
    },
    {
      "inputs": [],
      "name": "symbol",
      "outputs": [
        {
          "internalType": "string",
          "name": "",
          "type": "string"
        }
      ],
      "stateMutability": "view",
      "type": "function"
    },
    {
      "inputs": [
        {
          "internalType": "uint256",
          "name": "index",
          "type": "uint256"
        }
      ],
      "name": "tokenByIndex",
      "outputs": [
        {
          "internalType": "uint256",
          "name": "",
          "type": "uint256"
        }
      ],
      "stateMutability": "view",
      "type": "function"
    },
    {
      "inputs": [
        {
          "internalType": "address",
          "name": "owner",
          "type": "address"
        },
        {
          "internalType": "uint256",
          "name": "index",
          "type": "uint256"
        }
      ],
      "name": "tokenOfOwnerByIndex",
      "outputs": [
        {
          "internalType": "uint256",
          "name": "",
          "type": "uint256"
        }
      ],
      "stateMutability": "view",
      "type": "function"
    },
    {
      "inputs": [
        {
          "internalType": "uint256",
          "name": "tokenId",
          "type": "uint256"
        }
      ],
      "name": "tokenURI",
      "outputs": [
        {
          "internalType": "string",
          "name": "",
          "type": "string"
        }
      ],
      "stateMutability": "view",
      "type": "function"
    },
    {
      "inputs": [],
      "name": "totalSupply",
      "outputs": [
        {
          "internalType": "uint256",
          "name": "",
          "type": "uint256"
        }
      ],
      "stateMutability": "view",
      "type": "function"
    },
    {
      "inputs": [
        {
          "internalType": "address",
          "name": "from",
          "type": "address"
        },
        {
          "internalType": "address",
          "name": "to",
          "type": "address"
        },
        {
          "internalType": "uint256",
          "name": "tokenId",
          "type": "uint256"
        }
      ],
      "name": "transferFrom",
      "outputs": [],
      "stateMutability": "nonpayable",
      "type": "function"
    }
  ],
  "bytecode": "0x60806040523480156200001157600080fd5b5060405162004f4338038062004f43833981810160405281019062000037919062000aaa565b86866200006a7f01ffc9a7000000000000000000000000000000000000000000000000000000006200079e60201b60201c565b81600690805190602001906200008292919062000892565b5080600790805190602001906200009b92919062000892565b50620000cd7f80ac58cd000000000000000000000000000000000000000000000000000000006200079e60201b60201c565b620000fe7f5b5e139f000000000000000000000000000000000000000000000000000000006200079e60201b60201c565b6200012f7f780e9d63000000000000000000000000000000000000000000000000000000006200079e60201b60201c565b505062000142846200087660201b60201c565b84600a60006101000a81548173ffffffffffffffffffffffffffffffffffffffff021916908373ffffffffffffffffffffffffffffffffffffffff1602179055506040518060a00160405280600061ffff168152602001600061ffff1681526020018461ffff168152602001600a60009054906101000a900473ffffffffffffffffffffffffffffffffffffffff1673ffffffffffffffffffffffffffffffffffffffff1663313ce5676040518163ffffffff1660e01b815260040160206040518083038186803b1580156200021757600080fd5b505afa1580156200022c573d6000803e3d6000fd5b505050506040513d601f19601f8201168201806040525081019062000252919062000ba2565b600a62000260919062000ce2565b619c406200026f919062000e1f565b8152602001600b805480602002602001604051908101604052809291908181526020018280548015620002ea57602002820191906000526020600020906000905b82829054906101000a900461ffff1661ffff1681526020019060020190602082600101049283019260010382029150808411620002b05790505b5050505050815250601460008201518160000160006101000a81548161ffff021916908361ffff16021790555060208201518160000160026101000a81548161ffff021916908361ffff16021790555060408201518160000160046101000a81548161ffff021916908361ffff1602179055506060820151816001015560808201518160020190805190602001906200038592919062000923565b509050506040518060a001604052808461ffff1681526020018461ffff1681526020018361ffff168152602001600a60009054906101000a900473ffffffffffffffffffffffffffffffffffffffff1673ffffffffffffffffffffffffffffffffffffffff1663313ce5676040518163ffffffff1660e01b815260040160206040518083038186803b1580156200041b57600080fd5b505afa15801562000430573d6000803e3d6000fd5b505050506040513d601f19601f8201168201806040525081019062000456919062000ba2565b600a62000464919062000ce2565b610fa062000473919062000e1f565b8152602001600c805480602002602001604051908101604052809291908181526020018280548015620004ee57602002820191906000526020600020906000905b82829054906101000a900461ffff1661ffff1681526020019060020190602082600101049283019260010382029150808411620004b45790505b5050505050815250601160008201518160000160006101000a81548161ffff021916908361ffff16021790555060208201518160000160026101000a81548161ffff021916908361ffff16021790555060408201518160000160046101000a81548161ffff021916908361ffff1602179055506060820151816001015560808201518160020190805190602001906200058992919062000923565b509050506040518060a001604052808361ffff1681526020018361ffff1681526020018261ffff168152602001600a60009054906101000a900473ffffffffffffffffffffffffffffffffffffffff1673ffffffffffffffffffffffffffffffffffffffff1663313ce5676040518163ffffffff1660e01b815260040160206040518083038186803b1580156200061f57600080fd5b505afa15801562000634573d6000803e3d6000fd5b505050506040513d601f19601f820116820180604052508101906200065a919062000ba2565b600a62000668919062000ce2565b61019062000677919062000e1f565b8152602001600d805480602002602001604051908101604052809291908181526020018280548015620006f257602002820191906000526020600020906000905b82829054906101000a900461ffff1661ffff1681526020019060020190602082600101049283019260010382029150808411620006b85790505b5050505050815250600e60008201518160000160006101000a81548161ffff021916908361ffff16021790555060208201518160000160026101000a81548161ffff021916908361ffff16021790555060408201518160000160046101000a81548161ffff021916908361ffff1602179055506060820151816001015560808201518160020190805190602001906200078d92919062000923565b50905050505050505050506200109d565b63ffffffff60e01b817bffffffffffffffffffffffffffffffffffffffffffffffffffffffff191614156200080a576040517f08c379a0000000000000000000000000000000000000000000000000000000008152600401620008019062000bf5565b60405180910390fd5b6001600080837bffffffffffffffffffffffffffffffffffffffffffffffffffffffff19167bffffffffffffffffffffffffffffffffffffffffffffffffffffffff1916815260200190815260200160002060006101000a81548160ff02191690831515021790555050565b80600990805190602001906200088e92919062000892565b5050565b828054620008a09062000f0f565b90600052602060002090601f016020900481019282620008c4576000855562000910565b82601f10620008df57805160ff191683800117855562000910565b8280016001018555821562000910579182015b828111156200090f578251825591602001919060010190620008f2565b5b5090506200091f9190620009d4565b5090565b82805482825590600052602060002090600f01601090048101928215620009c15791602002820160005b838211156200098f57835183826101000a81548161ffff021916908361ffff16021790555092602001926002016020816001010492830192600103026200094d565b8015620009bf5782816101000a81549061ffff02191690556002016020816001010492830192600103026200098f565b505b509050620009d09190620009d4565b5090565b5b80821115620009ef576000816000905550600101620009d5565b5090565b600062000a0a62000a048462000c40565b62000c17565b90508281526020810184848401111562000a2357600080fd5b62000a3084828562000ed9565b509392505050565b60008151905062000a49816200104f565b92915050565b600082601f83011262000a6157600080fd5b815162000a73848260208601620009f3565b91505092915050565b60008151905062000a8d8162001069565b92915050565b60008151905062000aa48162001083565b92915050565b600080600080600080600060e0888a03121562000ac657600080fd5b600088015167ffffffffffffffff81111562000ae157600080fd5b62000aef8a828b0162000a4f565b975050602088015167ffffffffffffffff81111562000b0d57600080fd5b62000b1b8a828b0162000a4f565b965050604062000b2e8a828b0162000a38565b955050606088015167ffffffffffffffff81111562000b4c57600080fd5b62000b5a8a828b0162000a4f565b945050608062000b6d8a828b0162000a7c565b93505060a062000b808a828b0162000a7c565b92505060c062000b938a828b0162000a7c565b91505092959891949750929550565b60006020828403121562000bb557600080fd5b600062000bc58482850162000a93565b91505092915050565b600062000bdd601c8362000c76565b915062000bea8262001026565b602082019050919050565b6000602082019050818103600083015262000c108162000bce565b9050919050565b600062000c2362000c36565b905062000c31828262000f45565b919050565b6000604051905090565b600067ffffffffffffffff82111562000c5e5762000c5d62000fd9565b5b62000c698262001008565b9050602081019050919050565b600082825260208201905092915050565b6000808291508390505b600185111562000cd95780860481111562000cb15762000cb062000f7b565b5b600185161562000cc15780820291505b808102905062000cd18562001019565b945062000c91565b94509492505050565b600062000cef8262000ec2565b915062000cfc8362000ecc565b925062000d2b7fffffffffffffffffffffffffffffffffffffffffffffffffffffffffffffffff848462000d33565b905092915050565b60008262000d45576001905062000e18565b8162000d55576000905062000e18565b816001811462000d6e576002811462000d795762000daf565b600191505062000e18565b60ff84111562000d8e5762000d8d62000f7b565b5b8360020a91508482111562000da85762000da762000f7b565b5b5062000e18565b5060208310610133831016604e8410600b841016171562000de95782820a90508381111562000de35762000de262000f7b565b5b62000e18565b62000df8848484600162000c87565b9250905081840481111562000e125762000e1162000f7b565b5b81810290505b9392505050565b600062000e2c8262000ec2565b915062000e398362000ec2565b9250817fffffffffffffffffffffffffffffffffffffffffffffffffffffffffffffffff048311821515161562000e755762000e7462000f7b565b5b828202905092915050565b600062000e8d8262000ea2565b9050919050565b600061ffff82169050919050565b600073ffffffffffffffffffffffffffffffffffffffff82169050919050565b6000819050919050565b600060ff82169050919050565b60005b8381101562000ef957808201518184015260208101905062000edc565b8381111562000f09576000848401525b50505050565b6000600282049050600182168062000f2857607f821691505b6020821081141562000f3f5762000f3e62000faa565b5b50919050565b62000f508262001008565b810181811067ffffffffffffffff8211171562000f725762000f7162000fd9565b5b80604052505050565b7f4e487b7100000000000000000000000000000000000000000000000000000000600052601160045260246000fd5b7f4e487b7100000000000000000000000000000000000000000000000000000000600052602260045260246000fd5b7f4e487b7100000000000000000000000000000000000000000000000000000000600052604160045260246000fd5b6000601f19601f8301169050919050565b60008160011c9050919050565b7f4552433136353a20696e76616c696420696e7465726661636520696400000000600082015250565b6200105a8162000e80565b81146200106657600080fd5b50565b620010748162000e94565b81146200108057600080fd5b50565b6200108e8162000ecc565b81146200109a57600080fd5b50565b613e9680620010ad6000396000f3fe608060405234801561001057600080fd5b506004361061018e5760003560e01c80635de7eb1b116100de578063785e9e8611610097578063b88d4fde11610071578063b88d4fde14610456578063c87b56dd14610472578063e985e9c5146104a2578063fbe6ae63146104d25761018e565b8063785e9e86146103fe57806395d89b411461041c578063a22cb4651461043a5761018e565b80635de7eb1b146103345780636352211e146103555780636c0360eb1461038557806370a08231146103a3578063734af505146103d357806374ab088b146103dd5761018e565b806323b872dd1161014b5780633282b8d4116101255780633282b8d4146102c257806342842e0e146102cc57806342966c68146102e85780634f6ccce7146103045761018e565b806323b872dd1461026c5780632e9c2ea7146102885780632f745c59146102925761018e565b806301ffc9a71461019357806306fdde03146101c3578063081812fc146101e1578063095ea7b31461021157806318160ddd1461022d5780631d0e33921461024b575b600080fd5b6101ad60048036038101906101a89190612c63565b6104ee565b6040516101ba91906131a2565b60405180910390f35b6101cb610555565b6040516101d891906131d8565b60405180910390f35b6101fb60048036038101906101f69190612cde565b6105e7565b60405161020891906130db565b60405180910390f35b61022b60048036038101906102269190612bfe565b61066c565b005b610235610784565b604051610242919061349f565b60405180910390f35b610253610795565b604051610263949392919061345a565b60405180910390f35b61028660048036038101906102819190612af8565b6107dd565b005b61029061083d565b005b6102ac60048036038101906102a79190612bfe565b610849565b6040516102b9919061349f565b60405180910390f35b6102ca6108a4565b005b6102e660048036038101906102e19190612af8565b6108b0565b005b61030260048036038101906102fd9190612cde565b6108d0565b005b61031e60048036038101906103199190612cde565b61092c565b60405161032b919061349f565b60405180910390f35b61033c61094f565b60405161034c949392919061345a565b60405180910390f35b61036f600480360381019061036a9190612cde565b610997565b60405161037c91906130db565b60405180910390f35b61038d6109ce565b60405161039a91906131d8565b60405180910390f35b6103bd60048036038101906103b89190612a93565b610a60565b6040516103ca919061349f565b60405180910390f35b6103db610b1f565b005b6103e5610b2b565b6040516103f5949392919061345a565b60405180910390f35b610406610b73565b60405161041391906131bd565b60405180910390f35b610424610b99565b60405161043191906131d8565b60405180910390f35b610454600480360381019061044f9190612bc2565b610c2b565b005b610470600480360381019061046b9190612b47565b610dac565b005b61048c60048036038101906104879190612cde565b610e0e565b60405161049991906131d8565b60405180910390f35b6104bc60048036038101906104b79190612abc565b610f81565b6040516104c991906131a2565b60405180910390f35b6104ec60048036038101906104e79190612cb5565b611015565b005b6000806000837bffffffffffffffffffffffffffffffffffffffffffffffffffffffff19167bffffffffffffffffffffffffffffffffffffffffffffffffffffffff1916815260200190815260200160002060009054906101000a900460ff169050919050565b606060068054610564906136f6565b80601f0160208091040260200160405190810160405280929190818152602001828054610590906136f6565b80156105dd5780601f106105b2576101008083540402835291602001916105dd565b820191906000526020600020905b8154815290600101906020018083116105c057829003601f168201915b5050505050905090565b60006105f28261117b565b610631576040517f08c379a00000000000000000000000000000000000000000000000000000000081526004016106289061337a565b60405180910390fd5b6004600083815260200190815260200160002060009054906101000a900473ffffffffffffffffffffffffffffffffffffffff169050919050565b600061067782610997565b90508073ffffffffffffffffffffffffffffffffffffffff168373ffffffffffffffffffffffffffffffffffffffff1614156106e8576040517f08c379a00000000000000000000000000000000000000000000000000000000081526004016106df906133fa565b60405180910390fd5b8073ffffffffffffffffffffffffffffffffffffffff16610707611198565b73ffffffffffffffffffffffffffffffffffffffff161480610736575061073581610730611198565b610f81565b5b610775576040517f08c379a000000000000000000000000000000000000000000000000000000000815260040161076c906132fa565b60405180910390fd5b61077f83836111a0565b505050565b60006107906002611259565b905090565b60118060000160009054906101000a900461ffff16908060000160029054906101000a900461ffff16908060000160049054906101000a900461ffff16908060010154905084565b6107ee6107e8611198565b8261126e565b61082d576040517f08c379a00000000000000000000000000000000000000000000000000000000081526004016108249061341a565b60405180910390fd5b61083883838361134c565b505050565b610847600e611563565b565b600061089c82600160008673ffffffffffffffffffffffffffffffffffffffff1673ffffffffffffffffffffffffffffffffffffffff16815260200190815260200160002061191890919063ffffffff16565b905092915050565b6108ae6011611563565b565b6108cb83838360405180602001604052806000815250610dac565b505050565b6108e16108db611198565b8261126e565b610920576040517f08c379a00000000000000000000000000000000000000000000000000000000081526004016109179061343a565b60405180910390fd5b61092981611932565b50565b600080610943836002611a6490919063ffffffff16565b50905080915050919050565b600e8060000160009054906101000a900461ffff16908060000160029054906101000a900461ffff16908060000160049054906101000a900461ffff16908060010154905084565b60006109c782604051806060016040528060298152602001613e38602991396002611a909092919063ffffffff16565b9050919050565b6060600980546109dd906136f6565b80601f0160208091040260200160405190810160405280929190818152602001828054610a09906136f6565b8015610a565780601f10610a2b57610100808354040283529160200191610a56565b820191906000526020600020905b815481529060010190602001808311610a3957829003601f168201915b5050505050905090565b60008073ffffffffffffffffffffffffffffffffffffffff168273ffffffffffffffffffffffffffffffffffffffff161415610ad1576040517f08c379a0000000000000000000000000000000000000000000000000000000008152600401610ac89061331a565b60405180910390fd5b610b18600160008473ffffffffffffffffffffffffffffffffffffffff1673ffffffffffffffffffffffffffffffffffffffff168152602001908152602001600020611aaf565b9050919050565b610b296014611563565b565b60148060000160009054906101000a900461ffff16908060000160029054906101000a900461ffff16908060000160049054906101000a900461ffff16908060010154905084565b600a60009054906101000a900473ffffffffffffffffffffffffffffffffffffffff1681565b606060078054610ba8906136f6565b80601f0160208091040260200160405190810160405280929190818152602001828054610bd4906136f6565b8015610c215780601f10610bf657610100808354040283529160200191610c21565b820191906000526020600020905b815481529060010190602001808311610c0457829003601f168201915b5050505050905090565b610c33611198565b73ffffffffffffffffffffffffffffffffffffffff168273ffffffffffffffffffffffffffffffffffffffff161415610ca1576040517f08c379a0000000000000000000000000000000000000000000000000000000008152600401610c98906132ba565b60405180910390fd5b8060056000610cae611198565b73ffffffffffffffffffffffffffffffffffffffff1673ffffffffffffffffffffffffffffffffffffffff16815260200190815260200160002060008473ffffffffffffffffffffffffffffffffffffffff1673ffffffffffffffffffffffffffffffffffffffff16815260200190815260200160002060006101000a81548160ff0219169083151502179055508173ffffffffffffffffffffffffffffffffffffffff16610d5b611198565b73ffffffffffffffffffffffffffffffffffffffff167f17307eab39ab6107e8899845ad3d59bd9653f200f220920489ca2b5937696c3183604051610da091906131a2565b60405180910390a35050565b610dbd610db7611198565b8361126e565b610dfc576040517f08c379a0000000000000000000000000000000000000000000000000000000008152600401610df39061341a565b60405180910390fd5b610e0884848484611ac4565b50505050565b6060610e198261117b565b610e58576040517f08c379a0000000000000000000000000000000000000000000000000000000008152600401610e4f906133ba565b60405180910390fd5b6000600860008481526020019081526020016000208054610e78906136f6565b80601f0160208091040260200160405190810160405280929190818152602001828054610ea4906136f6565b8015610ef15780601f10610ec657610100808354040283529160200191610ef1565b820191906000526020600020905b815481529060010190602001808311610ed457829003601f168201915b505050505090506000610f026109ce565b9050600081511415610f18578192505050610f7c565b600082511115610f4d578082604051602001610f359291906130b7565b60405160208183030381529060405292505050610f7c565b80610f5785611b20565b604051602001610f689291906130b7565b604051602081830303815290604052925050505b919050565b6000600560008473ffffffffffffffffffffffffffffffffffffffff1673ffffffffffffffffffffffffffffffffffffffff16815260200190815260200160002060008373ffffffffffffffffffffffffffffffffffffffff1673ffffffffffffffffffffffffffffffffffffffff16815260200190815260200160002060009054906101000a900460ff16905092915050565b600061102082611ccd565b9050600a60009054906101000a900473ffffffffffffffffffffffffffffffffffffffff1673ffffffffffffffffffffffffffffffffffffffff1663a9059cbb3383600101546040518363ffffffff1660e01b8152600401611083929190613179565b602060405180830381600087803b15801561109d57600080fd5b505af11580156110b1573d6000803e3d6000fd5b505050506040513d601f19601f820116820180604052508101906110d59190612c3a565b50806002018290806001815401808255809150506001900390600052602060002090601091828204019190066002029091909190916101000a81548161ffff021916908361ffff1602179055508161ffff163373ffffffffffffffffffffffffffffffffffffffff167f54ab89e1f8e1a08e2cd52b2991cc6404ad1dae2d00f3071de4009d9cf7d80dde60405160405180910390a36111778261ffff166108d0565b5050565b6000611191826002611d9390919063ffffffff16565b9050919050565b600033905090565b816004600083815260200190815260200160002060006101000a81548173ffffffffffffffffffffffffffffffffffffffff021916908373ffffffffffffffffffffffffffffffffffffffff160217905550808273ffffffffffffffffffffffffffffffffffffffff1661121383610997565b73ffffffffffffffffffffffffffffffffffffffff167f8c5be1e5ebec7d5bd14f71427d1e84f3dd0314c0f7b2291e5b200ac8c7c3b92560405160405180910390a45050565b600061126782600001611dad565b9050919050565b60006112798261117b565b6112b8576040517f08c379a00000000000000000000000000000000000000000000000000000000081526004016112af906132da565b60405180910390fd5b60006112c383610997565b90508073ffffffffffffffffffffffffffffffffffffffff168473ffffffffffffffffffffffffffffffffffffffff16148061133257508373ffffffffffffffffffffffffffffffffffffffff1661131a846105e7565b73ffffffffffffffffffffffffffffffffffffffff16145b8061134357506113428185610f81565b5b91505092915050565b8273ffffffffffffffffffffffffffffffffffffffff1661136c82610997565b73ffffffffffffffffffffffffffffffffffffffff16146113c2576040517f08c379a00000000000000000000000000000000000000000000000000000000081526004016113b99061339a565b60405180910390fd5b600073ffffffffffffffffffffffffffffffffffffffff168273ffffffffffffffffffffffffffffffffffffffff161415611432576040517f08c379a00000000000000000000000000000000000000000000000000000000081526004016114299061329a565b60405180910390fd5b61143d838383611dbe565b6114486000826111a0565b61149981600160008673ffffffffffffffffffffffffffffffffffffffff1673ffffffffffffffffffffffffffffffffffffffff168152602001908152602001600020611dc390919063ffffffff16565b506114eb81600160008573ffffffffffffffffffffffffffffffffffffffff1673ffffffffffffffffffffffffffffffffffffffff168152602001908152602001600020611ddd90919063ffffffff16565b5061150281836002611df79092919063ffffffff16565b50808273ffffffffffffffffffffffffffffffffffffffff168473ffffffffffffffffffffffffffffffffffffffff167fddf252ad1be2c89b69c2b068fc378daa952ba7f163c4a11628f55a4df523b3ef60405160405180910390a4505050565b6000808260020180549050111561165657816002016001836002018054905061158c91906135da565b815481106115c3577f4e487b7100000000000000000000000000000000000000000000000000000000600052603260045260246000fd5b90600052602060002090601091828204019190066002029054906101000a900461ffff16905081600201805480611623577f4e487b7100000000000000000000000000000000000000000000000000000000600052603160045260246000fd5b60019003818190600052602060002090601091828204019190066002026101000a81549061ffff02191690559055611717565b8160000160049054906101000a900461ffff1661ffff168260000160009054906101000a900461ffff1661ffff16106116c4576040517f08c379a00000000000000000000000000000000000000000000000000000000081526004016116bb9061323a565b60405180910390fd5b8160000160009054906101000a900461ffff16905081600001600081819054906101000a900461ffff16809291906116fb90613759565b91906101000a81548161ffff021916908361ffff160217905550505b8061ffff163373ffffffffffffffffffffffffffffffffffffffff167ff78e54e8275e487e0d09e0af7411151d11ac9a664d8c554ddf9b21612b1d9da860405160405180910390a361176d338261ffff16611e2c565b8160010154600a60009054906101000a900473ffffffffffffffffffffffffffffffffffffffff1673ffffffffffffffffffffffffffffffffffffffff166370a08231336040518263ffffffff1660e01b81526004016117cd91906130db565b60206040518083038186803b1580156117e557600080fd5b505afa1580156117f9573d6000803e3d6000fd5b505050506040513d601f19601f8201168201806040525081019061181d9190612d07565b101561185e576040517f08c379a0000000000000000000000000000000000000000000000000000000008152600401611855906133da565b60405180910390fd5b600a60009054906101000a900473ffffffffffffffffffffffffffffffffffffffff1673ffffffffffffffffffffffffffffffffffffffff166323b872dd333085600101546040518463ffffffff1660e01b81526004016118c1939291906130f6565b602060405180830381600087803b1580156118db57600080fd5b505af11580156118ef573d6000803e3d6000fd5b505050506040513d601f19601f820116820180604052508101906119139190612c3a565b505050565b60006119278360000183611e4a565b60001c905092915050565b600061193d82610997565b905061194b81600084611dbe565b6119566000836111a0565b6000600860008481526020019081526020016000208054611976906136f6565b90501461199d5760086000838152602001908152602001600020600061199c9190612926565b5b6119ee82600160008473ffffffffffffffffffffffffffffffffffffffff1673ffffffffffffffffffffffffffffffffffffffff168152602001908152602001600020611dc390919063ffffffff16565b50611a03826002611ee490919063ffffffff16565b5081600073ffffffffffffffffffffffffffffffffffffffff168273ffffffffffffffffffffffffffffffffffffffff167fddf252ad1be2c89b69c2b068fc378daa952ba7f163c4a11628f55a4df523b3ef60405160405180910390a45050565b600080600080611a778660000186611efe565b915091508160001c8160001c9350935050509250929050565b6000611aa3846000018460001b84611fae565b60001c90509392505050565b6000611abd82600001612075565b9050919050565b611acf84848461134c565b611adb84848484612086565b611b1a576040517f08c379a0000000000000000000000000000000000000000000000000000000008152600401611b119061325a565b60405180910390fd5b50505050565b60606000821415611b68576040518060400160405280600181526020017f30000000000000000000000000000000000000000000000000000000000000008152509050611cc8565b600082905060005b60008214611b9a578080611b8390613784565b915050600a82611b9391906135a9565b9150611b70565b60008167ffffffffffffffff811115611bdc577f4e487b7100000000000000000000000000000000000000000000000000000000600052604160045260246000fd5b6040519080825280601f01601f191660200182016040528015611c0e5781602001600182028036833780820191505090505b5090505b60008514611cc157600182611c2791906135da565b9150600a85611c3691906137cd565b6030611c429190613553565b60f81b818381518110611c7e577f4e487b7100000000000000000000000000000000000000000000000000000000600052603260045260246000fd5b60200101907effffffffffffffffffffffffffffffffffffffffffffffffffffffffffffff1916908160001a905350600a85611cba91906135a9565b9450611c12565b8093505050505b919050565b6000601460000160049054906101000a900461ffff1661ffff168261ffff161015611cfb5760149050611d8e565b601160000160049054906101000a900461ffff1661ffff168261ffff161015611d275760119050611d8e565b600e60000160049054906101000a900461ffff1661ffff168261ffff161015611d5357600e9050611d8e565b6040517f08c379a0000000000000000000000000000000000000000000000000000000008152600401611d859061321a565b60405180910390fd5b919050565b6000611da5836000018360001b61221d565b905092915050565b600081600001805490509050919050565b505050565b6000611dd5836000018360001b612240565b905092915050565b6000611def836000018360001b6123ca565b905092915050565b6000611e23846000018460001b8473ffffffffffffffffffffffffffffffffffffffff1660001b61243a565b90509392505050565b611e4682826040518060200160405280600081525061254c565b5050565b600081836000018054905011611e95576040517f08c379a0000000000000000000000000000000000000000000000000000000008152600401611e8c906131fa565b60405180910390fd5b826000018281548110611ed1577f4e487b7100000000000000000000000000000000000000000000000000000000600052603260045260246000fd5b9060005260206000200154905092915050565b6000611ef6836000018360001b6125a7565b905092915050565b60008082846000018054905011611f4a576040517f08c379a0000000000000000000000000000000000000000000000000000000008152600401611f419061333a565b60405180910390fd5b6000846000018481548110611f88577f4e487b7100000000000000000000000000000000000000000000000000000000600052603260045260246000fd5b906000526020600020906002020190508060000154816001015492509250509250929050565b60008084600101600085815260200190815260200160002054905060008114158390612010576040517f08c379a000000000000000000000000000000000000000000000000000000000815260040161200791906131d8565b60405180910390fd5b508460000160018261202291906135da565b81548110612059577f4e487b7100000000000000000000000000000000000000000000000000000000600052603260045260246000fd5b9060005260206000209060020201600101549150509392505050565b600081600001805490509050919050565b60006120a78473ffffffffffffffffffffffffffffffffffffffff16612762565b15612210578373ffffffffffffffffffffffffffffffffffffffff1663150b7a026120d0611198565b8786866040518563ffffffff1660e01b81526004016120f2949392919061312d565b602060405180830381600087803b15801561210c57600080fd5b505af192505050801561213d57506040513d601f19601f8201168201806040525081019061213a9190612c8c565b60015b6121c0573d806000811461216d576040519150601f19603f3d011682016040523d82523d6000602084013e612172565b606091505b506000815114156121b8576040517f08c379a00000000000000000000000000000000000000000000000000000000081526004016121af9061325a565b60405180910390fd5b805181602001fd5b63150b7a0260e01b7bffffffffffffffffffffffffffffffffffffffffffffffffffffffff1916817bffffffffffffffffffffffffffffffffffffffffffffffffffffffff191614915050612215565b600190505b949350505050565b600080836001016000848152602001908152602001600020541415905092915050565b600080836001016000848152602001908152602001600020549050600081146123be57600060018261227291906135da565b905060006001866000018054905061228a91906135da565b905060008660000182815481106122ca577f4e487b7100000000000000000000000000000000000000000000000000000000600052603260045260246000fd5b9060005260206000200154905080876000018481548110612314577f4e487b7100000000000000000000000000000000000000000000000000000000600052603260045260246000fd5b906000526020600020018190555060018361232f9190613553565b8760010160008381526020019081526020016000208190555086600001805480612382577f4e487b7100000000000000000000000000000000000000000000000000000000600052603160045260246000fd5b600190038181906000526020600020016000905590558660010160008781526020019081526020016000206000905560019450505050506123c4565b60009150505b92915050565b60006123d68383612775565b61242f578260000182908060018154018082558091505060019003906000526020600020016000909190919091505582600001805490508360010160008481526020019081526020016000208190555060019050612434565b600090505b92915050565b60008084600101600085815260200190815260200160002054905060008114156124e157846000016040518060400160405280868152602001858152509080600181540180825580915050600190039060005260206000209060020201600090919091909150600082015181600001556020820151816001015550508460000180549050856001016000868152602001908152602001600020819055506001915050612545565b82856000016001836124f391906135da565b8154811061252a577f4e487b7100000000000000000000000000000000000000000000000000000000600052603260045260246000fd5b90600052602060002090600202016001018190555060009150505b9392505050565b6125568383612798565b6125636000848484612086565b6125a2576040517f08c379a00000000000000000000000000000000000000000000000000000000081526004016125999061325a565b60405180910390fd5b505050565b600080836001016000848152602001908152602001600020549050600081146127565760006001826125d991906135da565b90506000600186600001805490506125f191906135da565b90506000866000018281548110612631577f4e487b7100000000000000000000000000000000000000000000000000000000600052603260045260246000fd5b906000526020600020906002020190508087600001848154811061267e577f4e487b7100000000000000000000000000000000000000000000000000000000600052603260045260246000fd5b906000526020600020906002020160008201548160000155600182015481600101559050506001836126b09190613553565b876001016000836000015481526020019081526020016000208190555086600001805480612707577f4e487b7100000000000000000000000000000000000000000000000000000000600052603160045260246000fd5b600190038181906000526020600020906002020160008082016000905560018201600090555050905586600101600087815260200190815260200160002060009055600194505050505061275c565b60009150505b92915050565b600080823b905060008111915050919050565b600080836001016000848152602001908152602001600020541415905092915050565b600073ffffffffffffffffffffffffffffffffffffffff168273ffffffffffffffffffffffffffffffffffffffff161415612808576040517f08c379a00000000000000000000000000000000000000000000000000000000081526004016127ff9061335a565b60405180910390fd5b6128118161117b565b15612851576040517f08c379a00000000000000000000000000000000000000000000000000000000081526004016128489061327a565b60405180910390fd5b61285d60008383611dbe565b6128ae81600160008573ffffffffffffffffffffffffffffffffffffffff1673ffffffffffffffffffffffffffffffffffffffff168152602001908152602001600020611ddd90919063ffffffff16565b506128c581836002611df79092919063ffffffff16565b50808273ffffffffffffffffffffffffffffffffffffffff16600073ffffffffffffffffffffffffffffffffffffffff167fddf252ad1be2c89b69c2b068fc378daa952ba7f163c4a11628f55a4df523b3ef60405160405180910390a45050565b508054612932906136f6565b6000825580601f106129445750612963565b601f0160209004906000526020600020908101906129629190612966565b5b50565b5b8082111561297f576000816000905550600101612967565b5090565b6000612996612991846134df565b6134ba565b9050828152602081018484840111156129ae57600080fd5b6129b98482856136b4565b509392505050565b6000813590506129d081613dc4565b92915050565b6000813590506129e581613ddb565b92915050565b6000815190506129fa81613ddb565b92915050565b600081359050612a0f81613df2565b92915050565b600081519050612a2481613df2565b92915050565b600082601f830112612a3b57600080fd5b8135612a4b848260208601612983565b91505092915050565b600081359050612a6381613e09565b92915050565b600081359050612a7881613e20565b92915050565b600081519050612a8d81613e20565b92915050565b600060208284031215612aa557600080fd5b6000612ab3848285016129c1565b91505092915050565b60008060408385031215612acf57600080fd5b6000612add858286016129c1565b9250506020612aee858286016129c1565b9150509250929050565b600080600060608486031215612b0d57600080fd5b6000612b1b868287016129c1565b9350506020612b2c868287016129c1565b9250506040612b3d86828701612a69565b9150509250925092565b60008060008060808587031215612b5d57600080fd5b6000612b6b878288016129c1565b9450506020612b7c878288016129c1565b9350506040612b8d87828801612a69565b925050606085013567ffffffffffffffff811115612baa57600080fd5b612bb687828801612a2a565b91505092959194509250565b60008060408385031215612bd557600080fd5b6000612be3858286016129c1565b9250506020612bf4858286016129d6565b9150509250929050565b60008060408385031215612c1157600080fd5b6000612c1f858286016129c1565b9250506020612c3085828601612a69565b9150509250929050565b600060208284031215612c4c57600080fd5b6000612c5a848285016129eb565b91505092915050565b600060208284031215612c7557600080fd5b6000612c8384828501612a00565b91505092915050565b600060208284031215612c9e57600080fd5b6000612cac84828501612a15565b91505092915050565b600060208284031215612cc757600080fd5b6000612cd584828501612a54565b91505092915050565b600060208284031215612cf057600080fd5b6000612cfe84828501612a69565b91505092915050565b600060208284031215612d1957600080fd5b6000612d2784828501612a7e565b91505092915050565b612d398161360e565b82525050565b612d4881613620565b82525050565b6000612d5982613510565b612d638185613526565b9350612d738185602086016136c3565b612d7c816138ba565b840191505092915050565b612d9081613690565b82525050565b6000612da18261351b565b612dab8185613537565b9350612dbb8185602086016136c3565b612dc4816138ba565b840191505092915050565b6000612dda8261351b565b612de48185613548565b9350612df48185602086016136c3565b80840191505092915050565b6000612e0d602283613537565b9150612e18826138cb565b604082019050919050565b6000612e30600f83613537565b9150612e3b8261391a565b602082019050919050565b6000612e53601f83613537565b9150612e5e82613943565b602082019050919050565b6000612e76603283613537565b9150612e818261396c565b604082019050919050565b6000612e99601c83613537565b9150612ea4826139bb565b602082019050919050565b6000612ebc602483613537565b9150612ec7826139e4565b604082019050919050565b6000612edf601983613537565b9150612eea82613a33565b602082019050919050565b6000612f02602c83613537565b9150612f0d82613a5c565b604082019050919050565b6000612f25603883613537565b9150612f3082613aab565b604082019050919050565b6000612f48602a83613537565b9150612f5382613afa565b604082019050919050565b6000612f6b602283613537565b9150612f7682613b49565b604082019050919050565b6000612f8e602083613537565b9150612f9982613b98565b602082019050919050565b6000612fb1602c83613537565b9150612fbc82613bc1565b604082019050919050565b6000612fd4602983613537565b9150612fdf82613c10565b604082019050919050565b6000612ff7602f83613537565b915061300282613c5f565b604082019050919050565b600061301a601483613537565b915061302582613cae565b602082019050919050565b600061303d602183613537565b915061304882613cd7565b604082019050919050565b6000613060603183613537565b915061306b82613d26565b604082019050919050565b6000613083603083613537565b915061308e82613d75565b604082019050919050565b6130a281613658565b82525050565b6130b181613686565b82525050565b60006130c38285612dcf565b91506130cf8284612dcf565b91508190509392505050565b60006020820190506130f06000830184612d30565b92915050565b600060608201905061310b6000830186612d30565b6131186020830185612d30565b61312560408301846130a8565b949350505050565b60006080820190506131426000830187612d30565b61314f6020830186612d30565b61315c60408301856130a8565b818103606083015261316e8184612d4e565b905095945050505050565b600060408201905061318e6000830185612d30565b61319b60208301846130a8565b9392505050565b60006020820190506131b76000830184612d3f565b92915050565b60006020820190506131d26000830184612d87565b92915050565b600060208201905081810360008301526131f28184612d96565b905092915050565b6000602082019050818103600083015261321381612e00565b9050919050565b6000602082019050818103600083015261323381612e23565b9050919050565b6000602082019050818103600083015261325381612e46565b9050919050565b6000602082019050818103600083015261327381612e69565b9050919050565b6000602082019050818103600083015261329381612e8c565b9050919050565b600060208201905081810360008301526132b381612eaf565b9050919050565b600060208201905081810360008301526132d381612ed2565b9050919050565b600060208201905081810360008301526132f381612ef5565b9050919050565b6000602082019050818103600083015261331381612f18565b9050919050565b6000602082019050818103600083015261333381612f3b565b9050919050565b6000602082019050818103600083015261335381612f5e565b9050919050565b6000602082019050818103600083015261337381612f81565b9050919050565b6000602082019050818103600083015261339381612fa4565b9050919050565b600060208201905081810360008301526133b381612fc7565b9050919050565b600060208201905081810360008301526133d381612fea565b9050919050565b600060208201905081810360008301526133f38161300d565b9050919050565b6000602082019050818103600083015261341381613030565b9050919050565b6000602082019050818103600083015261343381613053565b9050919050565b6000602082019050818103600083015261345381613076565b9050919050565b600060808201905061346f6000830187613099565b61347c6020830186613099565b6134896040830185613099565b61349660608301846130a8565b95945050505050565b60006020820190506134b460008301846130a8565b92915050565b60006134c46134d5565b90506134d08282613728565b919050565b6000604051905090565b600067ffffffffffffffff8211156134fa576134f961388b565b5b613503826138ba565b9050602081019050919050565b600081519050919050565b600081519050919050565b600082825260208201905092915050565b600082825260208201905092915050565b600081905092915050565b600061355e82613686565b915061356983613686565b9250827fffffffffffffffffffffffffffffffffffffffffffffffffffffffffffffffff0382111561359e5761359d6137fe565b5b828201905092915050565b60006135b482613686565b91506135bf83613686565b9250826135cf576135ce61382d565b5b828204905092915050565b60006135e582613686565b91506135f083613686565b925082821015613603576136026137fe565b5b828203905092915050565b600061361982613666565b9050919050565b60008115159050919050565b60007fffffffff0000000000000000000000000000000000000000000000000000000082169050919050565b600061ffff82169050919050565b600073ffffffffffffffffffffffffffffffffffffffff82169050919050565b6000819050919050565b600061369b826136a2565b9050919050565b60006136ad82613666565b9050919050565b82818337600083830152505050565b60005b838110156136e15780820151818401526020810190506136c6565b838111156136f0576000848401525b50505050565b6000600282049050600182168061370e57607f821691505b602082108114156137225761372161385c565b5b50919050565b613731826138ba565b810181811067ffffffffffffffff821117156137505761374f61388b565b5b80604052505050565b600061376482613658565b915061ffff821415613779576137786137fe565b5b600182019050919050565b600061378f82613686565b91507fffffffffffffffffffffffffffffffffffffffffffffffffffffffffffffffff8214156137c2576137c16137fe565b5b600182019050919050565b60006137d882613686565b91506137e383613686565b9250826137f3576137f261382d565b5b828206905092915050565b7f4e487b7100000000000000000000000000000000000000000000000000000000600052601160045260246000fd5b7f4e487b7100000000000000000000000000000000000000000000000000000000600052601260045260246000fd5b7f4e487b7100000000000000000000000000000000000000000000000000000000600052602260045260246000fd5b7f4e487b7100000000000000000000000000000000000000000000000000000000600052604160045260246000fd5b6000601f19601f8301169050919050565b7f456e756d657261626c655365743a20696e646578206f7574206f6620626f756e60008201527f6473000000000000000000000000000000000000000000000000000000000000602082015250565b7f6964206f7574206f662072616e67650000000000000000000000000000000000600082015250565b7f63616e6e6f74206d696e74206d6f726520746f6b656e73206174207469657200600082015250565b7f4552433732313a207472616e7366657220746f206e6f6e20455243373231526560008201527f63656976657220696d706c656d656e7465720000000000000000000000000000602082015250565b7f4552433732313a20746f6b656e20616c7265616479206d696e74656400000000600082015250565b7f4552433732313a207472616e7366657220746f20746865207a65726f2061646460008201527f7265737300000000000000000000000000000000000000000000000000000000602082015250565b7f4552433732313a20617070726f766520746f2063616c6c657200000000000000600082015250565b7f4552433732313a206f70657261746f7220717565727920666f72206e6f6e657860008201527f697374656e7420746f6b656e0000000000000000000000000000000000000000602082015250565b7f4552433732313a20617070726f76652063616c6c6572206973206e6f74206f7760008201527f6e6572206e6f7220617070726f76656420666f7220616c6c0000000000000000602082015250565b7f4552433732313a2062616c616e636520717565727920666f7220746865207a6560008201527f726f206164647265737300000000000000000000000000000000000000000000602082015250565b7f456e756d657261626c654d61703a20696e646578206f7574206f6620626f756e60008201527f6473000000000000000000000000000000000000000000000000000000000000602082015250565b7f4552433732313a206d696e7420746f20746865207a65726f2061646472657373600082015250565b7f4552433732313a20617070726f76656420717565727920666f72206e6f6e657860008201527f697374656e7420746f6b656e0000000000000000000000000000000000000000602082015250565b7f4552433732313a207472616e73666572206f6620746f6b656e2074686174206960008201527f73206e6f74206f776e0000000000000000000000000000000000000000000000602082015250565b7f4552433732314d657461646174613a2055524920717565727920666f72206e6f60008201527f6e6578697374656e7420746f6b656e0000000000000000000000000000000000602082015250565b7f696e73756666696369656e742062616c616e6365000000000000000000000000600082015250565b7f4552433732313a20617070726f76616c20746f2063757272656e74206f776e6560008201527f7200000000000000000000000000000000000000000000000000000000000000602082015250565b7f4552433732313a207472616e736665722063616c6c6572206973206e6f74206f60008201527f776e6572206e6f7220617070726f766564000000000000000000000000000000602082015250565b7f4552433732314275726e61626c653a2063616c6c6572206973206e6f74206f7760008201527f6e6572206e6f7220617070726f76656400000000000000000000000000000000602082015250565b613dcd8161360e565b8114613dd857600080fd5b50565b613de481613620565b8114613def57600080fd5b50565b613dfb8161362c565b8114613e0657600080fd5b50565b613e1281613658565b8114613e1d57600080fd5b50565b613e2981613686565b8114613e3457600080fd5b5056fe4552433732313a206f776e657220717565727920666f72206e6f6e6578697374656e7420746f6b656ea264697066735822122023a27056bd68618d526babfdef628b4add467ff9cbe6733d815931a70e64149864736f6c63430008040033",
  "linkReferences": {},
  "deployedLinkReferences": {}
}