{
  "_format": "hh-sol-artifact-1",
  "contractName": "AllowanceCrowdsale",
  "sourceName": "contracts/crowdsale/AllowanceCrowdsale.sol",
  "abi": [
    {
      "inputs": [
        {
          "internalType": "address",
          "name": "_tokenContract",
          "type": "address"
        },
        {
          "internalType": "address payable",
          "name": "_treasuryWallet",
          "type": "address"
        },
        {
          "internalType": "address",
          "name": "_tokenHoldingWallet",
          "type": "address"
        },
        {
          "internalType": "address",
          "name": "_membershipContract",
          "type": "address"
        },
        {
          "internalType": "address[]",
          "name": "_acceptedStablecoins",
          "type": "address[]"
        }
      ],
      "stateMutability": "nonpayable",
      "type": "constructor"
    },
    {
      "anonymous": false,
      "inputs": [
        {
          "indexed": true,
          "internalType": "address",
          "name": "previousOwner",
          "type": "address"
        },
        {
          "indexed": true,
          "internalType": "address",
          "name": "newOwner",
          "type": "address"
        }
      ],
      "name": "OwnershipTransferred",
      "type": "event"
    },
    {
      "inputs": [
        {
          "internalType": "uint256",
          "name": "",
          "type": "uint256"
        }
      ],
      "name": "acceptedStablecoins",
      "outputs": [
        {
          "internalType": "address",
          "name": "",
          "type": "address"
        }
      ],
      "stateMutability": "view",
      "type": "function"
    },
    {
      "inputs": [
        {
          "internalType": "uint256",
          "name": "numNFTs",
          "type": "uint256"
        },
        {
          "internalType": "uint8",
          "name": "whitelistIndex",
          "type": "uint8"
        },
        {
          "internalType": "bytes32[]",
          "name": "proof",
          "type": "bytes32[]"
        },
        {
          "internalType": "bool",
          "name": "payWithEth",
          "type": "bool"
        },
        {
          "internalType": "address",
          "name": "_stablecoinAddress",
          "type": "address"
        }
      ],
      "name": "buyNFTs",
      "outputs": [],
      "stateMutability": "payable",
      "type": "function"
    },
    {
      "inputs": [
        {
          "internalType": "address",
          "name": "",
          "type": "address"
        }
      ],
      "name": "claimed",
      "outputs": [
        {
          "internalType": "bool",
          "name": "",
          "type": "bool"
        }
      ],
      "stateMutability": "view",
      "type": "function"
    },
    {
      "inputs": [],
      "name": "ethRate",
      "outputs": [
        {
          "internalType": "uint256",
          "name": "",
          "type": "uint256"
        }
      ],
      "stateMutability": "view",
      "type": "function"
    },
    {
      "inputs": [],
      "name": "isActive",
      "outputs": [
        {
          "internalType": "bool",
          "name": "",
          "type": "bool"
        }
      ],
      "stateMutability": "view",
      "type": "function"
    },
    {
      "inputs": [],
      "name": "membershipContract",
      "outputs": [
        {
          "internalType": "address",
          "name": "",
          "type": "address"
        }
      ],
      "stateMutability": "view",
      "type": "function"
    },
    {
      "inputs": [],
      "name": "owner",
      "outputs": [
        {
          "internalType": "address",
          "name": "",
          "type": "address"
        }
      ],
      "stateMutability": "view",
      "type": "function"
    },
    {
      "inputs": [],
      "name": "renounceOwnership",
      "outputs": [],
      "stateMutability": "nonpayable",
      "type": "function"
    },
    {
      "inputs": [
        {
          "internalType": "uint256",
          "name": "_stablecoinRate",
          "type": "uint256"
        },
        {
          "internalType": "uint256",
          "name": "_ethRate",
          "type": "uint256"
        }
      ],
      "name": "setRates",
      "outputs": [],
      "stateMutability": "nonpayable",
      "type": "function"
    },
    {
      "inputs": [],
      "name": "stablecoinRate",
      "outputs": [
        {
          "internalType": "uint256",
          "name": "",
          "type": "uint256"
        }
      ],
      "stateMutability": "view",
      "type": "function"
    },
    {
      "inputs": [
        {
          "internalType": "enum ERC721MembershipUpgradeable.TierCode[]",
          "name": "tierCodes",
          "type": "uint8[]"
        },
        {
          "internalType": "uint256[]",
          "name": "allocations",
          "type": "uint256[]"
        },
        {
          "internalType": "bytes32[]",
          "name": "merkleRoots",
          "type": "bytes32[]"
        }
      ],
      "name": "startSale",
      "outputs": [],
      "stateMutability": "nonpayable",
      "type": "function"
    },
    {
      "inputs": [],
      "name": "stopSale",
      "outputs": [],
      "stateMutability": "nonpayable",
      "type": "function"
    },
    {
      "inputs": [],
      "name": "tokenContract",
      "outputs": [
        {
          "internalType": "address",
          "name": "",
          "type": "address"
        }
      ],
      "stateMutability": "view",
      "type": "function"
    },
    {
      "inputs": [],
      "name": "tokenHoldingWallet",
      "outputs": [
        {
          "internalType": "address",
          "name": "",
          "type": "address"
        }
      ],
      "stateMutability": "view",
      "type": "function"
    },
    {
      "inputs": [
        {
          "internalType": "address",
          "name": "newOwner",
          "type": "address"
        }
      ],
      "name": "transferOwnership",
      "outputs": [],
      "stateMutability": "nonpayable",
      "type": "function"
    },
    {
      "inputs": [],
      "name": "treasuryWallet",
      "outputs": [
        {
          "internalType": "address payable",
          "name": "",
          "type": "address"
        }
      ],
      "stateMutability": "view",
      "type": "function"
    }
  ],
  "bytecode": "0x60806040523480156200001157600080fd5b506040516200174938038062001749833981016040819052620000349162000205565b6200003f3362000122565b6001600160a01b038316620000ad5760405162461bcd60e51b815260206004820152602a60248201527f63726f776473616c653a746f6b656e2077616c6c657420697320746865207a65604482015269726f206164647265737360b01b606482015260840160405180910390fd5b6002805460ff19169055600880546001600160a01b038088166001600160a01b0319928316179092556005805487841690831617905560068054868416908316179055600980549285169290911691909117905580516200011690600790602084019062000172565b50505050505062000362565b600080546001600160a01b038381166001600160a01b0319831681178455604051919092169283917f8be0079c531659141344cd1fd0a4f28419497f9722a3daafe3b4186f6b6457e09190a35050565b828054828255906000526020600020908101928215620001ca579160200282015b82811115620001ca57825182546001600160a01b0319166001600160a01b0390911617825560209092019160019091019062000193565b50620001d8929150620001dc565b5090565b5b80821115620001d85760008155600101620001dd565b8051620002008162000349565b919050565b600080600080600060a086880312156200021d578081fd5b85516200022a8162000349565b809550506020808701516200023f8162000349565b6040880151909550620002528162000349565b6060880151909450620002658162000349565b60808801519093506001600160401b038082111562000282578384fd5b818901915089601f83011262000296578384fd5b815181811115620002ab57620002ab62000333565b8060051b604051601f19603f83011681018181108582111715620002d357620002d362000333565b604052828152858101935084860182860187018e1015620002f2578788fd5b8795505b838610156200031f576200030a81620001f3565b855260019590950194938601938601620002f6565b508096505050505050509295509295909350565b634e487b7160e01b600052604160045260246000fd5b6001600160a01b03811681146200035f57600080fd5b50565b6113d780620003726000396000f3fe6080604052600436106100f35760003560e01c8063a10316111161008a578063d2d93f9011610059578063d2d93f90146102a1578063e36b0b37146102b7578063f1ba1114146102cc578063f2fde38b146102ec57600080fd5b8063a103161114610218578063ac6af28014610238578063ad6dd6971461025e578063c884ef831461027157600080fd5b80635e4f9bab116100c65780635e4f9bab1461019f5780636acdabbf146101bf578063715018a6146101e35780638da5cb5b146101fa57600080fd5b806322f3e2d4146100f85780634626402b1461012757806351ec8d1e1461015f57806355a373d61461017f575b600080fd5b34801561010457600080fd5b506002546101129060ff1681565b60405190151581526020015b60405180910390f35b34801561013357600080fd5b50600554610147906001600160a01b031681565b6040516001600160a01b03909116815260200161011e565b34801561016b57600080fd5b50600954610147906001600160a01b031681565b34801561018b57600080fd5b50600854610147906001600160a01b031681565b3480156101ab57600080fd5b506101476101ba3660046111cf565b61030c565b3480156101cb57600080fd5b506101d560035481565b60405190815260200161011e565b3480156101ef57600080fd5b506101f8610336565b005b34801561020657600080fd5b506000546001600160a01b0316610147565b34801561022457600080fd5b50600654610147906001600160a01b031681565b34801561024457600080fd5b506101f86102533660046111ff565b600391909155600455565b6101f861026c366004611220565b6103a1565b34801561027d57600080fd5b5061011261028c3660046110dd565b60016020526000908152604090205460ff1681565b3480156102ad57600080fd5b506101d560045481565b3480156102c357600080fd5b506101f8610655565b3480156102d857600080fd5b506101f86102e73660046110fe565b610724565b3480156102f857600080fd5b506101f86103073660046110dd565b610a1d565b6007818154811061031c57600080fd5b6000918252602090912001546001600160a01b0316905081565b6000546001600160a01b031633146103955760405162461bcd60e51b815260206004820181905260248201527f4f776e61626c653a2063616c6c6572206973206e6f7420746865206f776e657260448201526064015b60405180910390fd5b61039f6000610af8565b565b60025460ff166103f35760405162461bcd60e51b815260206004820152601260248201527f63726f776473616c653a6e6f74206f70656e0000000000000000000000000000604482015260640161038c565b3360009081526001602052604090205460ff16156104795760405162461bcd60e51b815260206004820152602d60248201527f63726f776473616c653a757365722068617320616c726561647920636c61696d60448201527f656420616c6c6f636174696f6e00000000000000000000000000000000000000606482015260840161038c565b6000600a8660ff168154811061049f57634e487b7160e01b600052603260045260246000fd5b60009182526020822060016003909202019081015460095482546040517f5586402d0000000000000000000000000000000000000000000000000000000081529395509193926001600160a01b0390911691635586402d916105079160ff16906004016112c6565b60206040518083038186803b15801561051f57600080fd5b505afa158015610533573d6000803e3d6000fd5b505050506040513d601f19601f8201168201806040525081019061055791906111e7565b90506000610565828b611303565b90506105798382848b8b8960020154610b60565b610584868287610cdc565b60005b8a81101561062b5760095485546006546040517f2444fdee0000000000000000000000000000000000000000000000000000000081526001600160a01b0393841693632444fdee936105e69360ff9091169291169033906004016112d4565b600060405180830381600087803b15801561060057600080fd5b505af1158015610614573d6000803e3d6000fd5b50505050808061062390611322565b915050610587565b5050336000908152600160208190526040909120805460ff19169091179055505050505050505050565b6000546001600160a01b031633146106af5760405162461bcd60e51b815260206004820181905260248201527f4f776e61626c653a2063616c6c6572206973206e6f7420746865206f776e6572604482015260640161038c565b6002805460ff1916905560005b600a5460ff8216101561072157600a8160ff16815481106106ed57634e487b7160e01b600052603260045260246000fd5b600091825260208220600390910201805460ff191681556001810182905560020155806107198161133d565b9150506106bc565b50565b6000546001600160a01b0316331461077e5760405162461bcd60e51b815260206004820181905260248201527f4f776e61626c653a2063616c6c6572206973206e6f7420746865206f776e6572604482015260640161038c565b848314801561078c57508281145b6107fe5760405162461bcd60e51b815260206004820152603560248201527f63726f776473616c653a77686974656c69737473206172726179732073686f7560448201527f6c64206265206f6620657175616c206c656e6774680000000000000000000000606482015260840161038c565b846108715760405162461bcd60e51b815260206004820152603060248201527f63726f776473616c653a77686974656c69737473206172726179732e6c656e6760448201527f74682073686f756c64206265203e203000000000000000000000000000000000606482015260840161038c565b60025460ff16156108c45760405162461bcd60e51b815260206004820152601160248201527f73616c65207374696c6c20616374697665000000000000000000000000000000604482015260640161038c565b6002805460ff1916600117905560005b85811015610a1457600a604051806060016040528089898581811061090957634e487b7160e01b600052603260045260246000fd5b905060200201602081019061091e91906111b0565b600281111561093d57634e487b7160e01b600052602160045260246000fd5b815260200187878581811061096257634e487b7160e01b600052603260045260246000fd5b90506020020135815260200185858581811061098e57634e487b7160e01b600052603260045260246000fd5b602090810292909201359092528354600181810186556000958652919094208351600390950201805493949093909250839160ff19909116908360028111156109e757634e487b7160e01b600052602160045260246000fd5b02179055506020820151600182015560409091015160029091015580610a0c81611322565b9150506108d4565b50505050505050565b6000546001600160a01b03163314610a775760405162461bcd60e51b815260206004820181905260248201527f4f776e61626c653a2063616c6c6572206973206e6f7420746865206f776e6572604482015260640161038c565b6001600160a01b038116610af35760405162461bcd60e51b815260206004820152602660248201527f4f776e61626c653a206e6577206f776e657220697320746865207a65726f206160448201527f6464726573730000000000000000000000000000000000000000000000000000606482015260840161038c565b610721815b600080546001600160a01b038381167fffffffffffffffffffffffff0000000000000000000000000000000000000000831681178455604051919092169283917f8be0079c531659141344cd1fd0a4f28419497f9722a3daafe3b4186f6b6457e09190a35050565b610b6a858761135d565b158015610b7e5750610b7c848661135d565b155b610c165760405162461bcd60e51b815260206004820152604960248201527f63726f776473616c653a6d75737420707572636861736520746f6b656e73206960448201527f6e206469736372657465207175616e746974696573206261736564206f6e206160648201527f6c6c6f636174696f6e0000000000000000000000000000000000000000000000608482015260a40161038c565b610c88838380806020026020016040519081016040528093929190818152602001838360200280828437600092019190915250506040516bffffffffffffffffffffffff193360601b166020820152859250603401905060405160208183030381529060405280519060200120610ec3565b610cd45760405162461bcd60e51b815260206004820152600d60248201527f496e76616c69642070726f6f6600000000000000000000000000000000000000604482015260640161038c565b505050505050565b82610e0857600060035411610d335760405162461bcd60e51b815260206004820152601d60248201527f63726f776473616c653a737461626c65636f696e52617465203c3d2030000000604482015260640161038c565b610d3c81610ed9565b6005546003546001600160a01b03928316926323b872dd923392911690610d639087611303565b6040517fffffffff0000000000000000000000000000000000000000000000000000000060e086901b1681526001600160a01b0393841660048201529290911660248301526044820152606401602060405180830381600087803b158015610dca57600080fd5b505af1158015610dde573d6000803e3d6000fd5b505050506040513d601f19601f82011682018060405250810190610e029190611194565b50505050565b600060045411610e5a5760405162461bcd60e51b815260206004820152601660248201527f63726f776473616c653a65746852617465203c3d203000000000000000000000604482015260640161038c565b600454610e679083611303565b341015610eb65760405162461bcd60e51b815260206004820152601860248201527f63726f776473616c653a6e6f7420656e6f756768206574680000000000000000604482015260640161038c565b610ebe610fba565b505050565b600082610ed08584610ff3565b14949350505050565b600080805b600754811015610f3f5760078181548110610f0957634e487b7160e01b600052603260045260246000fd5b6000918252602090912001546001600160a01b0385811691161415610f2d57600191505b80610f3781611322565b915050610ede565b5080610fb35760405162461bcd60e51b815260206004820152602260248201527f63726f776473616c653a737461626c65636f696e206e6f7420737570706f727460448201527f6564000000000000000000000000000000000000000000000000000000000000606482015260840161038c565b5090919050565b6005546040516001600160a01b03909116903480156108fc02916000818181858888f19350505050158015610721573d6000803e3d6000fd5b600081815b845181101561106d57600085828151811061102357634e487b7160e01b600052603260045260246000fd5b60200260200101519050808311611049576000838152602082905260409020925061105a565b600081815260208490526040902092505b508061106581611322565b915050610ff8565b5090505b92915050565b80356001600160a01b038116811461108e57600080fd5b919050565b60008083601f8401126110a4578182fd5b50813567ffffffffffffffff8111156110bb578182fd5b6020830191508360208260051b85010111156110d657600080fd5b9250929050565b6000602082840312156110ee578081fd5b6110f782611077565b9392505050565b60008060008060008060608789031215611116578182fd5b863567ffffffffffffffff8082111561112d578384fd5b6111398a838b01611093565b90985096506020890135915080821115611151578384fd5b61115d8a838b01611093565b90965094506040890135915080821115611175578384fd5b5061118289828a01611093565b979a9699509497509295939492505050565b6000602082840312156111a5578081fd5b81516110f781611393565b6000602082840312156111c1578081fd5b8135600381106110f7578182fd5b6000602082840312156111e0578081fd5b5035919050565b6000602082840312156111f8578081fd5b5051919050565b60008060408385031215611211578182fd5b50508035926020909101359150565b60008060008060008060a08789031215611238578182fd5b86359550602087013560ff8116811461124f578283fd5b9450604087013567ffffffffffffffff81111561126a578283fd5b61127689828a01611093565b909550935050606087013561128a81611393565b915061129860808801611077565b90509295509295509295565b600381106112c257634e487b7160e01b600052602160045260246000fd5b9052565b6020810161107182846112a4565b606081016112e282866112a4565b6001600160a01b038085166020840152808416604084015250949350505050565b600081600019048311821515161561131d5761131d61137d565b500290565b60006000198214156113365761133661137d565b5060010190565b600060ff821660ff8114156113545761135461137d565b60010192915050565b60008261137857634e487b7160e01b81526012600452602481fd5b500690565b634e487b7160e01b600052601160045260246000fd5b801515811461072157600080fdfea26469706673582212207281feb419e5fec8b7b3bfb3a4fab0e3a25faf242a50211f9d7e24d6f2840fd464736f6c63430008040033",
  "linkReferences": {},
  "deployedLinkReferences": {}
}